:020000040800F2
:100000006F00C015720500087205000800000000AE
:100010007205000872050008720500080000000063
:1000200072050008720500087205000872050008D4
:1000300072050008720500087205000872050008C4
:100040007205000800000000000000000000000031
:1000500000000000000000000000000000000000A0
:100060000000000000000000000000000000000090
:100070000000000000000000000000000000000080
:100080000000000000000000000000000000000070
:100090000000000000000000000000000000000060
:1000A0000000000000000000000000000000000050
:1000B000000000000000000000000000327F000887
:1000C0000000000000000000000000000000000030
:1000D0000000000000000000000000000000000020
:1000E0000000000000000000000000000000000010
:1000F0000000000000000000720500087205000802
:100100007205000872050008720500080000000072
:100110007205000800000000000000000000000060
:1001200000000000000000000000000000000000CF
:1001300000000000000000000000000000000000BF
:1001400072050008720500080000000000000000B1
:100150000000000000000000000000007370043088
:10016000170500001305C5FF8545F605637BB5003F
:1001700089816378B500170500001305C5002E9529
:100180000285970100189381E16D17510018130142
:1001900061E79302002073A0027D97020000938222
:1001A00062E673907230970200009382A2357390DA
:1001B000C27E73E0C07E970200009382A22C7390EF
:1001C00052309302F00373B0523073E0513073F049
:1001D0000232170500001305E50997050000938515
:1001E00065096300B50217060200130626CF63FAFD
:1001F000C5008322050023A0550011059105E3EAFF
:10020000C5FE17050200130565CD970500189385F7
:1002100065DF17060018130626E663FAC500832279
:10022000050023A0550011059105E3EAC5FE170559
:100230000018130565E4938501ED6377B50023206D
:1002400005001105E36DB5FEEF10D07317850000B2
:100250001305C556EF80A055EF80A059EF20201E52
:0E02600001458145EF70005CEF20202001A0D9
:10028000011122CE00102326A4FE9387C1EC25473E
:1002900098C3FD573E85724405618280011122CECC
:1002A00000102326A4FE2324B4FE0327C4FE8547A2
:1002B0006307F7000327C4FE89476318F700832705
:1002C00084FE0967D8C3814731A09387C1EC2547D5
:1002D00098C3FD573E85724405618280011122CE8C
:1002E00000102326A4FE85473E8572440561828066
:1002F000011122CE00102326A4FE2324B4FE2322C3
:10030000C4FE81473E85724405618280797106D6BC
:1003100022D40018232EA4FC232CB4FC232AC4FCD2
:100320008327C4FD99C3FD5705A0832784FD232699
:10033000F4FE37550040EF10B02BAA873E87832785
:10034000C4FE2380E70085473E85B25022544561B4
:100350008280011122CE00102326A4FE97070018E8
:10036000938747D098438327C4FE3E97938701ED38
:100370006360F702970700189387C7CE98438327D7
:10038000C4FE3E97974700189387C74763F4E7007A
:10039000FD5705A8970700189387C7CC9843832774
:1003A000C4FE3E97970700189387C7CB98C397075B
:1003B0000018938727CB98438327C4FEB307F040E8
:1003C000BA973E85724405618280797106D622D43F
:1003D0000018232EA4FC232CB4FC232AC4FC0325E0
:1003E000C4FDEF802057AA8799E3FD5785A0832796
:1003F00084FD2324F4FE232604FE89A0032784FE23
:100400008327C4FEBA9703C70700A9476317F700FD
:10041000B54537550040EF10F019032784FE8327B8
:10042000C4FEBA9783C70700BE8537550040EF105A
:1004300070188327C4FE85072326F4FE0327C4FE15
:10044000832744FDE36CF7FA832744FD3E85B250D1
:10045000225445618280000000000000000000007E
:10046000000000000000000000000000000000008C
:10047000000000000000000000000000000000007C
:100480005D7106C012C216C41AC61EC82ACA2ECC76
:1004900032CE36D03AD23ED442DC46DEF2C0F6C28C
:1004A000FAC4FEC673D0E57E7350F67E73D0B67E76
:1004B000732520348A85EF109060D2527390427C6D
:1004C000C25273901234B25273902234824012425C
:1004D000A2423243C2435245E24572468256125707
:1004E000A2576258F258064E964E264FB64F61619B
:1004F0007300203000000000000000000000000039
:100500005D7106C012C216C41AC61EC82ACA2ECCF5
:1005100032CE36D03AD23ED442DC46DEF2C0F6C20B
:10052000FAC4FEC673D0E57E7350F67E73D0B67EF5
:10053000F390D07E73700430D2527390427CC252DA
:1005400073901234B2527390223482401242A2420B
:100550003243C2435245E245724682561257A25771
:100560006258F258064E964E264FB64F61617300A0
:10057000203001A00000011122CE0010F3670430EA
:100580002326F4FE0100724405618280011106CE2B
:1005900022CC00102326A4FEAE873287A305F4FEEA
:1005A000BA872305F4FE0325C4FEEF10F06E8347DF
:1005B000B4FEBE850325C4FEEF20A0018347A4FE40
:1005C000BE850325C4FEEF2080090100F24062448D
:1005D00005618280797122D60018232EA4FC23267F
:1005E00004FE232404FE8327C4FD9843B7070014A8
:1005F000BA978E079C432326F4FE0327C4FED577C3
:10060000938717D8F98F2326F4FE8327C4FDDC4F88
:10061000139717008327C4FD9C4F5D8F8327C4FD6C
:10062000DC4B5D8F8327C4FD9C4B5D8F8327C4FD0E
:10063000DC47B2075D8F8327C4FD9C47B6075D8FFB
:100640008327C4FDDC43BE07D98F0327C4FED98F9F
:100650002326F4FE8327C4FD9C53DC47FD1713F7C4
:10066000F7008327C4FD9C539C47FD17920793F71F
:10067000F70F5D8F8327C4FD9C53DC43FD179396D2
:100680008700C167FD17F58F5D8F8327C4FD9C53DD
:100690009C43FD1793960701B7070F00F58FD98F7D
:1006A0002324F4FE8327C4FD984FA1476318F70065
:1006B0008327C4FE93E707042326F4FE8327C4FDA3
:1006C0009843B7070014BA978E073E878327C4FE66
:1006D0001CC38327C4FD9C4313973700B70700A0B2
:1006E0009107BA973E87832784FE1CC301003254CA
:1006F00045618280011122CE00102326A4FE03272B
:10070000C4FEB7070014BA978E079C438326C4FE25
:100710003707001436970E0793E717001CC3010034
:10072000724405618280797122D60018232EA4FCC0
:10073000232CB4FC232AC4FC2328D4FC232404FE49
:10074000232204FE832784FDBD8B2324F4FE83270C
:1007500084FDC18B81CB032784FE832744FDD98F81
:100760002324F4FE231704FE4DA88357E4FE054717
:100770003317F700832704FDF98FD9CB8327C4FDF6
:100780009C432322F4FE8357E4FE8A073D47B317B8
:10079000F70093C7F7FF032744FEF98F2322F4FEE7
:1007A0008357E4FE8A07032784FEB317F700032765
:1007B00044FED98F2322F4FE032784FD9307800291
:1007C0006310F7028357E4FE05473317F7008327CA
:1007D000C4FDD107BE86832704FDF98F9CC225A0E6
:1007E000032784FD93078004631FF7008357E4FE0B
:1007F00005473317F7008327C4FDC107BE8683274B
:1008000004FDF98F9CC28327C4FD032744FE98C3CF
:100810008357E4FE85072317F4FE0357E4FE9D4744
:10082000E3F5E7F4A1472317F4FE75A88357E4FE28
:1008300005473317F700832704FDF98FC5C38327C6
:10084000C4FD91079C432322F4FE8357E4FEE11785
:100850008A073D47B317F70093C7F7FF032744FE06
:10086000F98F2322F4FE8357E4FEE1178A0703275A
:1008700084FEB317F700032744FED98F2322F4FE2A
:10088000032784FD930780026310F7028357E4FE79
:1008900005473317F7008327C4FDD107BE8683279A
:1008A00004FDF98F9CC225A0032784FD93078004D3
:1008B000631FF7008357E4FE05473317F7008327CC
:1008C000C4FDC107BE86832704FDF98F9CC2832720
:1008D000C4FD91073E87832744FE1CC38357E4FE73
:1008E00085072317F4FE0357E4FEBD47E3F0E7F462
:1008F00001000100325445618280011122CE0010B6
:100900002326A4FE2324B4FE2322C4FE832744FE10
:1009100089CB8327C4FEC1073E87832784FE1CC37F
:1009200001A88327C4FED1073E87832784FE1CC30A
:100930000100724405618280011122CE001023263D
:10094000A4FE2324B4FE8327C4FEA1079843832773
:1009500084FEF98F99C3854711A081473E85724473
:1009600005618280011122CE00102326A4FE832778
:10097000C4FE13D76700B7170240BA97984383277E
:10098000C4FEFD8B8546B397F6008326C4FE13D6BE
:100990006600B7160240B296D98F9CC2010072441D
:1009A00005618280011122CE00102326A4FE832738
:1009B000C4FE13D76700B7170240BA97984383273E
:1009C000C4FEFD8B8546B397F6008326C4FE13D67E
:1009D0006600B7160240B296D98F9CC201007244DD
:1009E00005618280011122CE00102326A4FE8327F8
:1009F000C4FE13D76700B7170240BA9798438327FE
:100A0000C4FEFD8B8546B397F60093C7F7FF832698
:100A1000C4FE13D66600B7160240B296F98F9CC288
:100A200001007244056182801971A2DE0001232653
:100A3000A4F8232604FE979700009387670390434A
:100A4000D4439847DC472322C4FA2324D4FA23262C
:100A5000E4FA2328F4FA232E04F8B7070304938753
:100A600017202320F4FA232A04F8B70703049387F6
:100A70001720232CF4F8B717024091079C43898371
:100A80008D8B232CF4FC032784FD8947630EF7022A
:100A9000032784FD894763EBE716832784FD99C705
:100AA000032784FD8547630AF7008DA2B7177A00F4
:100AB000938707202324F4FE95A2B7177A00938723
:100AC00007202324F4FE99AAB71702409107984300
:100AD000C167F98F232AF4FC032744FDC167631023
:100AE000F70AB7177A00938707202320F4FEB71779
:100AF00002409387C7029843C167F98F2328F4FC0B
:100B0000032704FDC167631AF704B71702409387F0
:100B1000C7029C439183BD8B85072326F4FCB7173E
:100B200002409387C7029C43A183BD8B8907232E74
:100B3000F4FC0327C4FDC5476315F700D147232EF6
:100B4000F4FC032704FE8327C4FCB357F7020327F2
:100B5000C4FDB307F7022320F4FEB71702409387C2
:100B6000C7029C43BD8B85072324F4FC032704FEA6
:100B7000832784FCB357F7022320F4FE39A0B7176C
:100B80003D00938707902320F4FEB717024091079A
:100B90009C43C983BD8B2322F4FEB7170240910703
:100BA0009843B7070020F98F99C7832744FE93E73E
:100BB00007012322F4FE032744FEB94763E8E70058
:100BC000832744FE89072322F4FE31A0832744FEB5
:100BD00085072322F4FE032704FE832744FEB30780
:100BE000F7022324F4FE032744FEBD476317F702F0
:100BF000032704FEBA878607BA9786073E878327AE
:100C000004FE8583BA972324F4FE01A8B7177A005F
:100C1000938707202324F4FE11A00100B717024098
:100C200091079C439183BD8B2322F4FC832744FCD2
:100C3000130704FFBA9783C747FB2320F4FC8327DD
:100C400004FC032784FEB357F700232EF4FAB717EA
:100C5000024091079C43A1839D8B2322F4FC8327B0
:100C600044FC130704FFBA9783C7C7FA2320F4FC98
:100C7000832704FC0327C4FBB357F700232CF4FAA3
:100C8000B717024091079C43AD839D8B2322F4FC50
:100C9000832744FC130704FFBA9783C747FA23202E
:100CA000F4FC832704FC0327C4FBB357F700232A73
:100CB000F4FA0327C4F88D476309F7040327C4F83F
:100CC0008D4763E9E7040327C4F88947630AF702FD
:100CD0000327C4F8894763EFE7028327C4F899C75D
:100CE0000327C4F885476308F7002DA0832784FEF7
:100CF0002326F4FE0DA08327C4FB2326F4FE21A89F
:100D0000832784FB2326F4FE39A0832744FB232674
:100D1000F4FE11A001008327C4FE3E8576540961CC
:100D20008280011106CE22CC00102326A4FE0327C8
:100D3000C4FEB7370140938707C06305F70A03274E
:100D4000C4FEB7370140938707C063EEE70E032761
:100D5000C4FEB717004093870740630FF70C0327C3
:100D6000C4FEB71700409387074063EEE70C0327E4
:100D7000C4FEB7170040630AF70A0327C4FEB7177B
:100D8000004063E2E70C0327C4FEB71700409387D7
:100D900007C06305F7080327C4FEB7170040938711
:100DA00007C063E2E70A0327C4FEB7170040938732
:100DB0000780630EF7040327C4FEB717004093872C
:100DC000078063E2E7080327C4FEB7070040630219
:100DD000F7020327C4FEB70700409387074063016B
:100DE000F70295A01305B030753E1305B030DD3E17
:100DF000A1A8130500407D3613050040E536A9A0E3
:100E000013051040453613051040E93E35A813057B
:100E10002040493E13052040F1363DA013053040E7
:100E20005136130530407D3E05A0130540409D3EE0
:100E300013054040453E09A813055040A53613054B
:100E400050404D3611A001000100F240624405619E
:100E50008280011122CE00102326A4FE8327C4FE27
:100E6000239007008327C4FE239107008327C4FE35
:100E7000239207008327C4FE41677D1798C7832705
:100E8000C4FE239607008327C4FE238707000100C2
:100E9000724405618280011122CE00102326A4FE37
:100EA0002324B4FE832784FE03D707008327C4FED0
:100EB0009387870298C30327C4FEB73701409387FF
:100EC00007C06300F7040327C4FEB7070040630AA6
:100ED000F7020327C4FEB707004093870740630269
:100EE000F7020327C4FEB717004093870780630A01
:100EF000F7000327C4FEB7170040938707C06315A8
:100F0000F7048327C4FE98438327C4FE1377F7F8BA
:100F100098C38327C4FE9443832784FE83D7270086
:100F200013F707068327C4FE558F98C38327C4FE93
:100F30009443832784FE83D7470013F70701832751
:100F4000C4FE558F98C32DA08327C4FE98438327E2
:100F5000C4FE3D9B98C38327C4FE9443832784FE2D
:100F600083D7470013F707018327C4FE558F98C323
:100F70008327C4FE9387C7023E87832784FE9C474E
:100F80001CC30327C4FEB7170040630FF7020327F3
:100F9000C4FEB7170040938707406307F702832713
:100FA000C4FE98438327C4FE1377F7CF98C38327E3
:100FB000C4FE9443832784FE83D7C70013F707300A
:100FC0008327C4FE558F98C30327C4FEB73701405B
:100FD000938707C0631BF700832784FE03C7E700DE
:100FE0008327C4FE9387070398C38327C4FED107D2
:100FF0009C430327C4FE510793E717001CC301005D
:10100000724405618280011122CE00102326A4FEC5
:101010008327C4FE98438327C4FE1367170098C331
:101020000100724405618280011122CE0010232646
:10103000A4FE8327C4FE239007008327C4FE2391C8
:1010400007008327C4FE239207008327C4FE23934F
:1010500007008327C4FE239407008327C4FE23953B
:1010600007000100724405618280011122CE001048
:101070002326A4FEAE872322C4FE2315F4FE835745
:10108000A4FE0D47638CE7440D476342F7520947BE
:10109000638DE72C0947634CF75089C70547638187
:1010A000E71631A38327C4FE938707029C430327D7
:1010B000C4FE13070702F99B1CC38327C4FE938752
:1010C00007029C43032744FE03570700BA86032701
:1010D000C4FE13070702D58F1CC38327C4FE938762
:1010E00007029C430327C4FE13070702F59B1CC39A
:1010F0008327C4FE938707029C43032744FE0357BC
:101100004700BA860327C4FE13070702D58F1CC306
:101110000327C4FEB7370140938707C06318F70C55
:101120008327C4FE938707029C430327C4FE13074B
:101130000702ED9B1CC38327C4FE938707029C43D1
:10114000032744FE03572700BA860327C4FE13076C
:101150000702D58F1CC38327C4FE938707029C43D5
:101160000327C4FE13070702DD9B1CC38327C4FEAD
:10117000938707029C43032744FE03576700BA8600
:101180000327C4FE13070702D58F1CC38327C4FEA1
:1011900091079C430327C4FE110793F7F7EF1CC385
:1011A0008327C4FE91079C43032744FE035787000F
:1011B000BA860327C4FE1107D58F1CC38327C4FE3C
:1011C00091079C430327C4FE110793F7F7DF1CC365
:1011D0008327C4FE91079C43032744FE0357A700BF
:1011E000BA860327C4FE1107D58F1CC38327C4FE0C
:1011F000E1079C430327C4FE6107F19B1CC34DAE6E
:101200008327C4FE938707029C430327C4FE13076A
:101210000702BD9B1CC38327C4FE93870702984324
:10122000832744FE83D7070092078326C4FE938654
:101230000602D98F9CC28327C4FE938707029C4372
:101240000327C4FE1307070293F7F7FD1CC3832788
:10125000C4FE938707029843832744FE83D7470041
:1012600092078326C4FE93860602D98F9CC2032769
:10127000C4FEB7370140938707C0631DF70C83276F
:10128000C4FE938707029C430327C4FE130707028B
:1012900093F7F7FB1CC38327C4FE93870702984389
:1012A000832744FE83D7270092078326C4FE9386B4
:1012B0000602D98F9CC28327C4FE938707029C43F2
:1012C0000327C4FE1307070293F7F7F71CC383270E
:1012D000C4FE938707029843832744FE83D76700A1
:1012E00092078326C4FE93860602D98F9CC2832769
:1012F000C4FE91079C430327C4FE110793F7F7BF71
:101300001CC38327C4FE91079843832744FE83D7D9
:1013100087008A078326C4FE9106D98F9CC2832743
:10132000C4FE910798438327C4FE9107BE86FD77CC
:101330009387F77FF98F9CC28327C4FE9107984358
:10134000832744FE83D7A7008A078326C4FE91061D
:10135000D98F9CC28327C4FEE1079C430327C4FEA8
:10136000610793F7F7CF1CC3A1A48327C4FE93871B
:1013700007029C430327C4FE1307070293F7F7EF06
:101380001CC38327C4FE938707029843832744FE28
:1013900083D70700A2078326C4FE93860602D98F4F
:1013A0009CC28327C4FE938707029C430327C4FE85
:1013B0001307070293F7F7DF1CC38327C4FE938745
:1013C00007029843832744FE83D74700A20783265A
:1013D000C4FE93860602D98F9CC20327C4FEB7378A
:1013E0000140938707C06311F70E8327C4FE9387DC
:1013F00007029C430327C4FE1307070293F7F7BFB6
:101400001CC38327C4FE938707029843832744FEA7
:1014100083D72700A2078326C4FE93860602D98FAE
:101420009CC28327C4FE9387070298438327C4FE88
:1014300093870702BE86FD779387F77FF98F9CC25B
:101440008327C4FE938707029843832744FE83D7EC
:101450006700A2078326C4FE93860602D98F9CC22A
:101460008327C4FE910798438327C4FE9107BE8655
:10147000FD77FD17F98F9CC28327C4FE910798431F
:10148000832744FE83D7870092078326C4FE9106F4
:10149000D98F9CC28327C4FE910798438327C4FE3B
:1014A0009107BE86F977FD17F98F9CC28327C4FE8A
:1014B00091079843832744FE83D7A700920783268A
:1014C000C4FE9106D98F9CC28327C4FEF1079C43BA
:1014D0000327C4FE7107F19B1CC3D9A88327C4FE50
:1014E0009387070298438327C4FE93870702BE862B
:1014F000FD77FD17F98F9CC28327C4FE93870702EF
:101500009843832744FE83D70700B2078326C4FE8F
:1015100093860602D98F9CC28327C4FE9387070255
:1015200098438327C4FE93870702BE86F977FD1789
:10153000F98F9CC28327C4FE9387070298438327B1
:1015400044FE83D74700B2078326C4FE9386060273
:10155000D98F9CC20327C4FEB7370140938707C0C9
:10156000631CF7028327C4FE910798438327C4FEB8
:101570009107BE86F177FD17F98F9CC28327C4FEC1
:1015800091079843832744FE83D787009A078326D1
:10159000C4FE9106D98F9CC28327C4FEF1079C43E9
:1015A0000327C4FE710793F7F7CF1CC311A00100F6
:1015B0000100724405618280011122CE00102326B1
:1015C000A4FEAE8732872315F4FEBA872314F4FEF7
:1015D0008357A4FE0D476385E70A0D47634BF70C5D
:1015E00009476389E70609476345F70C89C705473B
:1015F0006389E7027DA88327C4FEE1079C43032794
:10160000C4FE610793F7F7F81CC38327C4FEE10704
:101610009843835784FE8326C4FEE106D98F9CC27B
:1016200051A88327C4FEE10798438327C4FEE1073E
:10163000BE86E577FD17F98F9CC28327C4FEE107BC
:101640009843835784FEA2078326C4FEE106D98F00
:101650009CC28DA08327C4FEF1079C430327C4FED0
:10166000710793F7F7F81CC38327C4FEF10798436B
:10167000835784FE8326C4FEF106D98F9CC21DA821
:101680008327C4FEF10798438327C4FEF107BE8673
:10169000E577FD17F98F9CC28327C4FEF1079843B5
:1016A000835784FEA2078326C4FEF106D98F9CC20D
:1016B00011A001000100724405618280011122CE57
:1016C00000102326A4FEAE872322C4FE2315F4FEB9
:1016D0008357A4FE0D47638BE7040D476341F7066C
:1016E0000947638CE7020947634BF70489C705473D
:1016F000638CE700A9A08327C4FE938747033E8736
:10170000832744FE1CC32DA88327C4FE9387870329
:101710003E87832744FE1CC325A08327C4FE9387EE
:10172000C7033E87832744FE1CC319A88327C4FE32
:10173000938707043E87832744FE1CC311A0010042
:101740000100724405618280011122CE001023261F
:10175000A4FEAE8732872315F4FEBA872314F4FE65
:101760008357A4FE0D476384E70A0D47634BF70CCC
:1017700009476389E70609476345F70C89C70547A9
:101780006388E7027DA88327C4FEE1079C43032703
:10179000C4FE6107DD9B1CC38327C4FEE107984399
:1017A000835784FE8326C4FEE106D98F9CC259A8C4
:1017B0008327C4FEE10798438327C4FEE107BE8662
:1017C000FD779387F77FF98F9CC28327C4FEE107DB
:1017D0009843835784FEA2078326C4FEE106D98F6F
:1017E0009CC28DA08327C4FEF1079C430327C4FE3F
:1017F0007107DD9B1CC38327C4FEF1079843835701
:1018000084FE8326C4FEF106D98F9CC225A88327B7
:10181000C4FEF10798438327C4FEF107BE86FD7717
:101820009387F77FF98F9CC28327C4FEF107984303
:10183000835784FEA2078326C4FEF106D98F9CC27B
:1018400011A001000100724405618280011122CEC5
:1018500000102326A4FE2324B4FE8327C4FEB10770
:1018600098438327C4FEB107BE86832784FED98FA1
:101870009CC20100724405618280797122D60018F1
:10188000232EA4FC232CB4FC8327C4FDB1079C4366
:10189000032784FDF98F2326F4FE8327C4FDC107A7
:1018A0009843832784FDF98F91C78327C4FE99C38A
:1018B000854711A081473E853254456182800111E0
:1018C00022CE00102326A4FE2324B4FE8327C4FEC8
:1018D000C1073E87832784FE93C7F7FF1CC301001F
:1018E000724405618280011106CE22CC00102326AD
:1018F000A4FE0327C4FEB747014093870780630710
:10190000F7060327C4FEB74701409387078063ECBF
:10191000E70A0327C4FEB7570040630DF708032703
:10192000C4FEB757004063E0E70A0327C4FEB75779
:101930000040938707C06306F7060327C4FEB75726
:101940000040938707C063E0E7080327C4FEB7475A
:101950000040938707406304F7020327C4FEB7578C
:101960000040938707806305F702B1A81305E030B4
:10197000EFF04F831305E030EFF0CF86B1A01305F1
:101980001041EFF02F8213051041EFF0AF852DA825
:1019900013052041EFF00F8113052041EFF08F84F4
:1019A00025A013053041EFE0FFFF13053041EFF0B4
:1019B0006F8319A813054041EFE0DFFE1305404196
:1019C000EFF04F8211A001000100F2406244056176
:1019D0008280797106D622D40018232EA4FC232CF1
:1019E000B4FC232604FE232404FE232204FE232029
:1019F00004FE0327C4FDB7470140938707806307B0
:101A0000F7060327C4FDB74701409387078063EDBE
:101A1000E7080327C4FDB75700406301F708032711
:101A2000C4FDB757004063E1E7080327C4FDB7577B
:101A30000040938707C0630DF7040327C4FDB75721
:101A40000040938707C063E1E7060327C4FDB7475B
:101A50000040938707406301F7020327C4FDB7578F
:101A6000004093870780630FF7003DA80D45EFE026
:101A7000BFFB2326A4FE15A80945EFE0FFFA2326A5
:101A8000A4FE25A00945EFE03FFA2326A4FE31A8D5
:101A90000945EFE07FF92326A4FE01A80945EFE000
:101AA000BFF82326A4FE11A00100832784FD13D7CD
:101AB00017008327C4FE3E97832784FDB357F702A0
:101AC0002320F4FE032704FEC167C117F98F2324E6
:101AD000F4FE832704FEBD8B2322F4FE032784FE3D
:101AE000832744FE5D8F8327C4FDA107BE86C1679F
:101AF000FD17F98F9CC20100B250225445618280CB
:101B0000011122CE00102326A4FE2324B4FE832735
:101B1000C4FEB1079C430327C4FE310793F7F79F28
:101B20001CC38327C4FEB10798438327C4FEB107B3
:101B3000BE86832784FED98F9CC201007244056152
:101B40008280011122CE00102326A4FE2324B4FE9D
:101B50008327C4FEB10798438327C4FEB107BE861E
:101B6000FD77FD17F98F9CC28327C4FEB107984308
:101B70008327C4FEB107BE86832784FED98F9CC20B
:101B80000100724405618280011122CE00102326DB
:101B9000A4FE2324B4FE8327C4FEC10798438327F1
:101BA000C4FEC107BE86F577FD17F98F9CC2832757
:101BB000C4FEC10798438327C4FEC107BE8683279E
:101BC00084FED98F9CC2010072440561828001119C
:101BD00022CE00102326A4FE8327C4FEB10798431B
:101BE0008327C4FEB107BE868967D98F9CC20100D6
:101BF000724405618280797122D60018232EA4FCDC
:101C0000232CB4FC232604FE8327C4FDB1079C4388
:101C10002326F4FE8327C4FEDD9B2326F4FE032740
:101C2000C4FE832784FDD98F2326F4FE8327C4FDB9
:101C3000B1073E878327C4FE1CC3010032544561AF
:101C40008280797122D60018232EA4FC232CB4FCA8
:101C5000232604FE8327C4FDB1079C432326F4FEFC
:101C60008327C4FEED9B2326F4FE0327C4FE8327AF
:101C700084FDD98F2326F4FE8327C4FDB1073E8758
:101C80008327C4FE1CC301003254456182800111C8
:101C900022CE00102326A4FE2324B4FE8327C4FEF4
:101CA00091073E87832784FE93F7F71F1CC301002B
:101CB000724405618280011122CE00102326A4FE09
:101CC0008327C4FE91079C43C207C18393F7F71F84
:101CD000C207C1833E85724405618280797122D634
:101CE0000018232EA4FC232CB4FC232604FE8327F7
:101CF000C4FDD1079C432326F4FE8327C4FE93F73B
:101D0000F7EF2326F4FE0327C4FE832784FDD98F33
:101D10002326F4FE8327C4FDD1073E878327C4FE14
:101D20001CC30100325445618280797122D60018AB
:101D3000232EA4FC232CB4FC232604FE8327C4FDFD
:101D4000D1079C432326F4FE8327C4FE93F7F7DFD5
:101D50002326F4FE0327C4FE832784FDD98F232680
:101D6000F4FE8327C4FDD1073E878327C4FE1CC32E
:101D70000100325445618280011122CE00102326D9
:101D8000A4FE2324B4FE832784FE998313F7F73F30
:101D90008327C4FEBA979843832784FEFD8BB357ED
:101DA000F700858B99C3854711A081473E85724412
:101DB00005618280011106CE22CC00102326A4FEEC
:101DC0002324B4FE832784FE93F7F70FBE850325F3
:101DD000C4FE753D01009D450325C4FE713FAA87E1
:101DE000FDDB832784FE3E85F240624405618280EC
:101DF000011106CE22CC00102326A4FE0100954539
:101E00000325C4FE953FAA87FDDB0325C4FE653587
:101E1000AA8793F7F70F3E85F240624405618280FE
:101E2000411122C6000897E7FF179387E7239C43D9
:101E300089833E85324441018280397106DE22DC8D
:101E400026DA80002326A4FCE13F2326A4FEB70760
:101E500000D19843DC432324E4FEB70700D1984324
:101E6000DC432322E4FEF32700B0BE84A6872320B0
:101E7000F4FE032744FE832784FEE300F7FEB70742
:101E800000D19843DC43832744FEB307F740232E59
:101E9000F4FCF32700B0BE842687832704FEB30733
:101EA000F740232CF4FC0327C4FD8327C4FCE3681C
:101EB000F7FC032784FD8327C4FD3357F7028327EC
:101EC000C4FE3307F702832684FD8327C4FDB3F6DF
:101ED000F6028327C4FEB386F6028327C4FDB3D778
:101EE000F602BA973E85F2506254D2542161828044
:101EF000011106CE22CC001005458137130540069E
:101F00002D3F2326A4FE8327C4FE3E85F240624473
:101F100005618280397106DE22DC80002326A4FC64
:101F200097E7FF17938747149C4389833E83814338
:101F30008327C4FC3E8681463387C302B38766028B
:101F4000BA973307C302B338C3023A88C697BE882C
:101F50001306803E81464285C685EF60004F2A8782
:101F6000AE872324E4FE2326F4FEB70700D198436E
:101F7000DC432320E4FE2322F4FEB70700D103A8AC
:101F8000070083A84700032504FE832544FE33068B
:101F9000A840B287B337F800B386B840B387F6409D
:101FA000BE86232CC4FC232ED4FC0327C4FE832727
:101FB000C4FDE3E4E7FC0327C4FE8327C4FD6318E4
:101FC000F700032784FE832784FDE3E8E7FA010096
:101FD000F250625421618280011122CE001023262A
:101FE00004FE232404FEB71702409443B7170240AF
:101FF0004167558F98C38327C4FE85072326F4FEC7
:10200000B71702409843B7070200F98F2324F4FE64
:10201000832784FE99E70327C4FEC167FD17E31CED
:10202000F7FCB71702409843B7070200F98F91E316
:1020300001A0B717024013874700B7170240910766
:10204000184398C3B717024013874700B7170240D9
:102050009107184398C3B717024091079843B717E1
:10206000024091071367074098C3B71702409107D2
:102070009443B717024091073707C4DF7D17758F68
:1020800098C3B717024091079443B71702409107CE
:1020900037072920558F98C3B71702409387C70287
:1020A0009443B71702409387C7023D77758F98C353
:1020B000B71702409387C7029443B717024093872C
:1020C000C7024167130717F1558F98C3B71702402E
:1020D0009443B717024037070004558F98C3010097
:1020E000B71702409843B7070008F98FF5DBB71719
:1020F00002409443B717024037070010558F98C32A
:102100000100B71702409843B7070020F98FF5DBAD
:10211000B71702409443B717024037070001558FA5
:1021200098C30100B71702409843B7070002F98F20
:10213000F5DBB717024091079843B71702409107A4
:10214000719B98C3B717024091079843B717024095
:1021500091071367270098C30100B7170240910742
:102160009C43A18BFDDB010001007244056182806C
:10217000411106C622C4000885350100B240224440
:1021800041018280411106C622C40008B7170240EF
:102190009843B71702401367170098C3B717024058
:1021A00091079443B717024091073707FFE03107C3
:1021B000758F98C3B71702409443B717024037078B
:1021C000F7FE7D17758F98C3B71702409443B71772
:1021D00002403707FCFF7D17758F98C3B717024081
:1021E00091079443B71702409107370701DF7D1726
:1021F000758F98C3B71702409387C70223A00700C3
:10220000B71702409443B71702403707F7EA7D1724
:10221000758F98C3B7170240A1073707FF0098C30F
:10222000813F0100B240224441018280011106CE6B
:1022300022CC00102326A4FE2324B4FE8325C4FE52
:102240001785000013058585EF60006CF3271034B7
:10225000BE808687BE851785000013052585EF6043
:10226000A06AF3273034BE808687BE8517850000BC
:102270001305C584EF60406901A0011122CE001052
:10228000232604FE1DA017070000130767FA97E630
:10229000FF17938666E28327C4FE8A07B69798C322
:1022A0008327C4FE85072326F4FE0327C4FEB14717
:1022B000E3DBE7FC01000100724405618280797173
:1022C00006D622D40018232EA4FC232CB4FC03270A
:1022D000C4FD8567FD17F98F2324F4FE032784FED0
:1022E000AD4763EEE70017E7FF171307E7DC832727
:1022F00084FE8A07BA979C432326F4FE2DA0032769
:1023000084FE8567FD17631AF70097E7FF17938729
:10231000A7DA9C5B2326F4FE39A097070000938779
:1023200027F12326F4FE8327C4FE81CB8327C4FE36
:10233000832584FD0325C4FD829781473E85B250E5
:10234000225445618280011106CE22CC001097777D
:1023500000009387E77D9043D4439847DC472320D0
:10236000C4FE2322D4FE2324E4FE2326F4FE1776A3
:1023700000001306A675977500009385E57517751F
:10238000000013052576EF602058832704FEBE85E4
:102390001775000013050577EF60005797E7FF17E3
:1023A000938787CC9C43BE85177500001305C576BF
:1023B000EF6080550100F2406244056182800111A6
:1023C00022CE0010A30504FEB70700D20347B4FED7
:1023D000A385E700010091472326F4FEB70700D24A
:1023E00083C7070013F7F70FB70700D2059B1377D2
:1023F000F70F2380E700B70700D283C7070093F7E2
:10240000F70F1397870161878327C4FE93F7F70FB0
:10241000860793F7F70FE207E187F98BE207E18779
:10242000D98F139787016187B70700D21377F70F0A
:102430002380E700010001007244056182804111A0
:1024400006C622C400086D342A8797E7FF179387D2
:10245000A7C198C337550040F12EF535393D853772
:102460000100B240224441018280011122CE0010BD
:102470002326A4FE0100724405618280411122C618
:1024800000080100324441018280411122C6000847
:102490000100324441018280011122CE0010232626
:1024A000A4FE8327C4FE13972700B71700D2850721
:1024B000BA973E8785472300F70001007244056103
:1024C0008280011122CE00102326A4FEAE87A30530
:1024D000F4FE8327C4FE13972700B71700D28D0799
:1024E000BA973E878347B4FE2300F7000100724489
:1024F00005618280011122CE00102326A4FE8327CD
:10250000C4FE13972700B71700D28D07BA9783C769
:10251000070093F7F70F3E85724405618280011131
:1025200022CE0010AA87A307F4FEB70700D2034704
:10253000F4FE2380E70001007244056182804111AE
:1025400022C60008B70700D283C7070093F7F70F2A
:102550003E85324441018280797106D622D400182A
:10256000AA87A30FF4FC8347F4FD8607A307F4FEB4
:10257000F937AA872307F4FE8347E4FE859B13F708
:10258000F70F8347F4FEF98B93F7F70FD98FA30664
:10259000F4FE8347D4FE3E8559370100B2502254E1
:1025A00045618280011106CE22CC0010493FAA87E6
:1025B000A307F4FE8347F4FE858393F7F70FBD8BE3
:1025C000A307F4FE8347F4FE3E85F24062440561B2
:1025D0008280797106D622D40018232EA4FCAE87FF
:1025E000A30DF4FCC137AA87A307F4FE0347F4FE4A
:1025F000914763F5E7009147A307F4FE0347B4FD55
:102600008347F4FEA146B387F640B317F7002307CC
:10261000F4FE0325C4FDF93DAA87A306F4FE034793
:10262000D4FE8347F4FEB317F700A306F4FE034776
:10263000D4FE8347F4FEB357F740A306F4FE0347E6
:10264000D4FE8347E4FED98F93F7F70FBE850325A9
:10265000C4FD853D0100B2502254456182807971EC
:1026600006D622D40018232EA4FCAE87A30DF4FCBA
:10267000153FAA87A307F4FE0347F4FE8D4763F7CF
:10268000E7009147A307F4FE8147B9A88347B4FD4B
:102690009207A30DF4FC0325C4FDA93DAA872307D7
:1026A000F4FE0347E4FE8347F4FEA146B387F640F9
:1026B000B357F7402307F4FE0347E4FE8347F4FED5
:1026C000A146B387F640B317F7002307F4FE03478C
:1026D000E4FE8347B4FDD98F93F7F70FBE8503253A
:1026E000C4FDC5338347B4FD3E85B25022544561D5
:1026F0008280011106CE22CC00102326A4FE17777B
:102700000000130767458327C4FE8A07BA979C43D6
:102710003E85EFE02FA51777000013076742832758
:10272000C4FE8A07BA978843177700001307074249
:102730008327C4FE8A07BA979C43BE860D46C145CF
:10274000EFD07FFE177700001307873F8327C4FE73
:102750008A07BA979C43C107BE8617770000130704
:10276000E73E8327C4FE8A07BA979C439CC20100B8
:10277000F240624405618280011122CE00102326BE
:10278000A4FE177700001307A73B8327C4FE8A0720
:10279000BA979C43C107BE86177700001307073B13
:1027A0008327C4FE8A07BA979C439CC201007244E7
:1027B00005618280011106CE22CC26CA4AC80010CB
:1027C0002326A4FE17770000130787378327C4FE4C
:1027D0008A07BA97844317770000130727378327A0
:1027E000C4FE8A07BA9703A90700177700001307EA
:1027F00027358327C4FE8A07BA97944317770000CA
:102800001307C7348327C4FE8A07BA979C43BE8543
:102810003685EFE06F922A878547998F3E86CA8575
:102820002685EFE08F8D0100F2406244D244424998
:1028300005618280011106CE22CC00102326A4FE61
:1028400013054060EFE00F9213055060EFE08F91A9
:1028500013054071EFE00F9185660D46E145371590
:102860000140EFD05FEC91460D469145B71701400E
:1028700013850740EFD03FEB0325C4FEEFF0AF8692
:10288000F167938507200325C4FEEFF08F948145FF
:102890000325C4FEEFF0EFAA81450325C4FEEFF047
:1028A000AFAE81450325C4FEEFF08FA5814503251A
:1028B000C4FEEFF0AFC281450325C4FEEFF0EFC6C2
:1028C00091450325C4FEEFF0CFB7A1450325C4FE13
:1028D000EFF06FB20325C4FEEFF06FAF0100F240DE
:1028E000624405618280797122D60018232EA4FCEF
:1028F000232CB4FCB2873687231BF4FCBA87231A37
:10290000F4FC8327C4FD032784FD98C38327C4FDFB
:10291000035764FD2392E7008327C4FD035744FD5A
:102920002393E7008327C4FD11472390E702832701
:10293000C4FD11472391E7028327C4FD8397470015
:102940001397070141838327C4FD83970702C207BA
:10295000C183B307F740C207C183FD17C207C18314
:102960001397070141878327C4FD2392E70283273A
:10297000C4FD839767001397070141838327C4FD34
:1029800083970702C207C183B307F740C207C18319
:10299000FD17C207C1831397070141878327C4FD31
:1029A0002393E7028327C4FD039747028327C4FDCF
:1029B000239EE7008327C4FD039767028327C4FD96
:1029C000239FE7008327C4FD05472380E70483276F
:1029D000C4FD0547A380E7048327C4FD23A607029F
:1029E0008327C4FD239B07028327C4FD239A070284
:1029F0008327C4FD239C07028327C4FD239D070270
:102A00008327C4FD23AE07028327C4FD196713077C
:102A1000D7C52393E7048327C4FD7D572391E7049B
:102A20008327C4FD239207048327C4FD23A807003E
:102A30008327C4FD23AA07008327C4FD23AC070016
:102A4000A30704FE05A88347F4FE0327C4FDA107DE
:102A50008E07BA9723A607008347F4FE0327C4FD19
:102A6000A1078E07BA97238807008347F4FE8507DE
:102A7000A307F4FE0347F4FE8947E3F6E7FC97D784
:102A8000FF179387675F0327C4FD98C385473E857B
:102A9000325445618280797106D622D40018AA8703
:102AA000231FF4FCAE87231EF4FCB287231DF4FC25
:102AB000B687231CF4FCBA87231BF4FC0317A4FD80
:102AC0008317E4FD635EF7008357A4FD2317F4FE2C
:102AD0008357E4FD231DF4FC8357E4FE231FF4FC1D
:102AE000031784FD8317C4FD635EF700835784FDDD
:102AF0002317F4FE8357C4FD231CF4FC8357E4FE24
:102B0000231EF4FC97D7FF17938707579C4383C76F
:102B10008705898B95C797D7FF179387E7559C4300
:102B2000FC4B3E88035764FD831684FD0316A4FD09
:102B30008315C4FD8317E4FD3E850298AA87BDCBAB
:102B40008357C4FD2316F4FEB9A88357E4FD231769
:102B5000F4FE1DA897D7FF17938707529C4303A83D
:102B60000700835664FD0317C4FE8317E4FE368610
:102B7000BA853E8502988317E4FEC207C1838507A4
:102B8000C207C1832317F4FE0317E4FE8317A4FDD5
:102B9000E3D2E7FC8317C4FEC207C1838507C207DF
:102BA000C1832316F4FE0317C4FE831784FDE3DEFE
:102BB000E7F811A00100B250225445618280011152
:102BC00006CE22CC0010AA872317F4FEAE87231668
:102BD000F4FEB2872315F4FEB6872314F4FEBA87F9
:102BE0002313F4FE035764FE8316C4FE0316A4FEEB
:102BF0008315C4FE8317E4FE3E859128035764FEC7
:102C0000831684FE0316A4FE831584FE8317E4FE58
:102C10003E853528035764FE831684FE0316E4FEC2
:102C20008315C4FE8317E4FE3E851520035764FE1A
:102C3000831684FE0316A4FE8315C4FE8317A4FE28
:102C40003E8531200100F240624405618280397185
:102C500006DE22DC8000AA872317F4FCAE87231649
:102C6000F4FCB2872315F4FCB6872314F4FCBA876E
:102C70002313F4FC97D7FF17938707409C4383C720
:102C80000705898B9DC797D7FF179387E73E9C431E
:102C9000FC473E88035764FC831684FC0316A4FC9F
:102CA0008315C4FC8317E4FC3E850298AA87638FD2
:102CB00007200357A4FC8357E4FCB307F740C2077F
:102CC000C1832312F4FE035784FC8357C4FCB3076B
:102CD000F740C207C1832311F4FE831744FE13D7C4
:102CE000F740BA86835744FEB58FBE86BA87B3874E
:102CF000F640C207C1832310F4FE831724FE13D7C6
:102D0000F740BA86835724FEB58FBE86BA87B3874D
:102D1000F640C207C183231FF4FC831744FE6354AB
:102D2000F000854711A0FD57231EF4FC831724FEF5
:102D30006354F000854711A0FD57231DF4FC831751
:102D4000E4FD85872316F4FE831704FE858723158B
:102D5000F4FE8357E4FC2314F4FE8357C4FC2313CE
:102D6000F4FE97D7FF17938727319C4303A80700EA
:102D7000835664FC031764FE831784FE3686BA8587
:102D80003E850298031704FE8317E4FD6341F70AAA
:102D9000231704FE71A00357A4FE8357E4FDBA97DE
:102DA000C207C1832315F4FE0317A4FE831704FE94
:102DB0006345F7020357A4FE835704FEB307F740A9
:102DC000C207C1832315F4FE035764FE8357A4FD95
:102DD000BA97C207C1832313F4FE035784FE8357B7
:102DE000C4FDBA97C207C1832314F4FE97D7FF1717
:102DF000938787289C4303A80700835664FC031726
:102E000064FE831784FE3686BA853E850298831752
:102E1000E4FEC207C1838507C207C1832317F4FEFE
:102E20000317E4FE831704FEE347F7F64DA02317CC
:102E300004FE71A00357C4FE835704FEBA97C2076D
:102E4000C1832316F4FE0317C4FE8317E4FD634514
:102E5000F7020357C4FE8357E4FDB307F740C207E8
:102E6000C1832316F4FE035784FE8357C4FDBA972B
:102E7000C207C1832314F4FE035764FE8357A4FDE5
:102E8000BA97C207C1832313F4FE97D7FF1793871E
:102E9000A71E9C4303A80700835664FC031764FE27
:102EA000831784FE3686BA853E8502988317E4FE32
:102EB000C207C1838507C207C1832317F4FE031726
:102EC000E4FE8317E4FDE347F7F611A00100F2509A
:102ED000625421618280411122C6000897D7FF17F2
:102EE000938787199C43839747003E85324441016D
:102EF0008280411122C6000897D7FF179387C71712
:102F00009C43839767003E8532444101828039713A
:102F100006DE22DC80002320F4FCAA87A307F4FC51
:102F2000AE872316F4FCB2872315F4FCB68723146E
:102F3000F4FCBA872313F4FC8347F4FC2300F4FE6B
:102F4000834704FE1307C00F6341F70A1307600DA0
:102F500063D3E7021307400C638CE7061307400CAA
:102F60006345F7081307000B638DE7061307500B43
:102F70006385E7069DA89387A7F21307600263663F
:102F8000F7061397270097C70100938727C7BA97BB
:102F9000984397C70100938767C6BA9782879307BC
:102FA00040F92300F4FE91A0930790F92300F4FE6A
:102FB0002DA8930710F82300F4FE05A89307A0F9A5
:102FC0002300F4FE1DA0930740F82300F4FE31A86F
:102FD0009307E0F82300F4FE09A899572300F4FEB4
:102FE00029A0E1572300F4FE0100834704FE139754
:102FF00007014183832704FC83D7C7006367F75C1D
:10300000834704FE139707014183832704FC83D77A
:10301000E70063ECE75A8357A4FC2313F4FE8327ED
:1030200004FC839787002311F4FE835724FE6380FA
:10303000075A835724FE8D832311F4FE832704FC53
:1030400083978700C207C1839D8BC207C18391C745
:10305000835724FE85072311F4FE832704FC9C4B31
:103060008DC3832704FC9C4B034704FE832604FC8A
:1030700083D6C600158FBA9783C70700C207C183DE
:1030800039A0832704FC83978700C207C183231DCF
:10309000F4FC97D7FF17938727FE9C4383C7070647
:1030A000898B6384072897D7FF179387E7FC9C4396
:1030B000FC4F3E880357C4FC8357A4FDBA97C20750
:1030C000C183FD17C207C183139607014186832779
:1030D00004FC8397A7001397070141838357A4FC3F
:1030E000BA97C207C183FD17C207C1839396070130
:1030F000C1860317A4FC8317C4FCBA853E850298D9
:10310000AA87232AF4FC832704FCDC43E5E38347F6
:1031100004FE032704FC0357C700998F032704FC10
:103120000317A7003387E702835724FEB307F7028C
:10313000232EF4FC231604FE4DA08357A4FD231276
:10314000F4FE231704FEBDA8832704FC98438327BD
:10315000C4FD93861700232ED4FCBA9783C70700BB
:10316000A300F4FE231504FE89A0834714FE858B7B
:1031700081CB835784FC032744FD3E85029739A009
:10318000835764FC032744FD3E850297834714FE62
:103190008583A300F4FE835744FEFD172312F4FE3B
:1031A0008357A4FE85072315F4FE0357A4FE9D470D
:1031B00063E5E700835744FECDFB8357E4FE8507B4
:1031C0002317F4FE0357E4FE835724FEE36EF7F65D
:1031D0008357C4FE85072316F4FE8357C4FE0327D6
:1031E00004FC0317A700E3CAE7F4DDA6832704FC69
:1031F000D8438547631EF73C834704FE032704FC3E
:103200000357C700998F032704FC0317A700B38750
:10321000E702032704FC03178700B387E702232E86
:10322000F4FC231604FECDA8231704FE65A883270B
:1032300004FC98438327C4FD93861700232ED4FCF7
:10324000BA9783C70700A300F4FE835784FC13F7E3
:10325000F70F834714FE3307F702835764FC93F696
:10326000F70F834714FE13060010B307F640B38729
:10327000F602BA97A187C207C18793F7F70F139792
:1032800007014187835684FCC167938707F0FD8E51
:10329000834714FEB386F602035664FCC167938726
:1032A00007F07D8E834714FE93050010B387F54029
:1032B000B307F602B697A187C207C18793F707F055
:1032C000C207C187D98FC207C187231CF4FC83576B
:1032D00084FD032744FD3E8502978357E4FE85075E
:1032E0002317F4FE0357E4FE8357A4FDE361F7F4CC
:1032F000832704FC839787003E878357A4FDB30789
:10330000F7403E878327C4FDBA97232EF4FC8357EA
:10331000C4FE85072316F4FE8357C4FE032704FC6E
:103320000317A700E3C2E7F065A4832704FCDC438E
:1033300063950712834704FE032704FC0357C70065
:10334000998F032704FC0317A7003387E7028357ED
:1033500024FEB307F702232EF4FC231604FEEDA08F
:103360008357C4FC2314F4FE8357A4FD2312F4FEF8
:10337000231704FE55A8832704FC98438327C4FD24
:1033800093861700232ED4FCBA9783C70700A300A7
:10339000F4FE231504FEA5A8834714FE858B9DC368
:1033A00097D7FF17938747CD9C4303A80700831740
:1033B00084FE031764FE835684FC3686BA853E85F8
:1033C000029815A097D7FF17938707CB9C4303A8B4
:1033D0000700831784FE031764FE835664FC368659
:1033E000BA853E850298834714FE8583A300F4FEC8
:1033F000835784FE85072314F4FE835744FEFD178C
:103400002312F4FE8357A4FE85072315F4FE035709
:10341000A4FE9D4763E5E700835744FEB5FF83574D
:10342000E4FE85072317F4FE0357E4FE835724FECA
:10343000E363F7F4835764FE85072313F4FE835791
:10344000C4FE85072316F4FE8357C4FE032704FC3D
:103450000317A700E3C6E7F0A5AA832704FCD84317
:1034600085476317F716834704FE032704FC0357B9
:10347000C700998F032704FC0317A700B387E7024F
:10348000032704FC03178700B387E702232EF4FC0D
:10349000231604FE15A28357C4FC2314F4FE23173D
:1034A00004FEE1A8832704FC98438327C4FD938688
:1034B0001700232ED4FCBA9783C70700A300F4FE9D
:1034C000835784FC13F7F70F834714FE3307F70283
:1034D000835764FC93F6F70F834714FE130600101E
:1034E000B307F640B387F602BA97A187C207C18730
:1034F00093F7F70F139707014187835684FCC16741
:10350000938707F0FD8E834714FEB386F6020356B9
:1035100064FCC167938707F07D8E834714FE930593
:103520000010B387F540B307F602B697A187C2072C
:10353000C18793F707F0C207C187D98FC207C18738
:10354000231CF4FC97D7FF17938707B39C4303A86A
:103550000700831784FE031764FE835684FD3686B6
:10356000BA853E850298835784FE85072314F4FEAE
:103570008357E4FE85072317F4FE0357E4FE8357C1
:10358000A4FDE361F7F2832704FC839787003E875D
:103590008357A4FDB307F7403E878327C4FDBA973E
:1035A000232EF4FC835764FE85072313F4FE835710
:1035B000C4FE85072316F4FE8357C4FE032704FCCC
:1035C0000317A700E3C9E7EC21A0010011A0010047
:1035D000F2506254216182805D7186C6A2C4800867
:1035E000232EA4FA8327C4FB83D78700231DF4FC72
:1035F0008327C4FB83D7A700231CF4FC8327C4FBC9
:1036000083D7C700231BF4FC8327C4FB83D7E700C1
:10361000231AF4FC8327C4FB83C74701A309F4FCE6
:103620008327C4FBDC4383D787002318F4FC83275C
:10363000C4FBDC4383D7A7002317F4FC8327C4FB18
:1036400083D767012316F4FC8327C4FB83D7870144
:103650002315F4FC8327C4FB9C432320F4FE83271B
:1036600004FE232EF4FC8327C4FBDC439C436387C6
:103670000730832704FE63850730031744FD831753
:1036800084FDB307F7400327C4FB58430317A70083
:1036900063CAE72E85472316F4FE832704FE232EF4
:1036A000F4FC15A08327C4FD03C70700A9476317CF
:1036B000F7008357C4FE85072316F4FE8327C4FD55
:1036C0008507232EF4FC8327C4FD83C70700F9FB7D
:1036D000231304FE834734FD93F70703B5C703574D
:1036E00044FD835784FDB307F740C207C1838507B4
:1036F000C207C1832313F4FE035764FE8356E4FC20
:103700008357C4FEB387F602C207C183B307F740ED
:10371000C207C1832313F4FE035764FE8357C4FE1C
:10372000FD1793960701C1828357A4FCB387F60265
:10373000C207C183B307F740C207C1832313F4FE56
:10374000831764FE63C20724834734FDC18B91C78E
:10375000831764FE85872313F4FE035764FE8357A3
:1037600084FDBA97C207C1832313F4FE231704FE16
:10377000832704FE232EF4FC231504FE6DA083276B
:10378000C4FD83C707001397070141838327C4FB48
:10379000DC4383D7C7006360F7028327C4FD83C778
:1037A00007001397070141838327C4FBDC4383D7BA
:1037B000E70063F8E7008327C4FD8507232EF4FCA8
:1037C0009DA08357E4FE85072317F4FE8327C4FBDF
:1037D000DC439C4B9DC78327C4FBDC439C4B0327E6
:1037E000C4FD03470700BA860327C4FB58430357A9
:1037F000C7003387E640BA9783C70700C207C18373
:1038000019A0835704FD0357C4FCBA971397070107
:1038100041838357A4FEBA972315F4FE8327C4FD82
:103820008507232EF4FC8327C4FD83C7070081CBC3
:103830008327C4FD03C70700A947E312F7F48357A2
:10384000C4FC0357A4FEB307F7402315F4FE035747
:1038500064FD8357A4FDB307F740C207C183850702
:10386000C207C1832314F4FE035784FE8357A4FECA
:10387000B307F740C207C1832314F4FE831784FE05
:1038800063C60710834734FD858B81C7231404FE6C
:1038900011A8834734FD898B91C7831784FE8587E0
:1038A0002314F4FE035784FE8357A4FDBA97C2077E
:1038B000C1832314F4FE79A0832704FE1387170025
:1038C0002320E4FE83C70700A304F4FC834794FC91
:1038D000E1C38327C4FB83D607018327C4FB03D737
:1038E00027018327C4FBDC43031664FE831584FE93
:1038F000034594FCEFF0AFE18327C4FBDC439C4B12
:103900009DC38327C4FBDC439C4B034794FC832665
:10391000C4FBD44283D6C600158FBA9783C707006D
:10392000C207C18319A0835704FD0357C4FCBA978B
:10393000139707014183835784FEBA97C207C18357
:103940002314F4FE832704FE03C70700A947E315E9
:10395000F7F6832704FE85072320F4FE0357E4FCD3
:103960008357A4FCBA97139707014183835764FEDA
:10397000BA97C207C1832313F4FECDBB010011A87F
:10398000010001A8010031A0010021A0010011A047
:103990000100B640264461618280797122D6001808
:1039A000232EA4FC8327C4FDDC432324F4FEA307B9
:1039B00004FE35A88327C4FDD8438347F4FE960749
:1039C000BA972324F4FE832784FE83C70700858BE0
:1039D00091CB832784FE83C70700898B81C7832708
:1039E00084FE39A88347F4FE8507A307F4FE8327E6
:1039F000C4FD83C707000347F4FEE36DF7FA814770
:103A00003E85325445618280797122D60018232E7A
:103A1000A4FCAE873287A30DF4FCBA87230DF4FC17
:103A20008327C4FDDC432324F4FEA30704FEB1A8CE
:103A30008327C4FDD8438347F4FE9607BA9723240F
:103A4000F4FE832784FE83C70700858B95EB8327CD
:103A500084FE83C70700898B85C7832784FE83C7BD
:103A600087010347B4FD631DF700832784FE83C7E6
:103A700097010347A4FD6315F700832784FE39A847
:103A80008347F4FE8507A307F4FE8327C4FD83C79D
:103A900007000347F4FEE36DF7F881473E85325493
:103AA00045618280397122DE80002326A4FC97C7FD
:103AB000FF179387675C9C4383D7A7002315F4FE09
:103AC00097C7FF179387475B9C4383D7C70023148F
:103AD000F4FE97C7FF179387275A9C4383C7870035
:103AE000A303F4FE8327C4FC83C707002312F4FE5C
:103AF000231704FE61A28327C4FCD8438357E4FE46
:103B00009607BA972320F4FE832704FE83C7070095
:103B1000A30FF4FC832704FE83C71700A306F4FE5B
:103B20008347F4FD858B639007148347F4FD898BED
:103B3000638B07128347F4FDA18B638607128347CB
:103B4000F4FD93F7070463900712834774FED5CB07
:103B50000317A4FEFD576306F70A8347D4FE93F7C5
:103B6000070489EF8347D4FE93E75700A306F4FECA
:103B70008347D4FE93F77706A306F4FE8347D4FE6B
:103B800093F7F7FDA306F4FE832704FE83978700CF
:103B90000317A4FE6340F706832704FE8397C7003C
:103BA0000317A4FE63C8E704832704FE8397A700D6
:103BB000031784FE6340F704832704FE8397E7001E
:103BC000031784FE63C8E7028347D4FE93E7070226
:103BD000A306F4FE8347D4FE93F7070481EF8347DF
:103BE000D4FEED9BA306F4FE8347D4FE93E72700A3
:103BF000A306F4FE8347D4FE93E70704A306F4FE6E
:103C00009DA08347D4FE93F70704B1CF8347D4FE2A
:103C100093F7070295C38347D4FE898B99C78347DF
:103C2000D4FE93E707F8A306F4FE8347D4FE93E798
:103C30008700A306F4FE39A08347D4FE93E707016B
:103C4000A306F4FE8347D4FE93F7070499C783477E
:103C5000D4FE93E71700A306F4FE8347D4FE93F740
:103C600097FBA306F4FE832704FE0347D4FEA3803C
:103C7000E7008357E4FE85072317F4FE0357E4FEAD
:103C8000835744FEE369F7E60100010072542161A5
:103C90008280797106D622D40018232EA4FC8327B3
:103CA000C4FD83C707002316F4FE231704FE69A092
:103CB0008327C4FDD8438357E4FE9607BA9723248D
:103CC000F4FE832784FE83C70700A303F4FE832743
:103CD00084FE83C717002303F4FE834774FE858B9D
:103CE000B9E7834774FE898BB9C3834774FE93F7A2
:103CF000070289CB832784FEDC43832584FE0325CA
:103D0000C4FD8297834774FEA18B95C3830774FE1D
:103D100063DF0700834764FE93F7170489CB83278B
:103D200084FEDC43832584FE0325C4FD82978357EC
:103D3000E4FE85072317F4FE0357E4FE8357C4FE11
:103D4000E368F7F601000100B25022544561828019
:103D5000797106D622D40018232EA4FC97C7FF172A
:103D60009387C73123A2070097C7FF1793870731AF
:103D700009472380E7008327C4FD83C70700231674
:103D8000F4FE231704FE5DA08327C4FDD8438357A8
:103D9000E4FE9607BA972322F4FE832744FE83C7E6
:103DA0000700A305F4FE8347B4FE858BBDEB834774
:103DB000B4FE898BBDC7832744FE83C7A701B5C363
:103DC00097C7FF179387872B130744FED8C3832712
:103DD00044FE03C7870197C7FF179387272AA3804D
:103DE000E700832744FE03C7970197C7FF17938710
:103DF000E7282381E700832744FE03C7A70197C76D
:103E0000FF179387A727A381E7008327C4FD9C5B47
:103E100017C5FF17130585268297832744FE238D38
:103E200007008357E4FE85072317F4FE0357E4FEDB
:103E30008357C4FEE36AF7F401000100B250225434
:103E400045618280011106CE22CC0010AA87232270
:103E5000E4FE2317F4FEAE872316F4FEB287231583
:103E6000F4FEB6872314F4FE8357A4FEFD17C207A1
:103E7000C183139607014186832744FE13872700D9
:103E80002322E4FE03D707008316C4FE8315C4FE75
:103E90008317E4FE3E85EFE09FDB8357C4FE850772
:103EA000C207C18393950701C185835784FEFD171F
:103EB000C207C18393960701C186832744FE1387F7
:103EC00027002322E4FE03D707000316E4FE83172E
:103ED000E4FE3E85EFE0BFD7832744FE138727002B
:103EE0002322E4FE03D70700831684FE0316A4FEF4
:103EF000831584FE8317E4FE3E85EFE05FD583578C
:103F000084FEFD17C207C18393960701C1868327EC
:103F100044FE138727002322E4FE03D7070003167D
:103F2000A4FE8315C4FE8317A4FE3E85EFE03FD2B6
:103F30008357E4FE8507C207C183139507014185B6
:103F40008357C4FE8507C207C18393950701C185C6
:103F50008357A4FEF917C207C18313960701418650
:103F60008357C4FE8507C207C18393960701C186A4
:103F7000832744FE138727002322E4FE83D707000C
:103F80003E87EFE0DFCC8357E4FE8507C207C1839D
:103F90001395070141858357C4FE8907C207C18372
:103FA00093950701C1858357E4FE8507C207C18346
:103FB000139607014186835784FEF917C207C18310
:103FC00093960701C186832744FE13872700232287
:103FD000E4FE83D707003E87EFE07FC78357E4FE08
:103FE0008507C207C183139507014185835784FE66
:103FF000FD17C207C18393950701C1858357A4FEAE
:10400000FD17C207C183139607014186835784FEBB
:10401000FD17C207C18393960701C186832744FE1B
:10402000138727002322E4FE83D707003E87EFE0B3
:104030001FC28357A4FEFD17C207C1831395070152
:1040400041858357C4FE8507C207C1839395070145
:10405000C1858357A4FEFD17C207C18313960701CC
:104060004186835784FEF917C207C18393960701DF
:10407000C186832744FE138727002322E4FE83D7CB
:1040800007003E87EFE0BFBC8357E4FE8907C20705
:10409000C1831395070141858357C4FE8907C20771
:1040A000C18393950701C1858357A4FEF517C20705
:1040B000C1831396070141868357C4FE8907C2074F
:1040C000C18393960701C186832744FE1387270087
:1040D0002322E4FE83D707003E87EFE05FB78357D4
:1040E000E4FE8907C207C183139507014185835701
:1040F000C4FE8D07C207C18393950701C18583570D
:10410000E4FE8907C207C1831396070141868357DE
:1041100084FEF517C207C18393960701C1868327E2
:1041200044FE138727002322E4FE83D707003E873F
:10413000EFE0FFB18357E4FE8907C207C1831395FF
:1041400007014185835784FEF917C207C183939500
:104150000701C1858357A4FEF917C207C1831396CF
:1041600007014186835784FEF917C207C1839396DE
:104170000701C186832744FE138727002322E4FE1C
:1041800083D707003E87EFE09FAC8357A4FEF91763
:10419000C207C1831395070141858357C4FE890770
:1041A000C207C18393950701C1858357A4FEF91700
:1041B000C207C183139607014186835784FEF51712
:1041C000C207C18393960701C186832744FE83D724
:1041D00007003E87EFE0BFA70100F240624405619F
:1041E0008280797106D622D40018232EA4FC232CB9
:1041F000B4FC8947A305F4FE89472304F4FE832712
:1042000084FD83C78701A304F4FE832784FD83C74D
:1042100097012305F4FE832784FD2326F4FE8327DC
:10422000C4FD985B930784FE3E8502970100B2505F
:10423000225445618280797106D622D40018232E3B
:10424000A4FC232CB4FC8D47A305F4FE894723046A
:10425000F4FE832784FD83C78701A304F4FE83272C
:1042600084FD83C797012305F4FE832784FD23265D
:10427000F4FE8327C4FD985B930784FE3E85029776
:104280000100B250225445618280011122CE0010FB
:10429000AA872324B4FEA307F4FE0347F4FE89474C
:1042A00063EDE70297C7FF17938707DD98438347BE
:1042B000F4FEA1078E07BA97032784FED8C797C7D5
:1042C000FF17938767DB98438347F4FEA1078E07A8
:1042D000BA970D472388E70011A0010072440561D9
:1042E0008280011122CE0010AA87A307F4FE0347A3
:1042F000F4FE894763EDE70497C7FF179387C7D795
:1043000098438347F4FEA1078E07BA9783C7070136
:10431000858B9DCF97C7FF17938707D69843834711
:10432000F4FEA1078E07BA9703C7070197C7FF17C7
:10433000938787D494438347F4FE1367270013774A
:10434000F70FA1078E07B6972388E70011A0010099
:10435000724405618280011122CE0010AA87A30752
:10436000F4FE0347F4FE894763ECE70497C7FF17A1
:10437000938787D098438347F4FEA1078E07BA97A7
:1043800083C70701858B95CF97C7FF179387C7CE44
:1043900098438347F4FEA1078E07BA9703C7070126
:1043A00097C7FF17938747CD94438347F4FE759BC8
:1043B0001377F70FA1078E07B6972388E70011A0A0
:1043C0000100724405618280011106CE22CC0010EA
:1043D00097C7FF17938747CA9C4383C78704858B7A
:1043E00095C397C7FF17938727C99C4303C78704C3
:1043F00097C7FF17938747C89C43799B1377F70F9D
:104400002384E70497C7FF17938707C79C43984BFC
:1044100097C7FF17938747C69C43DC4B6305F71686
:1044200097C7FF17938747C59C439C4B638D071421
:1044300097C7FF17938747C4984397C7FF1793877A
:10444000A7C39C43584B98CF97C7FF179387C7C202
:10445000984397C7FF17938727C29C43184BD8CB25
:1044600097C7FF17938747C19C439C4FE9C797C7DE
:10447000FF17938767C09C439C4F83C76701898B55
:10448000DDCB97C7FF17938727BF9C439C4F83C7FC
:104490008700A18BCDC397C7FF179387E7BD9C43C8
:1044A0009C4F0397E70097C7FF179387E7BC9C4390
:1044B000DC4B8397E7006318F70697C7FF179387CE
:1044C000A7BB9C439C4F0397270197C7FF17938770
:1044D000A7BA9C43DC4B839727016316F70497C761
:1044E000FF17938767B99C439C4F0397070197C7B2
:1044F000FF17938767B89C43DC4B839707016314CE
:10450000F70297C7FF17938727B79C439C4F0397E2
:10451000470197C7FF17938727B69C43DC4B8397C8
:104520004701630AF70097C7FF179387E7B49C43D7
:104530009C4F3E85352F97C7FF179387E7B39C4362
:10454000DC4B03C7870097C7FF179387E7B29C43ED
:10455000DC4B1377F7FB1377F70F2384E70097C73C
:10456000FF17938767B19C43DC4B03C7870097C74E
:10457000FF17938767B09C43DC4B13678702137761
:10458000F70F2384E70097C7FF179387E7AE9C4395
:10459000DC4BB1C797C7FF17938707AE9C43DC4B33
:1045A0002326F4FE8327C4FE83C7870093F7070200
:1045B00089C70325C4FEEF00300C8327C4FE83C7E0
:1045C0008700A18B89CF0325C4FEEFF0AFCD032573
:1045D000C4FEEFF00FEC0325C4FEEFF06FF701000F
:1045E000F240624405618280011122CE0010AA8748
:1045F000AE8632872317F4FEB6872316F4FEBA87F9
:10460000A305F4FE97C7FF17938707A79C4303579B
:10461000E4FE2395E70097C7FF179387E7A59C4320
:104620000357C4FE2396E70097C7FF179387C7A4D5
:104630009C430347B4FE2384E700010072440561F4
:104640008280797106D622D40018232EA4FC232C54
:10465000B4FCB2872328D4FCA30BF4FC232404FE6F
:104660008327C4FD99C7832784FD81C7834774FDD1
:1046700099E3FD5785A2A30704FE3DA08347F4FEFE
:104680009607032784FDBA972324F4FE832784FE2C
:104690000D472380E700832784FE23AE070083476E
:1046A000F4FE8507A307F4FE0347F4FE834774FD79
:1046B000E366F7FC8327C4FD034774FD2380E7000E
:1046C0008327C4FD032784FDD8C38327C4FD09477E
:1046D0002384E7008327C4FD239507008327C4FDB7
:1046E0006D771307B7E12396E7008327C4FD23976F
:1046F00007008327C4FD23980700EFE0CFFDAA87BA
:10470000C207C183FD17C207C18313970701418701
:104710008327C4FD2399E700EFE0AFFDAA87C20716
:10472000C183FD17C207C183139707014187832700
:10473000C4FD239AE7008327C4FD032704FD98DB0B
:104740008327C4FD0D47238BE7008327C4FD23ACDB
:10475000070097C7FF17938727929C4381CF97C77E
:10476000FF17938767919C431387C7028327C4FD74
:10477000D8CF29A08327C4FD23AE07008327C4FD1B
:1047800009472380E7028327C4FD0947A380E70286
:104790008327C4FD45472381E7028327C4FD7D5756
:1047A0002392E7028327C4FD01572393E70283275F
:1047B000C4FD7D572394E7028327C4FD6177130767
:1047C00007412395E7028327C4FD130720032386AF
:1047D000E70281473E85B250225445618280011133
:1047E00022CE00102326A4FE8327C4FEB9C383274C
:1047F000C4FE83C7870093E7870213F7F70F832769
:10480000C4FE2384E7008327C4FE83C7870093F791
:10481000F7FB13F7F70F8327C4FE2384E70097C73E
:10482000FF17938767859C430327C4FE98CB814776
:1048300011A0FD573E85724405618280011106CEAC
:1048400022CC00102326A4FE8327C4FE6382071215
:1048500097C7FF17938747829C43DC4B0327C4FE0F
:104860006313F71097C7FF17938707819C439C4FEB
:10487000DDC397C7FF17938727809C439C4F83C74F
:104880008700A18BC9CB97B7FF179387E77E9C431F
:104890009C4F0397E7008327C4FE8397E70063CC10
:1048A000E70497B7FF179387277D9C439C4F039797
:1048B00007018327C4FE8397070163CEE70297B7FA
:1048C000FF179387677B9C439C4F039727018327A0
:1048D000C4FE839727016340F70297B7FF179387BA
:1048E000A7799C439C4F039747018327C4FE839776
:1048F00047016355F7000325C4FEBD2F97B7FF1787
:1049000093878777984397B7FF179387E7769C43FA
:10491000184F98CBA1A897B7FF179387E7759C43CB
:10492000DC4B03C7870097B7FF179387E7749C4357
:10493000DC4B5D9B1377F70F2384E70097B7FF17D6
:10494000938787739C43DC4B03C7870097B7FF1798
:10495000938787729C43DC4B136707021377F70F2B
:104960002384E70021A00325C4FE3927814711A035
:10497000FD573E85F240624405618280011122CEDE
:1049800000102326A4FEAE872315F4FE8327C4FE61
:104990009DCB8327C4FE83C78700898B8DC7832760
:1049A000C4FE0357A4FE2392E7028327C4FE83C7F5
:1049B000870093E7070613F7F70F8327C4FE2384C6
:1049C000E700814711A0FD573E8572440561828052
:1049D000011122CE00102326A4FE2324B4FE832737
:1049E000C4FE95CB8327C4FE83C78700898B85C708
:1049F0008327C4FE032784FE98CF8327C4FE83C782
:104A0000870093E7070613F7F70F8327C4FE238475
:104A1000E700814711A0FD573E8572440561828001
:104A2000011122CE00102326A4FE2324B4FE8327E6
:104A3000C4FEBDCF8327C4FE83C78700898BADCB5F
:104A40008327C4FE83C7870093E7070613F7F70F92
:104A50008327C4FE2384E7008327C4FE032784FE44
:104A6000D8CF8327C4FE83C7C7023E87832784FE2F
:104A70008397A700850763CBE702832784FE83978C
:104A8000A70093F7F70F890713F7F70F8327C4FEE3
:104A90002386E7028327C4FE83C7870093F7F7FBCB
:104AA00013F7F70F8327C4FE2384E700814711A083
:104AB000FD573E85724405618280011122CE0010AF
:104AC0002326A4FE2324B4FE8327C4FE6381071299
:104AD0008327C4FE83C78700898B638A07108327D7
:104AE000C4FE0397E700832784FE2390E700832713
:104AF000C4FE03970701832784FE2391E7008327E1
:104B0000C4FE03972701832784FE2392E7008327AF
:104B1000C4FE03974701832784FE2393E70083277E
:104B2000C4FE83C76701858BC9C3832784FE83972F
:104B30000700C207C1838D07C207C183139707010E
:104B40004187832784FE2390E700832784FE839791
:104B50002700C207C1838D07C207C18313970701CE
:104B60004187832784FE2391E700832784FE839770
:104B70004700C207C183F517C207C1831397070116
:104B80004187832784FE2392E700832784FE83974F
:104B90006700C207C183F517C207C18313970701D6
:104BA0004187832784FE2393E7008327C4FE83C7BE
:104BB0006701898B9DCB832784FE839727001397FA
:104BC000070141838327C4FE83C7C702C207C1838D
:104BD000BA97C207C1838507C207C183139707012C
:104BE0004187832784FE2391E700814711A0FD5769
:104BF0003E85724405618280797122D60018232E89
:104C0000A4FC231704FE8327C4FDA9CF8327C4FD7A
:104C100083C78700898BB9C78327C4FD8397270182
:104C20001397070141838327C4FD8397E700C207D9
:104C3000C183B307F740C207C1832317F4FE83275C
:104C4000C4FD83C76701858B81CB8357E4FEE917D9
:104C5000C207C1832317F4FE8317E4FE63D4070061
:104C6000231704FE8317E4FE3E853254456182809B
:104C70005D7186C6A2C48008232EA4FA8327C4FBD4
:104C80006386071E8327C4FB83C78700898B638FD6
:104C9000071C8327C4FB83D7E7002317F4FE832771
:104CA000C4FB83D707012316F4FE8327C4FB83D7F5
:104CB00027012315F4FE8327C4FB83D74701231460
:104CC000F4FE8327C4FB83C76701858B8DCF835791
:104CD000E4FE8D07C207C1832317F4FE8357C4FE89
:104CE0008D07C207C1832316F4FE8357A4FEF51770
:104CF000C207C1832315F4FE835784FEF517C2074C
:104D0000C1832314F4FE97B7FF179387E7369C43BC
:104D1000DC4B0327C4FB631FF7008327C4FB83D747
:104D20006702231FF4FC8327C4FB83D74702231E9B
:104D3000F4FC29A88327C4FB83D7A702231FF4FC14
:104D40008327C4FB83D78702231EF4FC8327C4FB7D
:104D500083C7C7021397070141838357C4FEBA97DD
:104D6000C207C183FD17C207C18393960701C1869D
:104D70000357E4FD0316A4FE8315C4FE8317E4FE67
:104D80003E85EFD05FD18327C4FB9C4F2326F4FCE4
:104D90008327C4FBDC4F2328F4FC8357E4FE8D07F4
:104DA000C207C183C207C187231AF4FC8357C4FE1C
:104DB000231BF4FC8357A4FE231CF4FC8327C4FBB1
:104DC00083C7C7021397070141838357C4FEBA976D
:104DD000C207C183FD17C207C183C207C187231D54
:104DE000F4FC8327C4FB83C727022300F4FE832738
:104DF000C4FB83870702C207C1872311F4FE832700
:104E0000C4FB83871702C207C1872312F4FE9307EE
:104E1000C4FC3E85EFE04FFC8327C4FB83C7C70279
:104E20001397070141838357C4FEBA97C207C18312
:104E300093950701C1858327C4FB83C7C7021397D6
:104E4000070141838357C4FEBA97C207C183939673
:104E50000701C186A967138737D10316A4FE8317FC
:104E6000E4FE3E85EFD0BFDE814711A0FD573E85B1
:104E7000B640264461618280797106D622D400183A
:104E8000232EA4FC8327C4FD83D7E7002316F4FE5A
:104E90008327C4FD83D707012315F4FE8327C4FDB0
:104EA00083D727012314F4FE8327C4FD83D747014A
:104EB0002313F4FE8327C4FD83C7870093F7F7FD10
:104EC00013F7F70F8327C4FD2384E7008327C4FD6E
:104ED00083C78700A18B638307168327C4FD83C71D
:104EE0006701858BBDC38327C4FD83C7870093F704
:104EF0000704A1EF831664FE031684FE8315A4FE47
:104F00008317C4FE17A701001307C7CA3E85EFE049
:104F10007FF38357C4FE8D07C207C1832316F4FEB7
:104F20008357A4FE8D07C207C1832315F4FE835760
:104F300084FEF517C207C1832314F4FE835764FE71
:104F4000F517C207C1832313F4FE8327C4FD83C76B
:104F50006701898BA9CB0325C4FD193B8327C4FDB9
:104F600083C7C7021397070141838357A4FEBA97EB
:104F7000C207C1838507C207C1832315F4FE8327B7
:104F8000C4FD83C7870093F7070491CF8327C4FD2F
:104F900083C7870093F7F7FB13F7F70F8327C4FD49
:104FA0002384E700F1A08327C4FD03D7C70083163D
:104FB00064FE031684FE8315A4FE8317C4FE3E859B
:104FC000EFD07FAD8327C4FD83C707002312F4FE13
:104FD000231704FEA9A88327C4FDD8438357E4FE02
:104FE0009607BA972320F4FE832704FE83C70700A1
:104FF000858B8DEB832704FE83C70700898B9DC3B8
:10500000832704FE83C70700A18B89CF832704FE73
:1050100083C7070093E7070613F7F70F832704FEFC
:105020002380E7008357E4FE85072317F4FE035728
:10503000E4FE835744FEE360F7FA1DA88327C4FD0E
:105040000395E7008327C4FD8395E7008327C4FD0C
:10505000039627018327C4FD8396470197B7FF175F
:10506000938787019C4383D767043E87EFD0BFA215
:10507000B250225445618280011106CE22CC00102C
:105080002326A4FE8327C4FEF1CB8327C4FE83C757
:105090008700A18BF1C38327C4FE83C78700DD9BF4
:1050A00013F7F70F8327C4FE2384E7008327C4FE8A
:1050B0000395E7008327C4FE839507018327C4FE79
:1050C000039627018327C4FE8396470197B7FF17EE
:1050D000938787FA9C4383D767043E87EFD0BF9BB3
:1050E00097B7FF17938747F99C43DC4B0327C4FE10
:1050F0006304F70697B7FF17938707F89C43DC4BC9
:1051000083C78700A18BA9CB97B7FF179387C7F6F3
:105110009C43DC4B03C7870097B7FF179387C7F5FE
:105120009C43DC4B1377F7FB1377F70F2384E700DF
:1051300097B7FF17938747F49C43DC4B03C787005F
:1051400097B7FF17938747F39C43DC4B136707021E
:105150001377F70F2384E700814711A0FD573E85A1
:10516000F240624405618280397106DE22DC8000F3
:10517000232EA4FC232CB4FC3285B6853A86BE8649
:105180004287AA87A30BF4FCAE87231AF4FCB287EC
:105190002319F4FCB6872318F4FCBA872317F4FC10
:1051A0000325C4FDEFE06FFF2326A4FE8327C4FE82
:1051B00099E3FD57B1AA832784FD23800700832745
:1051C000C4FD03D7C700832784FD2392E70083270C
:1051D000C4FD03D7A700832784FD2391E70083271D
:1051E000C4FD03D7C700832784FD2394E7008327EA
:1051F000C4FD03D7A700832784FD2393E7008327FB
:1052000084FD0547A380E700832784FD4947238861
:10521000E70097B7FF17938727E69C4381CF97B79F
:10522000FF17938767E59C431387C702832784FD95
:10523000D8C729A0832784FD23A60700832784FDE0
:1052400017A70100130747A5D8CB8327C4FE17076C
:1052500000001307872AD8C38327C4FEA380070052
:105260008327C4FE0547238CE7008327C4FE238DD4
:1052700007008327C4FE035744FD2398E7008327D4
:10528000C4FE035724FD2399E7008327C4FE035778
:1052900004FD239AE7008327C4FE0357E4FC239B05
:1052A000E7008327C4FE7D572394E7008327C4FECD
:1052B0007D572395E7008327C4FE7D572396E7009B
:1052C0008327C4FE7D572397E7008327C4FE034747
:1052D00074FDA38CE7008327C4FE83C7070093E710
:1052E000A7FC13F7F70F8327C4FE2380E70083276B
:1052F000C4FE032784FDD8CF8327C4FE83C70700DD
:10530000F99B13F7F70F8327C4FE2380E70081473B
:105310003E85F250625421618280797106D622D492
:105320000018232EA4FCAE873287A30DF4FCBA87A5
:10533000231CF4FC232604FE232404FE8347B4FD2F
:105340003E8685450325C4FDEFE00FEC2326A4FE31
:105350008327C4FE99E3FD570DA88327C4FEDC4FC5
:105360002324F4FE832784FE035784FD2391E70062
:105370008327C4FE83C7070093E7070613F7F70FD9
:105380008327C4FE2380E70081473E85B250225424
:1053900045618280797106D622D40018232EA4FCA0
:1053A000AE873287A30DF4FCBA87231CF4FC2326B6
:1053B00004FE232404FE8347B4FD3E868545032571
:1053C000C4FDEFE06FE42326A4FE8327C4FE99E327
:1053D000FD570DA88327C4FEDC4F2324F4FE83274A
:1053E00084FE035784FD2392E7008327C4FE83C70E
:1053F000070093E7070613F7F70F8327C4FE238000
:10540000E70081473E85B250225445618280797120
:1054100006D622D40018232EA4FCAE87232AC4FC6F
:10542000A30DF4FC232604FE232404FE8347B4FDCD
:105430003E8685450325C4FDEFE00FDD2326A4FE4F
:105440008327C4FE99E3FD5705A88327C4FEDC4FDC
:105450002324F4FE832784FE032744FDD8CB83272F
:10546000C4FE83C7070093E7070613F7F70F8327E8
:10547000C4FE2380E70081473E85B2502254456137
:105480008280797106D622D40018232EA4FCAE8720
:10549000232AC4FCA30DF4FC232604FE232404FECB
:1054A0008347B4FD3E8685450325C4FDEFE0CFD597
:1054B0002326A4FE8327C4FE99E3FD5705A883276E
:1054C000C4FEDC4F2324F4FE832784FE032744FD1F
:1054D000D8C78327C4FE83C7070093E7070613F7DF
:1054E000F70F8327C4FE2380E70081473E85B25033
:1054F0002254456182805D7186C6A2C48008232E35
:10550000A4FA232CB4FA832784FBDC4F2326F4FE71
:10551000832784FB83C71700858BF9CB832784FB04
:1055200083C71700E207E18763D30702832784FB61
:105530000547238DE700832784FB83C7070093E794
:10554000070213F7F70F832784FB2380E7008327E5
:1055500084FB83C71700898B9DCF8327C4FE83C735
:10556000070093E7170013F7F70F8327C4FE238084
:10557000E700832784FB83C7070093E7070213F73D
:10558000F70F832784FB2380E700832784FB1147E1
:10559000238DE70099A08327C4FE83C70700858B6E
:1055A0008DCF8327C4FE83C70700F99B13F7F70F3E
:1055B0008327C4FE2380E700832784FB83C707007B
:1055C00093E7070213F7F70F832784FB2380E70095
:1055D000832784FB1547238DE700832784FB83C73C
:1055E0001700F99B13F7F70F832784FBA380E700CD
:1055F000832784FB83C7070093F70702638407426E
:10560000832784FB83C70700A18B6380073C832724
:1056100084FB83C7070093F7070481EB8327C4FE4D
:1056200083C70700898B63800730930704FEBE851C
:105630000325C4FBEFF06FC8832784FB8397070122
:10564000139707014183831704FEC207C183BA97EA
:10565000C207C183139707014187832784FB2394E3
:10566000E700832784FB8397270113970701418372
:10567000831724FEC207C183BA97C207C183139759
:1056800007014187832784FB2395E700832784FB59
:1056900083974701139707014183831704FEC207CD
:1056A000C183BA97C207C183139707014187832734
:1056B00084FB2396E700832784FB83976701139776
:1056C00007014183831724FEC207C183BA97C2072B
:1056D000C183139707014187832784FB2397E70042
:1056E000832784FB0397E7008327C4FB8397470145
:1056F00063C7E732832784FB0397C7008327C4FB74
:105700008397270163CFE730832584FB0325C4FB00
:10571000EFE03FAD8327C4FE83C71700858B99C395
:105720008D4711A08547A305F4FE8327C4FE83D7C8
:105730004700231BF4FC8327C4FE83D72700231ACA
:10574000F4FC8327C4FE83C70700858BB1C783277A
:10575000C4FE83C71700898B91CF8327C4FE83D7EC
:105760002700231BF4FC8327C4FE83D74700231A9A
:10577000F4FC1DA08327C4FE83C71700918B89CF3B
:105780008327C4FE83D78700231BF4FC8327C4FE32
:1057900083D76700231AF4FC8327C4FE83C717004E
:1057A000C18BD9EB832784FB83978700139707016D
:1057B00041838347B4FEC207C183BA97C207C1833E
:1057C000139507014185832784FB8397A7001397CF
:1057D000070141838347B4FEC207C183BA97C2075A
:1057E000C18393950701C185832784FB8397C700F5
:1057F0001397070141838347B4FEC207C183B307F0
:10580000F740C207C183139607014186832784FBB3
:105810008397E7001397070141838347B4FEC207CC
:10582000C183B307F740C207C183C207C1870357CB
:1058300064FDBE86EFD02FA6832784FB8397870065
:105840001397070141838347B4FEC207C183BA9708
:10585000C207C183C207C1872316F4FC832784FBD8
:105860008397A7001397070141838347B4FEC207BC
:10587000C183BA97C207C183C207C1872317F4FC4B
:10588000832784FB8397C7001397070141838347CE
:10589000B4FEC207C183B307F740C207C183C20782
:1058A000C1872318F4FC832784FB8397E7001397B1
:1058B000070141838347B4FEC207C183B307F740A2
:1058C000C207C183C207C1872319F4FC8327C4FE22
:1058D00083C70701230CF4FC8327C4FEDC47232481
:1058E000F4FC8947231DF4FC8947231EF4FC83271D
:1058F000C4FEDC4B2322F4FC930744FC3E85EFD02E
:10590000BFCD832784FB83C7070093F7F7FB13F70B
:10591000F70F832784FB2380E700832584FB03257F
:10592000C4FBEFE05F918327C4FE83C71700A18B00
:10593000F1EB8327C4FE83C71700858BA1C783279C
:1059400084FB03958700832784FB8395A700832727
:1059500084FB0396C700832784FB8396E700832795
:10596000C4FE83C70700858B91C797970100938773
:10597000E72529A0979701009387C7263E87EFE088
:105980006FCC49A0832784FB03958700832784FB82
:105990008395A700832784FB0396C700832784FB96
:1059A0008396E7008327C4FE83C70700858B91C7D2
:1059B0008327C4FE83D7870029A08327C4FE83D70B
:1059C00067003E87EFD0AF9F35A88327C4FE83C70B
:1059D0001700C18B85EB832784FB03958700832702
:1059E00084FB8395A700832784FB0396C700832746
:1059F00084FB8396E7008327C4FB83D7C7003E87D9
:105A0000EFD06F89832784FB83C7070093F7F7FDE7
:105A100013F7F70F832784FB2380E70021A0010001
:105A200011A00100B640264461618280397106DE12
:105A300022DC8000232EA4FC232CB4FC3285B68506
:105A40003A86BE864287AA87A30BF4FCAE87231A48
:105A5000F4FCB2872319F4FCB6872318F4FCBA8748
:105A60002317F4FC0325C4FDEFD03FF32326A4FE47
:105A70008327C4FE99E3FD5735AA832784FD23A01D
:105A8000070097A7FF179387275F9C4381CF97A7AE
:105A9000FF179387675E9C431387C702832784FDA4
:105AA000D8C329A0832784FD23A20700832784FD70
:105AB000238407008327C4FD03D7A700832784FD21
:105AC0002395E7008327C4FD03D7C700832784FD00
:105AD0002396E700832784FD49472387E700832730
:105AE00084FDA3870700832784FD2388070083277D
