:020000040800F2
:100000006F00C015720500087205000800000000AE
:100010007205000872050008720500080000000063
:1000200072050008720500087205000872050008D4
:1000300072050008720500087205000872050008C4
:100040007205000800000000000000000000000031
:1000500000000000000000000000000000000000A0
:1000600000000000D0270008000000000000000091
:100070000000000000000000000000000000000080
:100080000000000000000000000000000000000070
:100090000000000000000000000000000000000060
:1000A0000000000000000000000000000000000050
:1000B00000000000000000000000000012280008FE
:1000C0000000000000000000000000000000000030
:1000D0000000000000000000000000000000000020
:1000E0000000000000000000000000000000000010
:1000F0000000000000000000720500087205000802
:100100007205000872050008720500080000000072
:100110007205000800000000000000000000000060
:1001200000000000000000000000000000000000CF
:1001300000000000000000000000000000000000BF
:1001400072050008720500080000000000000000B1
:100150000000000000000000000000007370043088
:10016000170500001305C5FF8545F605637BB5003F
:1001700089816378B500170500001305C5002E9529
:100180000285970100189381E16D17510018130142
:1001900061E79302002073A0027D97020000938222
:1001A00062E673907230970200009382A2357390DA
:1001B000C27E73E0C07E970200009382A22C7390EF
:1001C00052309302F00373B0523073E0513073F049
:1001D0000232170500001305E50997050000938515
:1001E00065096300B50217460000130626F763FA97
:1001F000C5008322050023A0550011059105E3EAFF
:10020000C5FE17450000130565F597050018938591
:1002100065DF170600181306E6E563FAC5008322BA
:10022000050023A0550011059105E3EAC5FE170559
:100230000018130525E49385018E6377B50023200C
:1002400005001105E36DB5FEEF10100D1735000028
:1002500013050599EF20F017EF20F01BEF10307613
:0E02600001458145EF200045EF10507801A0C8
:10028000011122CE00102326A4FE9387C18D25479D
:1002900098C3FD573E85724405618280011122CECC
:1002A00000102326A4FE2324B4FE0327C4FE8547A2
:1002B0006307F7000327C4FE89476318F700832705
:1002C00084FE0967D8C3814731A09387C18D254734
:1002D00098C3FD573E85724405618280011122CE8C
:1002E00000102326A4FE85473E8572440561828066
:1002F000011122CE00102326A4FE2324B4FE2322C3
:10030000C4FE81473E85724405618280797106D6BC
:1003100022D40018232EA4FC232CB4FC232AC4FCD2
:100320008327C4FD99C3FD5705A0832784FD232699
:10033000F4FE37550040EF10E044AA873E8783273C
:10034000C4FE2380E70085473E85B25022544561B4
:100350008280011122CE00102326A4FE97070018E8
:10036000938747D098438327C4FE3E979387018E97
:100370006360F702970700189387C7CE98438327D7
:10038000C4FE3E97974700189387C74763F4E7007A
:10039000FD5705A8970700189387C7CC9843832774
:1003A000C4FE3E97970700189387C7CB98C397075B
:1003B0000018938727CB98438327C4FEB307F040E8
:1003C000BA973E85724405618280797106D622D43F
:1003D0000018232EA4FC232CB4FC232AC4FC0325E0
:1003E000C4FDEF205018AA8799E3FD5785A0832705
:1003F00084FD2324F4FE232604FE89A0032784FE23
:100400008327C4FEBA9703C70700A9476317F700FD
:10041000B54537550040EF102033032784FE83276E
:10042000C4FEBA9783C70700BE8537550040EF105A
:10043000A0318327C4FE85072326F4FE0327C4FECC
:10044000832744FDE36CF7FA832744FD3E85B250D1
:10045000225445618280000000000000000000007E
:10046000000000000000000000000000000000008C
:10047000000000000000000000000000000000007C
:100480005D7106C012C216C41AC61EC82ACA2ECC76
:1004900032CE36D03AD23ED442DC46DEF2C0F6C28C
:1004A000FAC4FEC673D0E57E7350F67E73D0B67E76
:1004B000732520348A85EF10C079D2527390427C24
:1004C000C25273901234B25273902234824012425C
:1004D000A2423243C2435245E24572468256125707
:1004E000A2576258F258064E964E264FB64F61619B
:1004F0007300203000000000000000000000000039
:100500005D7106C012C216C41AC61EC82ACA2ECCF5
:1005100032CE36D03AD23ED442DC46DEF2C0F6C20B
:10052000FAC4FEC673D0E57E7350F67E73D0B67EF5
:10053000F390D07E73700430D2527390427CC252DA
:1005400073901234B2527390223482401242A2420B
:100550003243C2435245E245724682561257A25771
:100560006258F258064E964E264FB64F61617300A0
:10057000203001A00000011122CE00102326A4FE8D
:100580002324B4FE2322C4FEB7070140938707400B
:1005900094438327C4FE13C7F7FFB707014093872F
:1005A0000740758F98C3B70701409387474094432E
:1005B0008327C4FE13C7F7FFB7070140938747405F
:1005C000758F98C3B707014093878740944383276B
:1005D000C4FE13C7F7FFB707014093878740758FA5
:1005E00098C3B70701409387C74094438327C4FE4D
:1005F00013C7F7FFB70701409387C740758F98C3AC
:10060000832784FE99C7032784FE85476301F70289
:100610002DA8B7070140938707409443B7070140CF
:10062000938707400327C4FE558F98C339A8B7079F
:100630000140938747409443B70701409387474061
:100640000327C4FE558F98C30100032744FE894742
:10065000630AF708032744FE894763E0E70C832712
:1006600044FE99C7032744FE85476300F70475A03D
:10067000B7070140938787409443B70701409387AA
:1006800087400327C4FE558F98C3B707014093875F
:10069000C74094438327C4FE13C7F7FFB707014041
:1006A0009387C740758F98C395A8B7070140938774
:1006B000874094438327C4FE13C7F7FFB707014061
:1006C00093878740758F98C3B70701409387C740CA
:1006D0009443B70701409387C7400327C4FE558F53
:1006E00098C32DA8B7070140938787409443B70765
:1006F0000140938787400327C4FE558F98C3B707EF
:1007000001409387C7409443B70701409387C74090
:100710000327C4FE558F98C311A001000100724445
:1007200005618280797122D60018232EA4FCB707B8
:100730000140938747419C430327C4FDF98F23263B
:10074000F4FEB7070140938707409C430327C4FD8D
:10075000F98F2324F4FE8327C4FE91C7832784FEE8
:1007600099C3854711A081473E85325445618280F7
:10077000011122CE00102326A4FEB7070140938763
:1007800047410327C4FE98C301007244056182807B
:10079000797122D60018232EA4FC232CB4FC232A22
:1007A000C4FC2328D4FC232404FE232204FE832734
:1007B00084FDBD8B2324F4FE832784FDC18B81CB74
:1007C000032784FE832744FDD98F2324F4FE2317B7
:1007D00004FE4DA88357E4FE05473317F70083272F
:1007E00004FDF98FD9CB8327C4FD9C432322F4FE5B
:1007F0008357E4FE8A073D47B317F70093C7F7FF17
:10080000032744FEF98F2322F4FE8357E4FE8A0770
:10081000032784FEB317F700032744FED98F232252
:10082000F4FE032784FD930780026310F7028357C9
:10083000E4FE05473317F7008327C4FDD107BE86C2
:10084000832704FDF98F9CC225A0032784FD93070D
:100850008004631FF7008357E4FE05473317F70052
:100860008327C4FDC107BE86832704FDF98F9CC280
:100870008327C4FD032744FE98C38357E4FE8507FE
:100880002317F4FE0357E4FE9D47E3F5E7F4A14781
:100890002317F4FE75A88357E4FE05473317F700C6
:1008A000832704FDF98FC5C38327C4FD91079C43AB
:1008B0002322F4FE8357E4FEE1178A073D47B3176E
:1008C000F70093C7F7FF032744FEF98F2322F4FEB6
:1008D0008357E4FEE1178A07032784FEB317F70066
:1008E000032744FED98F2322F4FE032784FD9307B8
:1008F00080026310F7028357E4FE05473317F700C1
:100900008327C4FDD107BE86832704FDF98F9CC2CF
:1009100025A0032784FD93078004631FF7008357F6
:10092000E4FE05473317F7008327C4FDC107BE86E1
:10093000832704FDF98F9CC28327C4FD91073E875E
:10094000832744FE1CC38357E4FE85072317F4FE68
:100950000357E4FEBD47E3F0E7F401000100325421
:1009600045618280011122CE00102326A4FE23249B
:10097000B4FE8327C4FEA1079843832784FEF98F22
:1009800099C3854711A081473E85724405618280E5
:10099000797122D60018AA872E87A30FF4FCBA8794
:1009A000230FF4FC232604FE8347E4FD8D8B8A0786
:1009B0003D47B317F7002326F4FE0347E4FD8D47B8
:1009C00063E1E704B7070140A10794438327C4FE0E
:1009D00013C7F7FFB7070140A107758F98C3B70783
:1009E0000140A10794430347F4FD8347E4FD8D8B49
:1009F0008A073317F700B7070140A107558F98C33F
:100A0000F9A00347E4FD9D4763E1E704B707014010
:100A1000B10794438327C4FE13C7F7FFB70701400C
:100A2000B107758F98C3B7070140B10794430347D7
:100A3000F4FD8347E4FD8D8B8A073317F700B70772
:100A40000140B107558F98C359A00347E4FDAD4756
:100A500063E1E704B7070140C10794438327C4FE5D
:100A600013C7F7FFB7070140C107758F98C3B707D2
:100A70000140C10794430347F4FD8347E4FD8D8B98
:100A80008A073317F700B7070140C107558F98C38E
:100A90003DA8B7070140D10794438327C4FE13C77D
:100AA000F7FFB7070140D107758F98C3B70701401B
:100AB000D10794430347F4FD8347E4FD8D8B8A07F8
:100AC0003317F700B7070140D107558F98C30100CE
:100AD000325445618280011122CE00102326A4FEEB
:100AE0008327C4FE13D76700B7170240BA9798430D
:100AF0008327C4FEFD8B8546B397F6008326C4FE8C
:100B000013D66600B7160240B296D98F9CC2010078
:100B1000724405618280011122CE00102326A4FEBA
:100B20008327C4FE13D76700B7170240BA979843CC
:100B30008327C4FEFD8B8546B397F6008326C4FE4B
:100B400013D66600B7160240B296D98F9CC2010038
:100B5000724405618280011122CE00102326A4FE7A
:100B60008327C4FE13D76700B7170240BA9798438C
:100B70008327C4FEFD8B8546B397F60093C7F7FF26
:100B80008326C4FE13D66600B7160240B296F98FCC
:100B90009CC201007244056182801971A2DE0001CD
:100BA0002326A4F8232604FE973700009387872C7A
:100BB0009043D4439847DC472322C4FA2324D4FA31
:100BC0002326E4FA2328F4FA232E04F8B7070304B3
:100BD000938717202320F4FA232A04F8B707030485
:100BE00093871720232CF4F8B717024091079C43F2
:100BF00089838D8B232CF4FC032784FD8947630EA6
:100C0000F702032784FD894763EBE716832784FDFA
:100C100099C7032784FD8547630AF7008DA2B7179C
:100C20007A00938707202324F4FE95A2B7177A0051
:100C3000938707202324F4FE99AAB717024091074F
:100C40009843C167F98F232AF4FC032744FDC16749
:100C50006310F70AB7177A00938707202320F4FE62
:100C6000B71702409387C7029843C167F98F2328BB
:100C7000F4FC032704FDC167631AF704B7170240A9
:100C80009387C7029C439183BD8B85072326F4FC81
:100C9000B71702409387C7029C43A183BD8B890786
:100CA000232EF4FC0327C4FDC5476315F700D14785
:100CB000232EF4FC032704FE8327C4FCB357F7025A
:100CC0000327C4FDB307F7022320F4FEB717024041
:100CD0009387C7029C43BD8B85072324F4FC03271D
:100CE00004FE832784FCB357F7022320F4FE39A0C7
:100CF000B7173D00938707902320F4FEB7170240F3
:100D000091079C43C983BD8B2322F4FEB717024091
:100D100091079843B7070020F98F99C7832744FEAE
:100D200093E707012322F4FE032744FEB94763E853
:100D3000E700832744FE89072322F4FE31A083279E
:100D400044FE85072322F4FE032704FE832744FE86
:100D5000B307F7022324F4FE032744FEBD476317BD
:100D6000F702032704FEBA878607BA9786073E87ED
:100D7000832704FE8583BA972324F4FE01A8B717BE
:100D80007A00938707202324F4FE11A00100B717EF
:100D9000024091079C439183BD8B2322F4FC83275F
:100DA00044FC130704FFBA9783C747FB2320F4FCD6
:100DB000832704FC032784FEB357F700232EF4FA9D
:100DC000B717024091079C43A1839D8B2322F4FC1B
:100DD000832744FC130704FFBA9783C7C7FA23206D
:100DE000F4FC832704FC0327C4FBB357F700232C30
:100DF000F4FAB717024091079C43AD839D8B2322E1
:100E0000F4FC832744FC130704FFBA9783C747FA0F
:100E10002320F4FC832704FC0327C4FBB357F7000B
:100E2000232AF4FA0327C4F88D476309F70403273C
:100E3000C4F88D4763E9E7040327C4F88947630AC8
:100E4000F7020327C4F8894763EFE7028327C4F852
:100E500099C70327C4F885476308F7002DA08327A7
:100E600084FE2326F4FE0DA08327C4FB2326F4FE74
:100E700021A8832784FB2326F4FE39A0832744FB83
:100E80002326F4FE11A001008327C4FE3E8576547C
:100E900009618280011106CE22CC00102326A4FE17
:100EA0000327C4FEB7370140938707C06305F70ADD
:100EB0000327C4FEB7370140938707C063EEE70EF0
:100EC0000327C4FEB717004093870740630FF70C52
:100ED0000327C4FEB71700409387074063EEE70C73
:100EE0000327C4FEB7170040630AF70A0327C4FEAE
:100EF000B717004063E2E70C0327C4FEB7170040B2
:100F0000938707C06305F7080327C4FEB71700409F
:100F1000938707C063E2E70A0327C4FEB7170040C0
:100F200093870780630EF7040327C4FEB7170040BA
:100F30009387078063E2E7080327C4FEB7070040F2
:100F40006302F7020327C4FEB707004093870740F8
:100F50006301F70295A01305B030753E1305B0305C
:100F6000DD3EA1A8130500407D3613050040E5369F
:100F7000A9A013051040453613051040E93E35A8D9
:100F800013052040493E13052040F1363DA01305CE
:100F900030405136130530407D3E05A013054040DA
:100FA0009D3E13054040453E09A813055040A53617
:100FB000130550404D3611A001000100F24062447B
:100FC00005618280011122CE00102326A4FE832712
:100FD000C4FE239007008327C4FE239107008327C4
:100FE000C4FE239207008327C4FE41677D1798C77C
:100FF0008327C4FE239607008327C4FE23870700A8
:101000000100724405618280011122CE0010232666
:10101000A4FE2324B4FE832784FE03D7070083277E
:10102000C4FE9387870298C30327C4FEB7370140E5
:10103000938707C06300F7040327C4FEB707004087
:10104000630AF7020327C4FEB707004093870740EF
:101050006302F7020327C4FEB71700409387078097
:10106000630AF7000327C4FEB7170040938707C041
:101070006315F7048327C4FE98438327C4FE1377C0
:10108000F7F898C38327C4FE9443832784FE83D74D
:10109000270013F707068327C4FE558F98C38327BD
:1010A000C4FE9443832784FE83D7470013F70701C8
:1010B0008327C4FE558F98C32DA08327C4FE984371
:1010C0008327C4FE3D9B98C38327C4FE9443832794
:1010D00084FE83D7470013F707018327C4FE558F8B
:1010E00098C38327C4FE9387C7023E87832784FE65
:1010F0009C471CC30327C4FEB7170040630FF702C9
:101100000327C4FEB7170040938707406307F70221
:101110008327C4FE98438327C4FE1377F7CF98C371
:101120008327C4FE9443832784FE83D7C70013F725
:1011300007308327C4FE558F98C30327C4FEB737F3
:101140000140938707C0631BF700832784FE03C712
:10115000E7008327C4FE9387070398C38327C4FE51
:10116000D1079C430327C4FE510793E717001CC314
:101170000100724405618280011122CE00102326F5
:10118000A4FE8327C4FE98438327C4FE1367170079
:1011900098C30100724405618280011122CE0010C3
:1011A0002326A4FE2324B4FE032784FE9147631B59
:1011B000F7008327C4FE98438327C4FE13674700C4
:1011C00098C319A8832784FE81EB8327C4FE984324
:1011D0008327C4FE6D9B98C3010072440561828021
:1011E000011122CE00102326A4FE2324B4FE83275F
:1011F000C4FEB10798438327C4FEB107BE86832788
:1012000084FED98F9CC2010072440561828079718D
:1012100022D60018232EA4FC232CB4FC8327C4FD63
:10122000B1079C43032784FDF98F2326F4FE83270F
:10123000C4FDC1079843832784FDF98F91C7832795
:10124000C4FE99C3854711A081473E85325445614C
:101250008280011122CE00102326A4FE2324B4FE96
:101260008327C4FEC1073E87832784FE93C7F7FF09
:101270001CC30100724405618280011106CE22CC9C
:1012800000102326A4FE0327C4FEB747014093871E
:1012900007806307F7060327C4FEB747014093871B
:1012A000078063ECE70A0327C4FEB7570040630DCD
:1012B000F7080327C4FEB757004063E0E70A032797
:1012C000C4FEB7570040938707C06306F70603279D
:1012D000C4FEB7570040938707C063E0E7080327C1
:1012E000C4FEB7470040938707406304F702032713
:1012F000C4FEB7570040938707806305F702B1A883
:101300001305E030EFF03F811305E030EFF0BF84CC
:10131000B1A013051041EFF01F8013051041EFF04D
:101320009F832DA813052041EFF0EFFE1305204108
:10133000EFF07F8225A013053041EFF0CFFD1305BC
:101340003041EFF05F8119A813054041EFF0AFFC89
:1013500013054041EFF03F8011A001000100F24071
:10136000624405618280797106D622D40018232E4A
:10137000A4FC232CB4FC232604FE232404FE2322F5
:1013800004FE232004FE0327C4FDB74701409387D2
:1013900007806307F7060327C4FDB747014093871B
:1013A000078063EDE7080327C4FDB75700406301DA
:1013B000F7080327C4FDB757004063E1E708032798
:1013C000C4FDB7570040938707C0630DF704032798
:1013D000C4FDB7570040938707C063E1E7060327C2
:1013E000C4FDB7470040938707406301F702032716
:1013F000C4FDB757004093870780630FF7003DA8EF
:101400000D45EFF08FF92326A4FE15A80945EFF04E
:10141000CFF82326A4FE25A00945EFF00FF82326D8
:10142000A4FE31A80945EFF04FF72326A4FE01A83A
:101430000945EFF08FF62326A4FE11A001008327B3
:1014400084FD13D717008327C4FE3E97832784FDAE
:10145000B357F7022320F4FE032704FEC167C11728
:10146000F98F2324F4FE832704FEBD8B2322F4FE90
:10147000032784FE832744FE5D8F8327C4FDA107D5
:10148000BE86C167FD17F98F9CC20100B25022547D
:1014900045618280011122CE00102326A4FE232460
:1014A000B4FE8327C4FEB1079C430327C4FE310763
:1014B00093F7F79F1CC38327C4FEB1079843832784
:1014C000C4FEB107BE86832784FED98F9CC201006B
:1014D000724405618280011122CE00102326A4FEF1
:1014E0002324B4FE8327C4FEB10798438327C4FE98
:1014F000B107BE86FD77FD17F98F9CC28327C4FE16
:10150000B10798438327C4FEB107BE86832784FEB4
:10151000D98F9CC20100724405618280011122CEE4
:1015200000102326A4FE2324B4FE8327C4FEC10793
:1015300098438327C4FEC107BE86F577FD17F98F50
:101540009CC28327C4FEC10798438327C4FEC107FA
:10155000BE86832784FED98F9CC201007244056138
:101560008280011122CE00102326A4FE8327C4FE10
:10157000B10798438327C4FEB107BE868967D98F18
:101580009CC20100724405618280797122D60018E4
:10159000232EA4FC232CB4FC232604FE8327C4FDA5
:1015A000B1079C432326F4FE8327C4FEDD9B23263C
:1015B000F4FE0327C4FE832784FDD98F2326F4FE7F
:1015C0008327C4FDB1073E878327C4FE1CC30100E7
:1015D000325445618280797122D60018232EA4FCF2
:1015E000232CB4FC232604FE8327C4FDB1079C43AF
:1015F0002326F4FE8327C4FEED9B2326F4FE032757
:10160000C4FE832784FDD98F2326F4FE8327C4FDDF
:10161000B1073E878327C4FE1CC3010032544561D5
:101620008280011122CE00102326A4FE2324B4FEC2
:101630008327C4FE91073E87832784FE93F7F71F15
:101640001CC30100724405618280011122CE00108A
:101650002326A4FE8327C4FE91079C43C207C183AF
:1016600093F7F71FC207C1833E85724405618280EC
:10167000797122D60018232EA4FC232CB4FC232637
:1016800004FE8327C4FDD1079C432326F4FE832751
:10169000C4FE93F7F7EF2326F4FE0327C4FE832747
:1016A00084FDD98F2326F4FE8327C4FDD1073E870E
:1016B0008327C4FE1CC301003254456182807971C6
:1016C00022D60018232EA4FC232CB4FC232604FECF
:1016D0008327C4FDD1079C432326F4FE8327C4FE41
:1016E00093F7F7DF2326F4FE0327C4FE832784FD48
:1016F000D98F2326F4FE8327C4FDD1073E87832795
:10170000C4FE1CC30100325445618280011122CE07
:1017100000102326A4FE2324B4FE832784FE99838D
:1017200013F7F73F8327C4FEBA979843832784FEB5
:10173000FD8BB357F700858B99C3854711A081476F
:101740003E85724405618280011106CE22CC0010D4
:101750002326A4FE2324B4FE832784FE93F7F70FE9
:10176000BE850325C4FE753D01009D450325C4FECD
:10177000713FAA87FDDB832784FE3E85F2406244E9
:1017800005618280011106CE22CC00102326A4FE22
:10179000010095450325C4FE953FAA87FDDB03257F
:1017A000C4FE6535AA8793F7F70F3E85F240624481
:1017B00005618280411122C6000897F7FF179387C1
:1017C000A78A9C4389833E853244410182803971D6
:1017D00006DE22DC26DA80002326A4FCE13F232655
:1017E000A4FEB70700D19843DC432324E4FEB707E7
:1017F00000D19843DC432322E4FEF32700B0BE84EB
:10180000A6872320F4FE032744FE832784FEE300FB
:10181000F7FEB70700D19843DC43832744FEB307A4
:10182000F740232EF4FCF32700B0BE8426878327DD
:1018300004FEB307F740232CF4FC0327C4FD8327E1
:10184000C4FCE368F7FC032784FD8327C4FD3357FA
:10185000F7028327C4FE3307F702832684FD83271C
:10186000C4FDB3F6F6028327C4FEB386F6028327CF
:10187000C4FDB3D7F602BA973E85F2506254D254F3
:1018800021618280011106CE22CC001005458137EE
:10189000130540062D3F2326A4FE8327C4FE3E8564
:1018A000F240624405618280397106DE22DC8000EC
:1018B0002326A4FC97E7FF179387077B9C43898324
:1018C0003E8381438327C4FC3E8681463387C3021F
:1018D000B3876602BA973307C302B338C3023A88A4
:1018E000C697BE881306803E81464285C685EF00B6
:1018F00010782A87AE872324E4FE2326F4FEB70758
:1019000000D19843DC432320E4FE2322F4FEB707F2
:1019100000D103A8070083A84700032504FE832500
:1019200044FE3306A840B287B337F800B386B84008
:10193000B387F640BE86232CC4FC232ED4FC032799
:10194000C4FE8327C4FDE3E4E7FC0327C4FE83272A
:10195000C4FD6318F700032784FE832784FDE3E8B2
:10196000E7FA0100F250625421618280011122CE17
:101970000010232604FE232404FEB71702409443DC
:10198000B71702404167558F98C38327C4FE850768
:101990002326F4FEB71702409843B7070200F98FD9
:1019A0002324F4FE832784FE99E70327C4FEC1673E
:1019B000FD17E31CF7FCB71702409843B707020076
:1019C000F98F91E301A0B717024013874700B717BB
:1019D00002409107184398C3B71702401387470086
:1019E000B71702409107184398C3B71702409107F1
:1019F0009843B717024091071367074098C3B7177A
:101A0000024091079443B717024091073707C4DF9C
:101A10007D17758F98C3B717024091079443B71786
:101A20000240910737072920558F98C3B717024006
:101A30009387C7029443B71702409387C7023D7745
:101A4000758F98C3B71702409387C7029443B7179F
:101A500002409387C7024167130717F1558F98C358
:101A6000B71702409443B717024037070004558F59
:101A700098C30100B71702409843B7070008F98FD1
:101A8000F5DBB71702409443B71702403707001041
:101A9000558F98C30100B71702409843B70700203D
:101AA000F98FF5DBB71702409443B71702403707A9
:101AB0000001558F98C30100B71702409843B7073C
:101AC0000002F98FF5DBB717024091079843B7176B
:101AD00002409107719B98C3B71702409107984342
:101AE000B717024091071367270098C30100B71783
:101AF000024091079C43A18BFDDB01000100724471
:101B000005618280411106C622C4000885350100A6
:101B1000B240224441018280411106C622C400081D
:101B2000B71702409843B71702401367170098C3CE
:101B3000B717024091079443B71702409107370740
:101B4000FFE03107758F98C3B71702409443B7176A
:101B500002403707F7FE7D17758F98C3B71702400D
:101B60009443B71702403707FCFF7D17758F98C362
:101B7000B717024091079443B71702409107370700
:101B800001DF7D17758F98C3B71702409387C7028F
:101B900023A00700B71702409443B7170240370746
:101BA000F7EA7D17758F98C3B7170240A10737076B
:101BB000FF0098C3813F0100B2402244410182806E
:101BC000011106CE22CC00102326A4FE2324B4FE4D
:101BD0008325C4FE172500001305852CEF10001582
:101BE000F3271034BE808687BE85172500001305B5
:101BF000252CEF10A013F3273034BE808687BE85D6
:101C0000172500001305C52BEF10401201A001118C
:101C100022CE0010232604FE1DA017070000130784
:101C200067FA97E6FF179386A6458327C4FE8A07BF
:101C3000B69798C38327C4FE85072326F4FE03279F
:101C4000C4FEB147E3DBE7FC01000100724405611B
:101C50008280797106D622D40018232EA4FC232C6E
:101C6000B4FC0327C4FD8567FD17F98F2324F4FE18
:101C7000032784FEAD4763EEE70017E7FF1713075E
:101C80002740832784FE8A07BA979C432326F4FEC5
:101C90002DA0032784FE8567FD17631AF70097E7D9
:101CA000FF179387E73D9C5B2326F4FE39A0970737
:101CB0000000938727F12326F4FE8327C4FE81CBFF
:101CC0008327C4FE832584FD0325C4FD82978147B5
:101CD0003E85B250225445618280011106CE22CC4D
:101CE0000010972700009387E7249043D443984738
:101CF000DC472320C4FE2322D4FE2324E4FE232633
:101D0000F4FE172600001306A61C972500009385F5
:101D1000E51C172500001305251DEF102001832762
:101D200004FEBE85172500001305051EEF100000F8
:101D300097E7FF17938747339C43BE85172500001D
:101D40001305C51DEF00907E0100F240624405615D
:101D50008280011122CE0010A30504FEB70700D235
:101D60000347B4FEA385E700010091472326F4FE54
:101D7000B70700D283C7070013F7F70FB70700D2E2
:101D8000059B1377F70F2380E700B70700D283C7BF
:101D9000070093F7F70F1397870161878327C4FE26
:101DA00093F7F70F860793F7F70FE207E187F98BB1
:101DB000E207E187D98F139787016187B70700D2C0
:101DC0001377F70F2380E7000100010072440561DB
:101DD00082801971A2DEA6DC00012326A4F823224A
:101DE000C4F82320F4F8AE87A305F4F8B6872305DA
:101DF000F4F8BA87A304F4F80327C4F8930770052E
:101E000063ECE7000347B4F8854763E7E70003277F
:101E100044F88D4763F4E700FD5769AE8347B4F893
:101E20000327C4F82326E4FA2324F4FA370700D260
:101E30008327C4FA938707408A07BA9783C7270086
:101E400093F7F70FB70600D2F99B13F7F70F832725
:101E5000C4FA938707408A07B6972381E7003707BC
:101E600000D28327C4FA938707408A07BA9783C7AB
:101E7000270013F7F70F832784FA93F7F70FB706B6
:101E800000D2D98F13F7F70F8327C4FA938707403F
:101E90008A07B6972381E70001008327C4F8232A25
:101EA000F4FA832744F82328F4FA370700D283276B
:101EB00044FB938707408A07BA9783C7270093F7A5
:101EC000F70FB70600D2E59B13F7F70F832744FB04
:101ED000938707408A07B6972381E700370700D228
:101EE000832744FB938707408A07BA9783C7270055
:101EF00013F7F70F832704FB93F7F70F860793F782
:101F0000F70FB70600D2D98F13F7F70F832744FBDB
:101F1000938707408A07B6972381E700010083274C
:101F2000C4F82328F4FC8347A4F8A307F4FCB707FC
:101F300000D283C7070093F7F70F8583BD8B230774
:101F4000F4FC9147A306F4FC8347E4FCF1C7034784
:101F5000E4FC8347D4FC63F6E7008347D4FC230703
:101F6000F4FC8347E4FC0547B317F70093F7F70F3A
:101F7000FD172306F4FC0347F4FC8347C4FC63F617
:101F8000E7008347C4FCA307F4FC0347F4FC834742
:101F9000E4FCA146B387F640B317F700A305F4FCB1
:101FA000832704FD2322F4FC370700D2832744FC57
:101FB000938707408A07BA9783C7370093F7F70FCD
:101FC000A301F4FC034734FC8347E4FCB317F70098
:101FD000A301F4FC034734FC8347E4FCB357F74008
:101FE000A301F4FC0347B4FC834734FCD98F93F777
:101FF000F70F032704FD232EE4FAA30DF4FA3707A5
:1020000000D28327C4FB938707408A07BA97034708
:10201000B4FBA381E70011A001008327C4F82326A5
:10202000F4FE834794F8A305F4FEB70700D283C7F4
:10203000070093F7F70F8583BD8B2305F4FE9147C7
:10204000A304F4FE0347A4FE834794FE6376F70ED1
:10205000034794FE8347A4FEB307F7400547B31731
:10206000F70093F7F70FFD172304F4FE0347B4FEC0
:10207000834784FE63F6E700834784FEA305F4FEEE
:102080000347B4FE834794FEA146B387F640B317D7
:10209000F700A305F4FE834794FE1307F00FB35730
:1020A000F740A303F4FE0347B4FE834774FED98FC1
:1020B000A305F4FE8327C4FE2320F4FE370700D2D5
:1020C000832704FE938707408A07BA9783C73700A0
:1020D00093F7F70FA30FF4FC0347F4FD8347A4FE27
:1020E000A146B387F640B357F740A30FF4FC03476C
:1020F000F4FD8347A4FEA146B387F640B317F7006B
:10210000A30FF4FC0347B4FE8347F4FDD98F93F784
:10211000F70F0327C4FE232CE4FCA30BF4FC3707C2
:1021200000D2832784FD938707408A07BA97034725
:1021300074FDA381E70001000100832704F89DCB13
:10214000832704F80327C4F82322E4FA2320F4FAAF
:10215000F3277030BE84A687232CF4F8832744FA33
:102160008A073E87832784F9BA973E87832704FA34
:102170001CC301008327C4F8232EF4F8370700D2CC
:102180008327C4F9938707408A07BA9783C7170044
:1021900093F7F70FB70600D293E7170013F7F70F7F
:1021A0008327C4F9938707408A07B697A380E7007F
:1021B000010081473E857654E654096182804111D1
:1021C00006C622C40008EFF0EFEB2A8797E7FF1757
:1021D000938787E998C3375500402521FD3C053C8E
:1021E0008D3E0100B240224441018280011122CE85
:1021F00000102326A4FE0100724405618280411173
:1022000022C600080100324441018280411122C6E9
:1022100000080100324441018280011106CE22CC27
:1022200000102326A4FE17270000130727D38327B7
:10223000C4FE8A07BA979C433E85EFE0DF891727E3
:102240000000130727D08327C4FE8A07BA97884364
:10225000172700001307C7CF8327C4FE8A07BA9742
:102260009C43BE860D46C145EFE08FD21727000084
:10227000130747CD8327C4FE8A07BA979C43C1073B
:10228000BE86172700001307A7CC8327C4FE8A0742
:10229000BA979C439CC20100F2406244056182806F
:1022A000011122CE00102326A4FE172700001307D9
:1022B00067C98327C4FE8A07BA979C43D107BE86A5
:1022C000172700001307C7C88327C4FE8A07BA97D9
:1022D0009C439CC20100724405618280011122CEA0
:1022E00000102326A4FE172700001307A7C5832785
:1022F000C4FE8A07BA979C43C107BE861727000011
:10230000130707C58327C4FE8A07BA979C439CC25C
:1023100001007244056182801D7186CEA2CC8010BE
:102320002326A4FA2324B4FA930720603E85EFE025
:102330008FFA13050060EFE00FFAB717014093879B
:1023400007800547BA860D4691453E85EFE04FC4AC
:10235000032784FA8547631AF726E547232AF4FA08
:10236000370700D2832744FB938707408A07BA9731
:1023700083C7170093F7F70FB70600D293E717004C
:1023800013F7F70F832744FB938707408A07B69715
:10239000A380E7000100E5472328F4FC8547A30755
:1023A000F4FCB70700D283C7070093F7F70F8583C4
:1023B000BD8B2307F4FC9147A306F4FC8347E4FCA0
:1023C000F1C70347E4FC8347D4FC63F6E700834787
:1023D000D4FC2307F4FC8347E4FC0547B317F7005C
:1023E00093F7F70FFD172306F4FC0347F4FC83472C
:1023F000C4FC63F6E7008347C4FCA307F4FC03476F
:10240000F4FC8347E4FCA146B387F640B317F7001A
:10241000A305F4FC832704FD2322F4FC370700D234
:10242000832744FC938707408A07BA9783C73700FE
:1024300093F7F70FA301F4FC034734FC8347E4FC54
:10244000B317F700A301F4FC034734FC8347E4FC13
:10245000B357F740A301F4FC0347B4FC834734FCB3
:10246000D98F93F7F70F032704FD232EE4FAA30D6A
:10247000F4FA370700D28327C4FB938707408A0703
:10248000BA970347B4FBA381E70011A00100E54719
:102490002326F4FE8547A305F4FEB70700D283C7C1
:1024A000070093F7F70F8583BD8B2305F4FE914753
:1024B000A304F4FE0347A4FE834794FE6376F70E5D
:1024C000034794FE8347A4FEB307F7400547B317BD
:1024D000F70093F7F70FFD172304F4FE0347B4FE4C
:1024E000834784FE63F6E700834784FEA305F4FE7A
:1024F0000347B4FE834794FEA146B387F640B31763
:10250000F700A305F4FE834794FE1307F00FB357BB
:10251000F740A303F4FE0347B4FE834774FED98F4C
:10252000A305F4FE8327C4FE2320F4FE370700D260
:10253000832704FE938707408A07BA9783C737002B
:1025400093F7F70FA30FF4FC0347F4FD8347A4FEB2
:10255000A146B387F640B357F740A30FF4FC0347F7
:10256000F4FD8347A4FEA146B387F640B317F700F6
:10257000A30FF4FC0347B4FE8347F4FDD98F93F710
:10258000F70F0327C4FE232CE4FCA30BF4FC37074E
:1025900000D2832784FD938707408A07BA970347B1
:1025A00074FDA381E7000100010081470147BA855E
:1025B0003E85EFE0EFBD8547054681453E85EFD07E
:1025C0009FFB85473E85EFE0AF9A0100F6406644E9
:1025D00025618280011106CE22CC00102326A4FEA4
:1025E000B7170140938707800547BA853E85EFE01E
:1025F0006FB7AA8793F7F70F3E85F24062440561F3
:102600008280011106CE22CC00102326A4FE1305E1
:102610004060EFE04FCC13055060EFE0CFCB1305E7
:102620004071EFE04FCB85660D46E145371501401F
:10263000EFE00F9691460D469145B717014013857F
:102640000740EFE0EF940325C4FEEFE01FC3F167FE
:10265000938507200325C4FEEFE0FFD081450325C5
:10266000C4FEEFE05FE781450325C4FEEFE01FEB0A
:1026700081450325C4FEEFE0FFE181450325C4FE4B
:10268000EFE01FFF81450325C4FEEFF04F83914526
:102690000325C4FEEFE03FF4A1450325C4FEEFE0AF
:1026A000DFEE0325C4FEEFE0DFEB0100F240624401
:1026B00005618280011106CE22CC00108547A30758
:1026C000F4FE89472307F4FE0945813E0145B136F2
:1026D0000545A1368545B7170140138507802D397B
:1026E000812875288346E4FE8147014701468145DC
:1026F0006545EFF00FEE2324A4FE8346F4FE8147E8
:102700000147014681451305F002EFF08FEC2324C9
:10271000A4FEA14073A00030010037050040EFE0A7
:10272000BFA50545653E0145553E0945953ED5BFCA
:10273000011106CE22CC001013050070EFE0AFB9F6
:1027400037050040EFE00FF5914537050040EFE019
:10275000DFA4930704FE3E85EFE0DF86F5779387DD
:10276000F72E2310F4FE231104FE231204FE9567B6
:10277000938707E22324F4FE231604FE930704FE46
:10278000BE8537050040EFE03F88854537050040AE
:10279000EFE01FA50100F240624405618280411113
:1027A00006C622C4000813050060EFE0CFB28145E1
:1027B0000145EFE0EF9D054681450545EFD0BFDBC4
:1027C0000545EFD0FFFA0100B2402244410182806A
:1027D000411106C622C400080545EFD0BFF42A8780
:1027E00085476313F7020145F533AA8791EF054545
:1027F000EFD01FF809456D3401455D3405454D3472
:102800001305803EEFF04F8A0100B240224441019F
:102810008280011106CE22CC00108545370500408C
:10282000EFE0FF9E2A878547631EF702854537053F
:102830000040EFE01FA2231704FE05A00945793CE4
:102840000545693C0145A93C1305803EEFF0CF8565
:102850008357E4FE85072317F4FE0357E4FE9147F0
:10286000E3FEE7FC0100F240624405618280AA8831
:10287000AE87328836854683639906209716000016
:102880009386866E63F0C50C41676376E60A13078C
:10289000F00F3337C7000E073355E600AA9683C6FC
:1028A0000600130500023697B306E540630CE50009
:1028B000B397D70033D7E8003318D600B365F700D5
:1028C0003393D80093580801B3D7150313160801A2
:1028D000418213570301B3F615033E85B305F60293
:1028E000C206558F637CB70042971385F7FF636775
:1028F00007016375B7001385E7FF42970D8FB37724
:10290000170342031353030133571703C20733E37B
:102910006700B306E6023A86637BD3004293130650
:10292000F7FF636603016374D3001306E7FF4205F4
:10293000518D81455DA8370500014147E36EA6F43E
:10294000614799BF01E605473358C7024167637F76
:10295000E8081307F00F6373070121453357A800F8
:10296000BA9603C70600130600022A97B306E6408C
:102970006315E608B3870741854593580801131688
:102980000801418213570301B3F61703B3D71703A6
:10299000C206558F330EF6023E85637CC70142970F
:1029A0001385F7FF636707016375C7011385E7FFA9
:1029B00042973307C741B377170342031353030109
:1029C00033571703C20733E36700B306E6023A86BC
:1029D000637BD30042931306F7FF636603016374BE
:1029E000D3001306E7FF4205518D828037070001AF
:1029F0004145E365E8F6614595B73318D800B3D58E
:102A0000E7003393D800B397D70033D7E800935843
:102A100008013366F70033F7150393170801C183E4
:102A200013550601B3D515034207498FB386B70284
:102A30002E85637CD70042971385F5FF63670701F6
:102A40006375D7001385E5FF4297B306D74033F788
:102A5000160342064182B3D616034207B388D70253
:102A6000B367C700368763FC1701C2971387F6FF69
:102A700063E7070163F517011387E6FFC297931514
:102A80000501B3871741D98DCDBD63E1D5144167E9
:102A900063FFE6021307F00FB335D7008E0533D579
:102AA000B600171700001307274C2A9703470700A3
:102AB000130500022E97B305E5406311E5020545B5
:102AC000E3E5F6F233B5C8001345150039BF370703
:102AD0000001C145E3E5E6FCE145D1B73353E6002B
:102AE000B396B6003363D30033D5E700935E03019A
:102AF000B376D503B397B70033D7E8003368F70050
:102B000093170301C183135708013316B6003355D9
:102B1000D503C206558F338FA7022A8E637CE70147
:102B20001A97130EF5FF636767006375E701130ECD
:102B3000E5FF1A973307E741B376D7033357D70337
:102B4000C206B38EE70293170801C183D58F3A8579
:102B500063FCD7019A971305F7FF63E7670063F5F6
:102B6000D7011305E7FF9A97420EB387D741C16E8D
:102B70003365AE009386FEFF3373D500135805010D
:102B8000F18E4182330ED302B306D80213570E01E1
:102B90003303C30236931A973308C8026373D7000E
:102BA000769893560701369863E00703E39307D9B5
:102BB000C167FD177D8F4207337EFE00B398B800D2
:102BC00072978145E3F3E8E27D15A5B381450145A0
:102BD00029BDAA8581460146014599AE4111971745
:102BE00000009387A75722C417140000130404574A
:102BF0001D8C26C206C60984BE8419E42244B24054
:102C0000924441016FF08FE07D1493172400A69742
:102C10009C438297DDB741119717000093870754B3
:102C200022C417140000130464531D8C26C24AC02A
:102C300006C6098481443E8963988402EFF02FDC44
:102C4000971700009387875117140000130404514D
:102C50001D8C098481443E89639F8400B2402244D4
:102C6000924402494101828093972400CA979C4371
:102C700085048297D1B793972400CA979C43850413
:102C80008297D9BF3D432A876373C3029377F700C6
:102C9000BDEFADE5937606FF3D8ABA960CC34CC3F3
:102CA0000CC74CC74107E36BD7FE11E28280B30625
:102CB000C3408A069702000096966780A600230705
:102CC000B700A306B7002306B700A305B700230586
:102CD000B700A304B7002304B700A303B70023037E
:102CE000B700A302B7002302B700A301B700230176
:102CF000B700A300B7002300B700828093F5F50F5B
:102D000093968500D58D93960501D58D61B79396E1
:102D100027009702000096968682E78086FA9680C2
:102D2000C1171D8F3E96E374C3F8A5B75D7122D419
:102D300006D62A842EDA32DC36DEBAC0BEC2C2C45F
:102D4000C6C603A5818011C51C4D81E72AC6C921CD
:102D500032450C455418228636CEEF003010B25062
:102D60002254616182806FD06FD7011122CC26CAB4
:102D70004AC806CE4EC6AA842E89328401C51C4D8F
:102D800091E3792197170000938707306319F406C0
:102D9000C0401C4C1CC48357C400A18BC9C31C4831
:102DA000BDCF1C4808409379F90F1379F90F1D8D99
:102DB0005C486346F500A2852685352E2DE51C442A
:102DC0000505FD171CC41C401387170018C023807D
:102DD00037015C486389A7008357C400858B81CB8A
:102DE000A9476316F900A285268531260DEDF2402C
:102DF0006244D244B2494A854249056182809717AC
:102E000000009387672A6314F400804459B797172A
:102E1000000093876725E31EF4F6C0449DBFA2859A
:102E2000268521203DDD7D59D9B7411122C426C216
:102E30004AC006C683A481802A892E8489C49C4CFA
:102E400099E32685F126971700009387E7236317F8
:102E5000F402C0408317C4001397070193F687005C
:102E60004183ADEA9376070195EA25472320E900DF
:102E700093E707042316F4007D5571A89717000007
:102E8000938787226314F4008044E9B79717000002
:102E90009387871DE310F4FCC0446DBF118B0DC7F1
:102EA0004C5889C9930744046384F5004A85C923B3
:102EB000232A04028357C4002322040093F7B7FD9A
:102EC0002316F4001C481CC08357C40093E78700F6
:102ED0002316F4001C4881EF8357C4001307002019
:102EE00093F707286385E700A2854A85E5218317C4
:102EF000C4001397070193F6170041839DC25448FD
:102F000023240400B306D04014CC1448014581E6C4
:102F10001377070831FFB24022449244024941012D
:102F2000828093762700014691E2504810C4F1BF99
:102F3000AA8817D5FF171305E5131C4191EF1387D6
:102F4000018518C117D5FFF71305C50BBA8709C549
:102F50001C412324F708BA87D8437D487D55634632
:102F6000E804638D080203A88708630008041315AA
:102F70002700429510C10323081005463316E600CA
:102F80003363C300232068102320D5088946639744
:102F9000D80083264810558E2322C81093061700A8
:102FA0000A07D4C3BA978CC70145828083D7C5006E
:102FB000011122CC26CA06CE4AC84EC613F7870096
:102FC000AA842E8465E7D8416347E000B841634492
:102FD000E0000145C1A058546DDF03A90400939699
:102FE000370123A0040063DE060668488357C40047
:102FF000918B99C75C401D8D5C5899C33C401D8DD9
:103000005C540C502A86814626858297FD570357CB
:10301000C400631DF5009440F54763E4D708B70783
:1030200040208507B3D7D700858BA5CF1C48232226
:1030300004001CC09317370163D80700FD576314C1
:10304000F5009C4091E368C84C5823A02401D1D1DD
:10305000930744046384F50026851929232A040272
:103060008DBF0C508546014626850297FD57E31F0C
:10307000F5F69C40A5DF75476385E70059476395E2
:10308000E70023A02401B1B78357C40093E70704E6
:103090002316F400F2406244D2444249B249056129
:1030A0008280136707042316E400EDB783A90501A6
:1030B000E38109F203A905008D8B23A035013309B3
:1030C0003941014791E3D84918C4E35420F11C5415
:1030D0000C50CA864E8626858297634AA000835785
:1030E000C4007D5593E707042316F40065B7AA9939
:1030F0003309A940D9BF9C49B9CF011122CC06CED2
:103100002A8411C51C4D81E72EC61922B245971796
:103110000000938767F7639BF5004C408397C500D9
:1031200095C722856244F240056149B597170000B2
:10313000938787F76394F5000C44CDB79717000089
:10314000938787F2E39CF5FC4C44C9BFF24062448C
:1031500001450561828001458280411122C406C675
:103160002A842316B5002317C50023200500232237
:103170000500232405002322050623280500232A11
:103180000500232C0500214681451305C505DD3CBE
:10319000970700009387C7785CD097070000938754
:1031A000277B1CD4970700009387677F5CD4971711
:1031B000000093872782B24000D01CD822444101EE
:1031C000828097050000938545F399A2411126C29C
:1031D000130680069384F5FFB384C4024AC02E8987
:1031E00022C406C6938544073D262A8419C9232094
:1031F000050023222501310508C413868406814574
:103200005134B240228522449244024941018280D5
:103210001C4DADE3411122C406C6970700009387F9
:1032200087FA1CD523240504232605042328050436
:1032300083A7C1802A846314F50085471CCD2285AD
:103240001D2848C02285052808C422852D2048C491
:10325000484001469145113708440546A545F53DCE
:1032600048440946C945D53D8547B2401CCC224457
:10327000410182808280411126C283A4C1809C4C7E
:103280004AC006C622C42A8999E326855137938409
:1032900084048044DC40FD1763D607009C40B9CF0E
:1032A0008440C5BF0317C40039E7C17785072322CF
:1032B00004062320040023220400232404005CC409
:1032C00023280400232A0400232C040021468145DE
:1032D0001305C405EFF01F9B232A0402232C0402CC
:1032E0002324040423260404B24022852244924469
:1032F0000249410182801304840671BF91454A85C9
:10330000F13588C02A8449FDB1472320F900E9BF7F
:10331000797122D44AD04ECE52CC5AC85EC606D657
:1033200026D256CA2A892E8A130485048149054B60
:10333000FD5B0444832A4400FD1A63D00A02004066
:103340006DF8B250225492540259624AD24A424B0A
:10335000B24B4E85F2494561828083D7C400637BBE
:10336000FB008397E40063877701A6854A85029A6C
:10337000B3E9A90093848406C1B75971CAD02E89D4
:103380008395E500A2D4A6D286D63284B68463DCC7
:1033900005008357C90023A0040093F707088DE3B5
:1033A0009307004005A030004925E34405FE32475D
:1033B000BD67F98F7977BA9793B717009CC0CDB7DF
:1033C00093070004B6501CC0265496540659014574
:1033D0006561828083D7C500011122CC06CE26CA42
:1033E0004AC8898B2E8489CF930774041CC01CC8DB
:1033F00085475CC8F2406244D244424905618280FC
:10340000740030002A89953FA245AA844A8521226A
:1034100001ED8317C40013F7072069FFF19B93E7C1
:1034200027002316F400C9B7970700009387A7D990
:103430002324F9028357C40008C008C893E707088B
:103440002316F400A2475CC8B24789CF8315E40075
:103450004A85092501C98357C400F19B93E71700EA
:103460002316F4000355C400C98C2316940059B7E1
:10347000D5C183A7C5FF011122CC06CE1384C5FF99
:1034800063D307003E942AC62D2D17D7FF171307C5
:10349000A7BE1C4332453A8681EB2322040000C3B9
:1034A0006244F240056139AD637EF4001440330795
:1034B000D4006396E7009843DC43369718C05CC09D
:1034C00000C2F9BF3E87DC4399C3E37DF4FE144399
:1034D0003306D700631F86001040B29614C333062C
:1034E000D700E39FC7FA9043DC43B29614C35CC392
:1034F00045BF6375C400B1471CC15DB71040B3063A
:10350000C4006396D7009443DC43B29614C05CC0F9
:1035100040C379B78280011126CA93843500F1989F
:103520004AC806CE22CC4EC6A104B1472A8963F50B
:10353000F404B14463E4B4044A85612397D7FF17C8
:10354000938787B39843BE863A8421E417D4FF1744
:103550001304C4B21C4089E781454A85612E08C026
:10356000A6854A85412EFD5963183507B1472320AA
:10357000F9004A85812B31A0E3DE04FAB14723200C
:10358000F9000145F2406244D2444249B249056122
:1035900082801C40858F63CE07022D466376F6003D
:1035A0001CC03E9404C029A05C40631287029CC2E8
:1035B0004A85092B1305B40093074400619933072A
:1035C000F540E301F5FC3A94898F1CC065BF5CC3EC
:1035D000C5B72287404095BF130435007198E303B7
:1035E00085FCB305A4404A853126E31D35FBBDBFEC
:1035F0001C46FD171CC663DA0700184E63C5E700BA
:10360000A9476394F5006FF04FF61C422E8513878F
:10361000170018C22380B7008280011122CC26CA6D
:103620004AC84EC652C406CE2A89AE893284B30433
:10363000D6007D5A63149400014509A8834504000F
:103640004E864A8575370504E31645FFF24062440D
:10365000D2444249B249224A05618280357122CD65
:1036600026CB4AC94EC706CF52C556C35AC1DEDE65
:10367000E2DCE6DAAA89AE843289368401C51C4DC3
:1036800091E3793697170000938707A0639BF40CAA
:1036900083A4490083D7C400A18BF5C79C48E5C724
:1036A00093070002A304F1029307000302D223054B
:1036B000F10222C6930B5002971A0000938ACAA007
:1036C000054C294B4A848347040099C36390770FC4
:1036D000B30C2441630D2401E6864A86A6854E85F7
:1036E0002D3FFD576306F51E9257E6973ED283475E
:1036F0000400638F071CFD571309140002C802CE93
:103700003ECA02CCA309010482D4834509001546B0
:103710005685592EC2471304190059E913F70701BA
:1037200009C713070002A309E10413F7870009C7BB
:103730001307B002A309E104834609001307A0029E
:103740006380E608F2474A84814625460347040021
:1037500093051400130707FD6379E60AB5CA3ECE48
:1037600085A897170000938727946395F40083A496
:1037700089000DB7971700009387078FE39CF4F03B
:1037800083A4C90001BFA6854E85EFF00FEA09D9D1
:103790007D55FA406A44DA444A49BA492A4A9A4A63
:1037A0000A4BF65B665CD65C0D618280050421BF26
:1037B000330555413315AC00C98F3EC82289B1B7D6
:1037C000324793064700184336C6634907023ACE8C
:1037D000034704009307E002631FF7040347140044
:1037E0009307A002631BF702B2470904138747003F
:1037F0009C433AC663C107023ECA35A83307E0407E
:1038000093E727003ACE3EC8E1B7B38767032E841B
:103810008546BA9725BFFD57C5B7050402CA81463C
:10382000814725460347040093051400130707FD4D
:103830006376E606F1F2834504000D461715000095
:1038400013050589952411CD9717000093874788A4
:103850001D8D93070004B397A700424505045D8DB5
:103860002AC88345040019461715000013058586EC
:10387000130914002304B102052C3DC197C7FFF7BB
:103880009387477895E74247B2471377071009CFE8
:1038900091073EC69257D2973ED22DB5B3876703A4
:1038A0002E848546BA97BDBF9D07E19BA107D5B77A
:1038B000780097060000938686D626860C084E85EB
:1038C00097000000E7000000FD572A8AE314F5FC8A
:1038D00083D7C40093F70704E39C07EA125555BD4C
:1038E000780097060000938686D326860C084E85BE
:1038F000CD24D9BF411122C42A842E8523AE018C48
:1039000006C6EFC01FA5FD576316F50083A7C18D3E
:1039100091C31CC0B240224441018280411122C4A3
:103920002E848395E50006C6312B634905007C484B
:10393000AA977CC8B2402244410182808357C400C8
:103940007D777D17F98F2316F400EDB783D7C50077
:10395000011122CC26CA4AC84EC606CE93F70710DC
:10396000AA842E843289B68991C78395E500894659
:10397000014629228357C4007D777D17F98F83156F
:10398000E4002316F4006244F240CE864A86B2492F
:1039900042492685D24405613DA8411122C42E84A6
:1039A0008395E50006C6D928FD570357C400631B5D
:1039B000F500FD77FD17F98F2316F400B24022447D
:1039C000410182808567D98F2316F40068C8FDB74E
:1039D0008395E5003DA0411122C42A842E85B2853D
:1039E000368623AE018C06C6EFC03F9EFD57631698
:1039F000F50083A7C18D91C31CC0B2402244410190
:103A00008280411122C42A842E8523AE018C06C6F1
:103A1000EFC01F87FD576316F50083A7C18D91C3C3
:103A20001CC0B240224441018280411122C42A8438
:103A30002E85B28523AE018C06C6EFC03F86FD57AA
:103A40006316F50083A7C18D91C31CC0B240224408
:103A500041018280411122C42A842E8523AE018C2B
:103A600006C6EFC0BF87FD576316F50083A7C18D5B
:103A700091C31CC0B240224441018280411122C442
:103A80002A842E85B285368623AE018C06C6EFC009
:103A90003F86FD576316F50083A7C18D91C31CC0F7
:103AA000B24022444101828093F5F50F2A966314B7
:103AB000C5000145828083470500E38DB7FE0505FB
:103AC000FDB782808280797152CC9C493A8A9845B0
:103AD00022D426D24ECE56CA06D64AD05AC85EC680
:103AE000AA892E84B284B68A63D3E700BA879CC0C1
:103AF0000347340419C385079CC01C4093F7070291
:103B000081C79C4089079CC0032904001379690080
:103B1000631A0900130B9401FD5B5C449840998F74
:103B2000634CF90483473404B336F0001C4093F728
:103B30000702A5EB13063404D6854E85029AFD577D
:103B40006303F5041C4011469840998B544481440A
:103B50006397C700B384E64063D3040081441C44E8
:103B600018486354F700998FBE94014969047D5B3E
:103B700063982405014509A885465A86D6854E8551
:103B8000029A631E75017D55B25022549254025917
:103B9000F249624AD24A424BB24B456182800509E2
:103BA000ADBF3307D40013060003A301C7040347C6
:103BB000540493871600A2978906A381E7049DBF4A
:103BC00085462286D6854E85029AE30E65FB050959
:103BD00045B7797122D426D24AD04ECE06D652CCE1
:103BE00056CA5AC82E84B6899386350483C5850182
:103BF00093078007AA84328963ECB70093072006F5
:103C000063EDB7006386051C93078005638BF5128F
:103C1000930A24042301B40415A89387D5F993F7D4
:103C2000F70F5546E366F6FE170600001306864DAD
:103C30008A07B2979C43B29782871C43930A240455
:103C4000938647009C4314C32301F404854765A26F
:103C50001C40084313F60708930545000DC21C419C
:103C60000CC363D807001307D002B307F040A301C9
:103C7000E40417060000130666462947A9A013F6B8
:103C800007041C410CC371DEC207C187D9BF1040B5
:103C90001C4313780608138547006305080008C312
:103CA0009C4339A01376060408C37DDA83D7070046
:103CB0001307F00617060000130646426384E50E5C
:103CC0002947A30104044C400CC463C50500084007
:103CD0006D9908C099E3B68A99CDB68AB3F5E70223
:103CE000FD1AB29583C505002380BA00BE85B3D7FF
:103CF000E702E3F5E5FEA147631EF7001C40858B54
:103D000091CB58401C4863C7E70093070003A38F7B
:103D1000FAFEFD1AB386564114C84E87CA86700053
:103D2000A28526854D337D5A631B450D7D55B250C6
:103D3000225492540259F249624AD24A424B456196
:103D40008280A302B40417060000130626390C4033
:103D5000084313F805081C411105630D080208C348
:103D600013F7150001C793E505020CC04147B1FBED
:103D70000C4093F5F5FD0CC0A9B71C4093E7070272
:103D80001CC093078007A302F40417060000130663
:103D9000263675BF13F8050408C3E30308FCC20701
:103DA000C1837DBF214731BF10401C434C4813786D
:103DB0000608138547006306080008C39C438CC3AC
:103DC00001A808C3137606049C4375DA2390B70054
:103DD00023280400B68A91B71C435040814593863E
:103DE000470014C383AA070056857D3901C53305F2
:103DF000554148C05C401CC8A301040439BF1448A5
:103E00005686CA8526858299E30245F31C40898B34
:103E10008DE7B2474844E35CF5F03E8509BF85462F
:103E20005686CA8526858299E30265F1050A5C44B7
:103E30003247998FE345FAFEE9BF014A930A94019C
:103E40007D5BF5B7411122C42A842E85B285368662
:103E500023AE018C06C6EFC06FCBFD576316F5008D
:103E600083A7C18D91C31CC0B2402244410182800E
:103E7000000000000000000001020304060708091A
:103E8000464C41534858495000000000464C4153AD
:103E900048000000494C4D00444452004D434155F8
:103EA00053453A203078256C780D0A004D45504333
:103EB00020203A203078256C780D0A004D54564168
:103EC0004C203A203078256C780D0A0031313A3197
:103ED000363A3531000000004A756C20323020320D
:103EE000303231004E75636C65692053444B20427B
:103EF00075696C642054696D653A2025732C202502
:103F0000730D0A00446F776E6C6F6164204D6F64AF
:103F1000653A2025730D0A0043505520467265719D
:103F200075656E637920256420487A0D0A000000CB
:103F3000803E00088C3E0008943E0008983E000831
:103F40000008014000080140000801400200000094
:103F50000800000004000000020600000206000045
:103F60000206000000010202030303030404040428
:103F700004040404050505050505050505050505F5
:103F800005050505060606060606060606060606D5
:103F900006060606060606060606060606060606C1
:103FA00006060606070707070707070707070707A5
:103FB0000707070707070707070707070707070791
:103FC0000707070707070707070707070707070781
:103FD0000707070707070707070707070707070771
:103FE0000707070708080808080808080808080855
:103FF0000808080808080808080808080808080841
:104000000808080808080808080808080808080830
:104010000808080808080808080808080808080820
:104020000808080808080808080808080808080810
:104030000808080808080808080808080808080800
:1040400008080808080808080808080808080808F0
:1040500008080808080808080808080808080808E0
:104060000808080800000000000000000000000030
:104070000000000000000000000000000000000040
:104080000000000000000000000000000000000030
:104090000000000000000000000000000000000020
:1040A0000000000000000000000000000000000010
:1040B0000000000000000000000000000000000000
:1040C00000000000232D302B20000000686C4C0005
:1040D0006566674546470000303132333435363740
:1040E0003839414243444546000000003031323304
:1040F0003435363738396162636465660000000024
:104100003AFBFFFF50FBFFFF10FBFFFF10FBFFFF21
:1041100010FBFFFF10FBFFFF50FBFFFF10FBFFFF3B
:1041200010FBFFFF10FBFFFF10FBFFFFA8FCFFFFD2
:104130008EFBFFFF7AFCFFFF10FBFFFF10FBFFFF72
:10414000D8FCFFFF10FBFFFF8EFBFFFF10FBFFFF04
:0841500010FBFFFF82FCFFFFE2
:104158000000000084400008A440000864400008F3
:104168000000000000000000000000000000000047
:104178000000000000000000000000000000000037
:104188000000000000000000000000000000000027
:104198000000000000000000000000000000000017
:1041A8000000000000000000000000000000000007
:1041B8004001002000F36F060000002000000020EE
:040000050800015C92
:00000001FF
