:020000040800F2
:100000006F00C0157A4100087A410008E4410008F9
:100010007A4100087A4100087A4100084A3A00080B
:100020007A4100087A4100087A4100087A410008C4
:100030007A4100087A4100087A4100087A410008B4
:100040007A410008000000000000000000000000ED
:1000500000000000000000000000000000000000A0
:100060000000000090800008000000000000000078
:100070000000000000000000000000000000000080
:100080000000000000000000000000000000000070
:100090000000000000000000000000000000000060
:1000A0000000000000000000000000000000000050
:1000B000000000000000000000000000DE7F0008DB
:1000C0001C8000080000000000000000000000008C
:1000D0000000000000000000000000000000000020
:1000E0000000000000000000000000000000000010
:1000F00000000000000000007A4100087A4100087A
:100100007A4100087A4100087A41000800000000A6
:100110007A4100080000000000000000000000001C
:1001200000000000000000000000000000000000CF
:1001300000000000000000000000000000000000BF
:100140007A4100087A410008000000000000000029
:100150000000000000000000000000007370043088
:10016000170500001305C5FF8545F605637BB5003F
:1001700089816378B500170500001305C5002E9529
:10018000028597110018938161851751001813019A
:1001900061E79302002073A0027D97020000938222
:1001A00062E673907230974200009382A2F57390DA
:1001B000C27E73E0C07E974200009382A2EC7390EF
:1001C00052309302F00373B0523073E0513073F049
:1001D0000232170500001305250A970500009385D4
:1001E000A5096300B50217D600001306A62763FA17
:1001F000C5008322050023A0550011059105E3EAFF
:10020000C5FE17D500001305E52597050018938551
:1002100065DF170600181306E6FD63FAC5008322A2
:10022000050023A0550011059105E3EAC5FE170559
:100230000018130525FC974500189385A5AA637738
:10024000B500232005001105E36DB5FEEF10107316
:10025000178500001305E5E8EF70B067EF70D06B0D
:10026000EF20605B01458145EF701016EF20805D47
:0202700001A0EB
:10028000011122CE00102326A4FE97470018938761
:10029000E7A4254798C3FD573E85724405618280D7
:1002A000011122CE00102326A4FE2324B4FE03272E
:1002B000C4FE85476307F7000327C4FE8947631818
:1002C000F700832784FE0967D8C3814701A89747B1
:1002D00000189387A7A0254798C3FD573E85724411
:1002E00005618280011122CE00102326A4FE8547DD
:1002F0003E85724405618280011122CE00102326C2
:10030000A4FE2324B4FE2322C4FE81473E8572440A
:1003100005618280797106D622D40018232EA4FCB0
:10032000232CB4FC232AC4FC8327C4FD99C3FD57A6
:1003300005A0832784FD2326F4FE37550040EF10E7
:10034000F036AA873E878327C4FE2380E7008547CF
:100350003E85B250225445618280011122CE0010A8
:100360002326A4FE97070018938747E7984383271F
:10037000C4FE3E97974700189387C7966360F702BD
:1003800097070018938787E598438327C4FE3E9715
:10039000974700189387074763F4E700FD5705A8C0
:1003A00097070018938787E398438327C4FE3E97F7
:1003B00097070018938787E298C3970700189387D9
:1003C000E7E198438327C4FEB307F040BA973E8520
:1003D000724405618280797106D622D40018232EDA
:1003E000A4FC232CB4FC232AC4FC0325C4FDEF8009
:1003F000D022AA8799E3FD5785A0832784FD232473
:10040000F4FE232604FE89A0032784FE8327C4FE6E
:10041000BA9703C70700A9476317F700B5453755D3
:100420000040EF10F024032784FE8327C4FEBA9710
:1004300083C70700BE8537550040EF107023832720
:10044000C4FE85072326F4FE0327C4FE832744FD4C
:10045000E36CF7FA832744FD3E85B2502254456190
:100460008280011122CE0010F36704302326F4FEAF
:100470000100724405618280011106CE22CC001079
:100480002326A4FEAE873287A305F4FEBA87230590
:10049000F4FE0325C4FEEF20C03D8347B4FEBE85B5
:1004A0000325C4FEEF2080508347A4FEBE850325AC
:1004B000C4FEEF2060580100F24062440561828072
:1004C000011122CE00102326A4FE2324B4FE2322F1
:1004D000C4FEB70701409387074094438327C4FEB7
:1004E00013C7F7FFB707014093870740758F98C37D
:1004F000B70701409387474094438327C4FE13C73F
:10050000F7FFB707014093874740758F98C3B70738
:1005100001409387874094438327C4FE13C7F7FFA6
:10052000B707014093878740758F98C3B70701408D
:100530009387C74094438327C4FE13C7F7FFB707C9
:1005400001409387C740758F98C3832784FE99C75E
:10055000032784FE85476301F7022DA8B7070140F2
:10056000938707409443B7070140938707400327C9
:10057000C4FE558F98C339A8B707014093874740F9
:100580009443B7070140938747400327C4FE558F24
:1005900098C30100032744FE8947630AF70803272D
:1005A00044FE894763E0E70C832744FE99C703278D
:1005B00044FE85476300F70475A0B70701409387A1
:1005C00087409443B7070140938787400327C4FEC1
:1005D000558F98C3B70701409387C740944383273B
:1005E000C4FE13C7F7FFB70701409387C740758F55
:1005F00098C395A8B7070140938787409443832702
:10060000C4FE13C7F7FFB707014093878740758F74
:1006100098C3B70701409387C7409443B707014089
:100620009387C7400327C4FE558F98C32DA8B707EB
:100630000140938787409443B707014093878740E1
:100640000327C4FE558F98C3B70701409387C7405F
:100650009443B70701409387C7400327C4FE558FD3
:1006600098C311A001000100724405618280797174
:1006700022D60018232EA4FCB707014093874741D8
:100680009C430327C4FDF98F2326F4FEB7070140DE
:10069000938707409C430327C4FDF98F2324F4FE6E
:1006A0008327C4FE91C7832784FE99C3854711A081
:1006B00081473E85325445618280011122CE00106F
:1006C0002326A4FEB7070140938747410327C4FEB2
:1006D00098C30100724405618280797122D60018A6
:1006E000232EA4FC232CB4FC232AC4FC2328D4FCF2
:1006F000232404FE232204FE832784FDBD8B2324B0
:10070000F4FE832784FDC18B81CB032784FE8327DE
:1007100044FDD98F2324F4FE231704FE4DA88357EC
:10072000E4FE05473317F700832704FDF98FD9CB83
:100730008327C4FD9C432322F4FE8357E4FE8A07EB
:100740003D47B317F70093C7F7FF032744FEF98F20
:100750002322F4FE8357E4FE8A07032784FEB3179F
:10076000F700032744FED98F2322F4FE032784FDDC
:10077000930780026310F7028357E4FE054733179F
:10078000F7008327C4FDD107BE86832704FDF98FB8
:100790009CC225A0032784FD93078004631FF700F4
:1007A0008357E4FE05473317F7008327C4FDC107CD
:1007B000BE86832704FDF98F9CC28327C4FD0327CF
:1007C00044FE98C38357E4FE85072317F4FE0357BE
:1007D000E4FE9D47E3F5E7F4A1472317F4FE75A86F
:1007E0008357E4FE05473317F700832704FDF98F8D
:1007F000C5C38327C4FD91079C432322F4FE83577E
:10080000E4FEE1178A073D47B317F70093C7F7FFE8
:10081000032744FEF98F2322F4FE8357E4FEE117F9
:100820008A07032784FEB317F700032744FED98FF6
:100830002322F4FE032784FD930780026310F7024E
:100840008357E4FE05473317F7008327C4FDD1071C
:10085000BE86832704FDF98F9CC225A0032784FD53
:1008600093078004631FF7008357E4FE054733179F
:10087000F7008327C4FDC107BE86832704FDF98FD7
:100880009CC28327C4FD91073E87832744FE1CC377
:100890008357E4FE85072317F4FE0357E4FEBD47A4
:1008A000E3F0E7F401000100325445618280011158
:1008B00022CE00102326A4FE2324B4FE8327C4FEE8
:1008C000A1079843832784FEF98F99C3854711A018
:1008D00081473E85724405618280797122D6001875
:1008E000AA872E87A30FF4FCBA87230FF4FC2326D4
:1008F00004FE8347E4FD8D8B8A073D47B317F7005D
:100900002326F4FE0347E4FD8D4763E1E704B707C0
:100910000140A10794438327C4FE13C7F7FFB7071D
:100920000140A107758F98C3B7070140A107944301
:100930000347F4FD8347E4FD8D8B8A073317F700E7
:10094000B7070140A107558F98C3F9A00347E4FDFD
:100950009D4763E1E704B7070140B107944383274C
:10096000C4FE13C7F7FFB7070140B107758F98C3DF
:10097000B7070140B10794430347F4FD8347E4FD03
:100980008D8B8A073317F700B7070140B107558FE2
:1009900098C359A00347E4FDAD4763E1E704B707F7
:1009A0000140C10794438327C4FE13C7F7FFB7076D
:1009B0000140C107758F98C3B7070140C107944331
:1009C0000347F4FD8347E4FD8D8B8A073317F70057
:1009D000B7070140C107558F98C33DA8B70701402D
:1009E000D10794438327C4FE13C7F7FFB70701401D
:1009F000D107758F98C3B7070140D10794430347C8
:100A0000F4FD8347E4FD8D8B8A073317F700B707A2
:100A10000140D107558F98C301003254456182804F
:100A2000011122CE00102326A4FE8327C4FE13D773
:100A30006700B7170240BA9798438327C4FEFD8B1F
:100A40008546B397F6008326C4FE13D66600B71614
:100A50000240B296D98F9CC2010072440561828027
:100A6000011122CE00102326A4FE8327C4FE13D733
:100A70006700B7170240BA9798438327C4FEFD8BDF
:100A80008546B397F6008326C4FE13D66600B716D4
:100A90000240B296D98F9CC20100724405618280E7
:100AA000011122CE00102326A4FE8327C4FE13D7F3
:100AB0006700B7170240BA9798438327C4FEFD8B9F
:100AC0008546B397F60093C7F7FF8326C4FE13D677
:100AD0006600B7160240B296F98F9CC201007244BC
:100AE000056182801971A2DE00012326A4F8232665
:100AF00004FE97C700009387E71A9043D4439847B2
:100B0000DC472322C4FA2324D4FA2326E4FA232838
:100B1000F4FA232E04F8B707030493871720232041
:100B2000F4FA232A04F8B707030493871720232C29
:100B3000F4F8B717024091079C4389838D8B232CCF
:100B4000F4FC032784FD8947630EF702032784FD25
:100B5000894763EBE716832784FD99C7032784FD44
:100B60008547630AF7008DA2B7177A00938707209D
:100B70002324F4FE95A2B7177A0093870720232435
:100B8000F4FE99AAB717024091079843C167F98FFD
:100B9000232AF4FC032744FDC1676310F70AB71743
:100BA0007A00938707202320F4FEB717024093872B
:100BB000C7029843C167F98F2328F4FC032704FD7B
:100BC000C167631AF704B71702409387C7029C43B3
:100BD0009183BD8B85072326F4FCB71702409387CA
:100BE000C7029C43A183BD8B8907232EF4FC0327F6
:100BF000C4FDC5476315F700D147232EF4FC032736
:100C000004FE8327C4FCB357F7020327C4FDB307D0
:100C1000F7022320F4FEB71702409387C7029C43D4
:100C2000BD8B85072324F4FC032704FE832784FC63
:100C3000B357F7022320F4FE39A0B7173D0093877E
:100C400007902320F4FEB717024091079C43C98305
:100C5000BD8B2322F4FEB717024091079843B707D4
:100C60000020F98F99C7832744FE93E707012322C9
:100C7000F4FE032744FEB94763E8E700832744FEF8
:100C800089072322F4FE31A0832744FE850723220F
:100C9000F4FE032704FE832744FEB307F702232450
:100CA000F4FE032744FEBD476317F702032704FE43
:100CB000BA878607BA9786073E87832704FE85830F
:100CC000BA972324F4FE01A8B7177A009387072068
:100CD0002324F4FE11A00100B717024091079C43A2
:100CE0009183BD8B2322F4FC832744FC130704FF6C
:100CF000BA9783C747FB2320F4FC832704FC032710
:100D000084FEB357F700232EF4FAB7170240910779
:100D10009C43A1839D8B2322F4FC832744FC13076F
:100D200004FFBA9783C7C7FA2320F4FC832704FC87
:100D30000327C4FBB357F700232CF4FAB71702407C
:100D400091079C43AD839D8B2322F4FC832744FCB5
:100D5000130704FFBA9783C747FA2320F4FC8327BD
:100D600004FC0327C4FBB357F700232AF4FA032734
:100D7000C4F88D476309F7040327C4F88D4763E976
:100D8000E7040327C4F88947630AF7020327C4F876
:100D9000894763EFE7028327C4F899C70327C4F89C
:100DA00085476308F7002DA0832784FE2326F4FEE1
:100DB0000DA08327C4FB2326F4FE21A8832784FBF0
:100DC0002326F4FE39A0832744FB2326F4FE11A03A
:100DD00001008327C4FE3E8576540961828001119B
:100DE00006CE22CC00102326A4FE0327C4FEB7376C
:100DF0000140938707C06305F70A0327C4FEB7378E
:100E00000140938707C063EEE70E0327C4FEB717C0
:100E1000004093870740630FF70C0327C4FEB71702
:100E200000409387074063EEE70C0327C4FEB71723
:100E30000040630AF70A0327C4FEB717004063E2C5
:100E4000E70C0327C4FEB7170040938707C063056C
:100E5000F7080327C4FEB7170040938707C063E273
:100E6000E70A0327C4FEB717004093870780630E85
:100E7000F7040327C4FEB71700409387078063E297
:100E8000E7080327C4FEB70700406302F702032701
:100E9000C4FEB7070040938707406301F70295A09F
:100EA0001305B030753E1305B030DD3EA1A8130523
:100EB00000407D3613050040E536A9A0130510401B
:100EC000453613051040E93E35A813052040493E3C
:100ED00013052040F1363DA013053040513613056F
:100EE00030407D3E05A0130540409D3E1305404027
:100EF000453E09A813055040A536130550404D3610
:100F000011A001000100F2406244056182800111DC
:100F100022CE00102326A4FE8327C4FE23900700C0
:100F20008327C4FE239107008327C4FE2392070072
:100F30008327C4FE41677D1798C78327C4FE239685
:100F400007008327C4FE2387070001007244056160
:100F50008280011122CE00102326A4FE2324B4FE99
:100F6000832784FE03D707008327C4FE9387870265
:100F700098C30327C4FEB7370140938707C06300B7
:100F8000F7040327C4FEB7070040630AF7020327EC
:100F9000C4FEB7070040938707406302F7020327A8
:100FA000C4FEB717004093870780630AF700032742
:100FB000C4FEB7170040938707C06315F704832763
:100FC000C4FE98438327C4FE1377F7F898C383279A
:100FD000C4FE9443832784FE83D7270013F70706B4
:100FE0008327C4FE558F98C38327C4FE9443832769
:100FF00084FE83D7470013F707018327C4FE558F6C
:1010000098C32DA08327C4FE98438327C4FE3D9B2D
:1010100098C38327C4FE9443832784FE83D7470065
:1010200013F707018327C4FE558F98C38327C4FE97
:101030009387C7023E87832784FE9C471CC30327F0
:10104000C4FEB7170040630FF7020327C4FEB717AB
:101050000040938707406307F7028327C4FE984345
:101060008327C4FE1377F7CF98C38327C4FE944326
:10107000832784FE83D7C70013F707308327C4FE76
:10108000558F98C30327C4FEB7370140938707C025
:10109000631BF700832784FE03C7E7008327C4FE92
:1010A0009387070398C38327C4FED1079C43032774
:1010B000C4FE510793E717001CC301007244056189
:1010C0008280011122CE00102326A4FE8327C4FEB5
:1010D00098438327C4FE1367170098C30100724426
:1010E00005618280011122CE00102326A4FE8327F1
:1010F000C4FE239007008327C4FE239107008327A3
:10110000C4FE239207008327C4FE2393070083278E
:10111000C4FE239407008327C4FE23950700010023
:10112000724405618280011122CE00102326A4FEA4
:10113000AE872322C4FE2315F4FE8357A4FE0D4779
:10114000638CE7440D476342F7520947638DE72CF0
:101150000947634CF75089C705476381E71631A3F8
:101160008327C4FE938707029C430327C4FE13070B
:101170000702F99B1CC38327C4FE938707029C4385
:10118000032744FE03570700BA860327C4FE13074C
:101190000702D58F1CC38327C4FE938707029C4395
:1011A0000327C4FE13070702F59B1CC38327C4FE55
:1011B000938707029C43032744FE03574700BA86E0
:1011C0000327C4FE13070702D58F1CC30327C4FEE1
:1011D000B7370140938707C06318F70C8327C4FE15
:1011E000938707029C430327C4FE13070702ED9B66
:1011F0001CC38327C4FE938707029C43032744FE36
:1012000003572700BA860327C4FE13070702D58FAA
:101210001CC38327C4FE938707029C430327C4FE95
:1012200013070702DD9B1CC38327C4FE93870702B5
:101230009C43032744FE03576700BA860327C4FE76
:1012400013070702D58F1CC38327C4FE91079C4355
:101250000327C4FE110793F7F7EF1CC38327C4FECF
:1012600091079C43032744FE03578700BA86032750
:10127000C4FE1107D58F1CC38327C4FE91079C436E
:101280000327C4FE110793F7F7DF1CC38327C4FEAF
:1012900091079C43032744FE0357A700BA86032700
:1012A000C4FE1107D58F1CC38327C4FEE1079C43EE
:1012B0000327C4FE6107F19B1CC34DAE8327C4FE08
:1012C000938707029C430327C4FE13070702BD9BB5
:1012D0001CC38327C4FE938707029843832744FED9
:1012E00083D7070092078326C4FE93860602D98F10
:1012F0009CC28327C4FE938707029C430327C4FE36
:101300001307070293F7F7FD1CC38327C4FE9387D7
:1013100007029843832744FE83D74700920783261A
:10132000C4FE93860602D98F9CC20327C4FEB7373A
:101330000140938707C0631DF70C8327C4FE938782
:1013400007029C430327C4FE1307070293F7F7FB2A
:101350001CC38327C4FE938707029843832744FE58
:1013600083D7270092078326C4FE93860602D98F6F
:101370009CC28327C4FE938707029C430327C4FEB5
:101380001307070293F7F7F71CC38327C4FE93875D
:1013900007029843832744FE83D76700920783267A
:1013A000C4FE93860602D98F9CC28327C4FE910790
:1013B0009C430327C4FE110793F7F7BF1CC3832781
:1013C000C4FE91079843832744FE83D787008A078A
:1013D0008326C4FE9106D98F9CC28327C4FE910741
:1013E00098438327C4FE9107BE86FD779387F77FD6
:1013F000F98F9CC28327C4FE91079843832744FE3C
:1014000083D7A7008A078326C4FE9106D98F9CC282
:101410008327C4FEE1079C430327C4FE610793F7BB
:10142000F7CF1CC3A1A48327C4FE938707029C4364
:101430000327C4FE1307070293F7F7EF1CC38327A4
:10144000C4FE938707029843832744FE83D707008F
:10145000A2078326C4FE93860602D98F9CC28327E7
:10146000C4FE938707029C430327C4FE13070702A9
:1014700093F7F7DF1CC38327C4FE938707029843C3
:10148000832744FE83D74700A2078326C4FE9386A2
:101490000602D98F9CC20327C4FEB7370140938749
:1014A00007C06311F70E8327C4FE938707029C438E
:1014B0000327C4FE1307070293F7F7BF1CC3832754
:1014C000C4FE938707029843832744FE83D72700EF
:1014D000A2078326C4FE93860602D98F9CC2832767
:1014E000C4FE9387070298438327C4FE93870702AD
:1014F000BE86FD779387F77FF98F9CC28327C4FE52
:10150000938707029843832744FE83D76700A20787
:101510008326C4FE93860602D98F9CC28327C4FE0D
:10152000910798438327C4FE9107BE86FD77FD1778
:10153000F98F9CC28327C4FE91079843832744FEFA
:1015400083D7870092078326C4FE9106D98F9CC259
:101550008327C4FE910798438327C4FE9107BE8664
:10156000F977FD17F98F9CC28327C4FE9107984332
:10157000832744FE83D7A70092078326C4FE9106E3
:10158000D98F9CC28327C4FEF1079C430327C4FE66
:101590007107F19B1CC3D9A88327C4FE9387070258
:1015A00098438327C4FE93870702BE86FD77FD1705
:1015B000F98F9CC28327C4FE938707029843832731
:1015C00044FE83D70700B2078326C4FE9386060233
:1015D000D98F9CC28327C4FE938707029843832731
:1015E000C4FE93870702BE86F977FD17F98F9CC268
:1015F0008327C4FE938707029843832744FE83D73B
:101600004700B2078326C4FE93860602D98F9CC288
:101610000327C4FEB7370140938707C0631CF70256
:101620008327C4FE910798438327C4FE9107BE8693
:10163000F177FD17F98F9CC28327C4FE9107984369
:10164000832744FE83D787009A078326C4FE91062A
:10165000D98F9CC28327C4FEF1079C430327C4FE95
:10166000710793F7F7CF1CC311A00100010072446A
:1016700005618280011122CE00102326A4FEAE87D0
:1016800032872315F4FEBA872314F4FE8357A4FE91
:101690000D476385E70A0D47634BF70C09476389DC
:1016A000E70609476345F70C89C705476389E702E1
:1016B0007DA88327C4FEE1079C430327C4FE61077E
:1016C00093F7F7F81CC38327C4FEE10798438357B9
:1016D00084FE8326C4FEE106D98F9CC251A88327CD
:1016E000C4FEE10798438327C4FEE107BE86E57781
:1016F000FD17F98F9CC28327C4FEE10798438357E7
:1017000084FEA2078326C4FEE106D98F9CC28DA069
:101710008327C4FEF1079C430327C4FE710793F798
:10172000F7F81CC38327C4FEF1079843835784FE50
:101730008326C4FEF106D98F9CC21DA88327C4FE50
:10174000F10798438327C4FEF107BE86E577FD17AE
:10175000F98F9CC28327C4FEF1079843835784FE08
:10176000A2078326C4FEF106D98F9CC211A00100F6
:101770000100724405618280011122CE00102326EF
:10178000A4FEAE872322C4FE2315F4FE8357A4FED5
:101790000D47638BE7040D476341F7060947638CE8
:1017A000E7020947634BF70489C70547638CE700E5
:1017B000A9A08327C4FE938747033E87832744FE5F
:1017C0001CC32DA88327C4FE938787033E878327E6
:1017D00044FE1CC325A08327C4FE9387C7033E870E
:1017E000832744FE1CC319A88327C4FE93870704DC
:1017F0003E87832744FE1CC311A0010001007244F0
:1018000005618280011122CE00102326A4FEAE873E
:1018100032872315F4FEBA872314F4FE8357A4FEFF
:101820000D476384E70A0D47634BF70C094763894B
:10183000E70609476345F70C89C705476388E70250
:101840007DA88327C4FEE1079C430327C4FE6107EC
:10185000DD9B1CC38327C4FEE1079843835784FEA6
:101860008326C4FEE106D98F9CC259A88327C4FEF3
:10187000E10798438327C4FEE107BE86FD7793877F
:10188000F77FF98F9CC28327C4FEE10798438357F3
:1018900084FEA2078326C4FEE106D98F9CC28DA0D8
:1018A0008327C4FEF1079C430327C4FE7107DD9B19
:1018B0001CC38327C4FEF1079843835784FE832605
:1018C000C4FEF106D98F9CC225A88327C4FEF10768
:1018D00098438327C4FEF107BE86FD779387F77F81
:1018E000F98F9CC28327C4FEF1079843835784FE77
:1018F000A2078326C4FEF106D98F9CC211A0010065
:101900000100724405618280011122CE001023265D
:10191000A4FE2324B4FE8327C4FEB1079843832783
:10192000C4FEB107BE86832784FED98F9CC2010006
:10193000724405618280797122D60018232EA4FC9E
:10194000232CB4FC8327C4FDB1079C43032784FDEB
:10195000F98F2326F4FE8327C4FDC107984383270C
:1019600084FDF98F91C78327C4FE99C3854711A0D1
:1019700081473E85325445618280011122CE00109C
:101980002326A4FE2324B4FE8327C4FEC1073E877A
:10199000832784FE93C7F7FF1CC3010072440561CF
:1019A0008280011106CE22CC00102326A4FE03273C
:1019B000C4FEB7470140938707806307F7060327F4
:1019C000C4FEB74701409387078063ECE70A03270B
:1019D000C4FEB7570040630DF7080327C4FEB7578E
:1019E000004063E0E70A0327C4FEB757004093872F
:1019F00007C06306F7060327C4FEB7570040938766
:101A000007C063E0E7080327C4FEB7470040938799
:101A100007406304F7020327C4FEB75700409387CB
:101A200007806305F702B1A81305E030EFF04F839C
:101A30001305E030EFF0CF86B1A013051041EFF0B1
:101A40002F8213051041EFF0AF852DA8130520411B
:101A5000EFF00F8113052041EFF08F8425A01305CF
:101A60003041EFE0FFFF13053041EFF06F8319A81D
:101A700013054041EFE0DFFE13054041EFF04F82D8
:101A800011A001000100F240624405618280797179
:101A900006D622D40018232EA4FC232CB4FC232623
:101AA00004FE232404FE232204FE232004FE032735
:101AB000C4FDB7470140938707806307F7060327F4
:101AC000C4FDB74701409387078063EDE70803270C
:101AD000C4FDB75700406301F7080327C4FDB7579B
:101AE000004063E1E7080327C4FDB7570040938730
:101AF00007C0630DF7040327C4FDB7570040938761
:101B000007C063E1E7060327C4FDB747004093879A
:101B100007406301F7020327C4FDB75700409387CE
:101B20000780630FF7003DA80D45EFE0BFFB2326BC
:101B3000A4FE15A80945EFE0FFFA2326A4FE25A080
:101B40000945EFE03FFA2326A4FE31A80945EFE05E
:101B50007FF92326A4FE01A80945EFE0BFF823265C
:101B6000A4FE11A00100832784FD13D7170083274B
:101B7000C4FE3E97832784FDB357F7022320F4FE6B
:101B8000032704FEC167C117F98F2324F4FE8327BE
:101B900004FEBD8B2322F4FE032784FE832744FE2C
:101BA0005D8F8327C4FDA107BE86C167FD17F98F2E
:101BB0009CC20100B250225445618280011122CEA4
:101BC00000102326A4FE2324B4FE8327C4FEB107FD
:101BD0009C430327C4FE310793F7F79F1CC3832759
:101BE000C4FEB10798438327C4FEB107BE8683278E
:101BF00084FED98F9CC2010072440561828001116C
:101C000022CE00102326A4FE2324B4FE8327C4FE84
:101C1000B10798438327C4FEB107BE86FD77FD1741
:101C2000F98F9CC28327C4FEB10798438327C4FE63
:101C3000B107BE86832784FED98F9CC201007244FF
:101C400005618280011122CE00102326A4FE2324E8
:101C5000B4FE8327C4FEC10798438327C4FEC1078F
:101C6000BE86F577FD17F98F9CC28327C4FEC10796
:101C700098438327C4FEC107BE86832784FED98F7D
:101C80009CC20100724405618280011122CE0010C5
:101C90002326A4FE8327C4FEB10798438327C4FEEE
:101CA000B107BE868967D98F9CC201007244056165
:101CB0008280797122D60018232EA4FC232CB4FC38
:101CC000232604FE8327C4FDB1079C432326F4FE8C
:101CD0008327C4FEDD9B2326F4FE0327C4FE83274F
:101CE00084FDD98F2326F4FE8327C4FDB1073E87E8
:101CF0008327C4FE1CC30100325445618280797180
:101D000022D60018232EA4FC232CB4FC232604FE88
:101D10008327C4FDB1079C432326F4FE8327C4FE1A
:101D2000ED9B2326F4FE0327C4FE832784FDD98F71
:101D30002326F4FE8327C4FDB1073E878327C4FE14
:101D40001CC30100325445618280011122CE001073
:101D50002326A4FE2324B4FE8327C4FE91073E87D6
:101D6000832784FE93F7F71F1CC3010072440561AB
:101D70008280011122CE00102326A4FE8327C4FEF8
:101D800091079C43C207C18393F7F71FC207C18322
:101D90003E85724405618280797122D60018232E17
:101DA000A4FC232CB4FC232604FE8327C4FDD10706
:101DB0009C432326F4FE8327C4FE93F7F7EF2326E4
:101DC000F4FE0327C4FE832784FDD98F2326F4FE67
:101DD0008327C4FDD1073E878327C4FE1CC30100AF
:101DE000325445618280797122D60018232EA4FCDA
:101DF000232CB4FC232604FE8327C4FDD1079C4377
:101E00002326F4FE8327C4FE93F7F7DF2326F4FE90
:101E10000327C4FE832784FDD98F2326F4FE83275E
:101E2000C4FDD1073E878327C4FE1CC30100325482
:101E300045618280011122CE00102326A4FE2324B6
:101E4000B4FE832784FE998313F7F73F8327C4FEEC
:101E5000BA979843832784FEFD8BB357F700858B91
:101E600099C3854711A081473E85724405618280F0
:101E7000011106CE22CC00102326A4FE2324B4FE9A
:101E8000832784FE93F7F70FBE850325C4FE753DB7
:101E900001009D450325C4FE713FAA87FDDB832712
:101EA00084FE3E85F240624405618280011106CEC7
:101EB00022CC00102326A4FE010095450325C4FE74
:101EC000953FAA87FDDB0325C4FE6535AA8793F7F6
:101ED000F70F3E85F240624405618280411122C6BF
:101EE000000897E7FF179387A72F9C4389833E85B8
:101EF000324441018280397106DE22DC26DA80001C
:101F00002326A4FCE13F2326A4FEB70700D1984373
:101F1000DC432324E4FEB70700D19843DC432322AB
:101F2000E4FEF32700B0BE84A6872320F4FE032737
:101F300044FE832784FEE300F7FEB70700D19843F1
:101F4000DC43832744FEB307F740232EF4FCF3273A
:101F500000B0BE842687832704FEB307F740232CF6
:101F6000F4FC0327C4FD8327C4FCE368F7FC0327C4
:101F700084FD8327C4FD3357F7028327C4FE33074C
:101F8000F702832684FD8327C4FDB3F6F602832778
:101F9000C4FEB386F6028327C4FDB3D7F602BA9710
:101FA0003E85F2506254D25421618280011106CEE6
:101FB00022CC001005458137130540062D3F23260E
:101FC000A4FE8327C4FE3E85F24062440561828000
:101FD000011122CE0010232604FE232404FEB7178D
:101FE00002409443B71702404167558F98C3832737
:101FF000C4FE85072326F4FEB71702409843B707AF
:102000000200F98F2324F4FE832784FE99E7032737
:10201000C4FEC167FD17E31CF7FCB71702409843E5
:10202000B7070200F98F91E301A0B71702401387A9
:102030004700B71702409107184398C3B7170240EB
:1020400013874700B71702409107184398C3B71783
:10205000024091079843B717024091071367074062
:1020600098C3B717024091079443B71702409107EE
:102070003707C4DF7D17758F98C3B71702409107E4
:102080009443B7170240910737072920558F98C30B
:10209000B71702409387C7029443B717024093874C
:1020A000C7023D77758F98C3B71702409387C70261
:1020B0009443B71702409387C7024167130717F18C
:1020C000558F98C3B71702409443B717024037079C
:1020D0000004558F98C30100B71702409843B70713
:1020E0000008F98FF5DBB71702409443B717024099
:1020F00037070010558F98C30100B7170240984367
:10210000B7070020F98FF5DBB71702409443B717E4
:10211000024037070001558F98C30100B7170240EE
:102120009843B7070002F98FF5DBB7170240910714
:102130009843B71702409107719B98C3B7170240A5
:1021400091079843B717024091071367270098C378
:102150000100B717024091079C43A18BFDDB0100F2
:102160000100724405618280411106C622C4000844
:1021700085350100B240224441018280411106C6EA
:1021800022C40008B71702409843B71702401367EC
:10219000170098C3B717024091079443B71702403E
:1021A00091073707FFE03107758F98C3B7170240D3
:1021B0009443B71702403707F7FE7D17758F98C312
:1021C000B71702409443B71702403707FCFF7D174B
:1021D000758F98C3B717024091079443B717024011
:1021E0009107370701DF7D17758F98C3B717024036
:1021F0009387C70223A00700B71702409443B7177D
:1022000002403707F7EA7D17758F98C3B71702406A
:10221000A1073707FF0098C3813F0100B240224465
:1022200041018280011106CE22CC00102326A4FE9B
:102230002324B4FE8325C4FE17B50000130545A969
:10224000EF60502AF3271034BE808687BE8517B50D
:1022500000001305E5A8EF60F028F3273034BE80B6
:102260008687BE8517B50000130585A8EF60902707
:1022700001A0011122CE0010232604FE0DA0170795
:102280000000130767FA9386C18D8327C4FE8A076F
:10229000B69798C38327C4FE85072326F4FE032739
:1022A000C4FEB147E3DDE7FC0100010072440561B3
:1022B0008280797106D622D40018232EA4FC232C08
:1022C000B4FC0327C4FD8567FD17F98F2324F4FEB2
:1022D000032784FEAD4763ECE7001387C18D832796
:1022E00084FE8A07BA979C432326F4FE1DA0032789
:1022F00084FE8567FD176318F7009387C18D9C5B8B
:102300002326F4FE39A0970700009387E7F12326E0
:10231000F4FE8327C4FE81CB8327C4FE832584FD7E
:102320000325C4FD829781473E85B2502254456102
:102330008280011106CE22CC001097B7000093874F
:1023400067A29043D4439847DC472320C4FE23224E
:10235000D4FE2324E4FE2326F4FE17B60000130661
:10236000269A97B500009385659A17B50000130566
:10237000A59AEF603017832704FEBE8517B50000CD
:102380001305859BEF60101697E7FF17938747E5C6
:102390009C43BE8517B500001305459BEF60901464
:1023A0000100F240624405618280011122CE0010DA
:1023B000A30504FEB70700D20347B4FEA385E700D8
:1023C000010091472326F4FEB70700D283C7070018
:1023D00013F7F70FB70700D2059B1377F70F23808A
:1023E000E700B70700D283C7070093F7F70F1397EB
:1023F000870161878327C4FE93F7F70F860793F75A
:10240000F70FE207E187F98BE207E187D98F13978E
:1024100087016187B70700D21377F70F2380E700A2
:10242000010001007244056182801971A2DEA6DC00
:1024300000012326A4F82322C4F82320F4F8AE8751
:10244000A305F4F8B6872305F4F8BA87A304F4F8D3
:102450000327C4F89307700563ECE7000347B4F85B
:10246000854763E7E700032744F88D4763F4E700F7
:10247000FD5769AE8347B4F80327C4F82326E4FA6E
:102480002324F4FA370700D28327C4FA938707403E
:102490008A07BA9783C7270093F7F70FB70600D2CA
:1024A000F99B13F7F70F8327C4FA938707408A072E
:1024B000B6972381E700370700D28327C4FA9387B2
:1024C00007408A07BA9783C7270013F7F70F8327B8
:1024D00084FA93F7F70FB70600D2D98F13F7F70FE7
:1024E0008327C4FA938707408A07B6972381E700BA
:1024F00001008327C4F8232AF4FA832744F8232809
:10250000F4FA370700D2832744FB938707408A07F2
:10251000BA9783C7270093F7F70FB70600D2E59B5A
:1025200013F7F70F832744FB938707408A07B69773
:102530002381E700370700D2832744FB93870740B6
:102540008A07BA9783C7270013F7F70F832704FB7F
:1025500093F7F70F860793F7F70FB70600D2D98FD7
:1025600013F7F70F832744FB938707408A07B69733
:102570002381E70001008327C4F82328F4FC834764
:10258000A4F8A307F4FCB70700D283C7070093F7AA
:10259000F70F8583BD8B2307F4FC9147A306F4FC5A
:1025A0008347E4FCF1C70347E4FC8347D4FC63F6AC
:1025B000E7008347D4FC2307F4FC8347E4FC05478A
:1025C000B317F70093F7F70FFD172306F4FC034743
:1025D000F4FC8347C4FC63F6E7008347C4FCA3070D
:1025E000F4FC0347F4FC8347E4FCA146B387F640C0
:1025F000B317F700A305F4FC832704FD2322F4FCA2
:10260000370700D2832744FC938707408A07BA978D
:1026100083C7370093F7F70FA301F4FC034734FC9B
:102620008347E4FCB317F700A301F4FC034734FC31
:102630008347E4FCB357F740A301F4FC0347B4FC21
:10264000834734FCD98F93F7F70F032704FD232E1C
:10265000E4FAA30DF4FA370700D28327C4FB93876B
:1026600007408A07BA970347B4FBA381E70011A08C
:1026700001008327C4F82326F4FE834794F8A305BA
:10268000F4FEB70700D283C7070093F7F70F8583DF
:10269000BD8B2305F4FE9147A304F4FE0347A4FE7B
:1026A000834794FE6376F70E034794FE8347A4FEA8
:1026B000B307F7400547B317F70093F7F70FFD1778
:1026C0002304F4FE0347B4FE834784FE63F6E70069
:1026D000834784FEA305F4FE0347B4FE834794FEBC
:1026E000A146B387F640B317F700A305F4FE83476E
:1026F00094FE1307F00FB357F740A303F4FE03470C
:10270000B4FE834774FED98FA305F4FE8327C4FE6D
:102710002320F4FE370700D2832704FE9387074067
:102720008A07BA9783C7370093F7F70FA30FF4FC14
:102730000347F4FD8347A4FEA146B387F640B35791
:10274000F740A30FF4FC0347F4FD8347A4FEA14622
:10275000B387F640B317F700A30FF4FC0347B4FEAA
:102760008347F4FDD98F93F7F70F0327C4FE232C7B
:10277000E4FCA30BF4FC370700D2832784FD938786
:1027800007408A07BA97034774FDA381E700010059
:102790000100832704F89DCB832704F80327C4F89E
:1027A0002322E4FA2320F4FAF3277030BE84A687AC
:1027B000232CF4F8832744FA8A073E87832784F979
:1027C000BA973E87832704FA1CC301008327C4F805
:1027D000232EF4F8370700D28327C4F993870740E4
:1027E0008A07BA9783C7170093F7F70FB70600D287
:1027F00093E7170013F7F70F8327C4F99387074070
:102800008A07B697A380E700010081473E8576548A
:10281000E65409618280411106C622C40008EFF027
:10282000EFF82A8797E7FF179387879B98C3375559
:1028300000402925FD3C353C8D3E0100B24022443C
:1028400041018280011122CE00102326A4FE010046
:10285000724405618280411122C6000801003244A1
:1028600041018280411122C6000801003244410129
:102870008280011122CE00102326A4FE8327C4FEED
:1028800013972700B71700D28507BA973E87854769
:102890002300F7000100724405618280011122CEFD
:1028A00000102326A4FEAE87A305F4FE8327C4FEF2
:1028B00013972700B71700D28D07BA973E87834733
:1028C000B4FE2300F700010072440561828001110B
:1028D00022CE00102326A4FE8327C4FE13972700D0
:1028E000B71700D28D07BA9783C7070093F7F70F82
:1028F0003E85724405618280011122CE0010AA87B4
:10290000A307F4FEB70700D20347F4FE2380E700D5
:102910000100724405618280411122C60008B70798
:1029200000D283C7070093F7F70F3E853244410179
:102930008280797106D622D40018AA87A30FF4FCEE
:102940008347F4FD8607A307F4FEF937AA87230718
:10295000F4FE8347E4FE859B13F7F70F8347F4FEED
:10296000F98B93F7F70FD98FA306F4FE8347D4FEB4
:102970003E8559370100B2502254456182800111D1
:1029800006CE22CC0010493FAA87A307F4FE834756
:10299000F4FE858393F7F70FBD8BA307F4FE8347FF
:1029A000F4FE3E85F240624405618280797106D66C
:1029B00022D40018232EA4FCAE87A30DF4FCC1374B
:1029C000AA87A307F4FE0347F4FE914763F5E700E7
:1029D0009147A307F4FE0347B4FD8347F4FEA146E5
:1029E000B387F640B317F7002307F4FE0325C4FDB1
:1029F000F93DAA87A306F4FE0347D4FE8347F4FEFD
:102A0000B317F700A306F4FE0347D4FE8347F4FE92
:102A1000B357F740A306F4FE0347D4FE8347E4FE12
:102A2000D98F93F7F70FBE850325C4FD853D0100BF
:102A3000B250225445618280797106D622D40018A2
:102A4000232EA4FCAE87A30DF4FC153FAA87A30791
:102A5000F4FE0347F4FE8D4763F7E7009147A307B1
:102A6000F4FE8147B9A88347B4FD9207A30DF4FC97
:102A70000325C4FDA93DAA872307F4FE0347E4FE0E
:102A80008347F4FEA146B387F640B357F7402307C8
:102A9000F4FE0347E4FE8347F4FEA146B387F64005
:102AA000B317F7002307F4FE0347E4FE8347B4FDA2
:102AB000D98F93F7F70FBE850325C4FDC533834730
:102AC000B4FD3E85B250225445618280011106CE8C
:102AD00022CC00102326A4FE17A700001307072B03
:102AE0008327C4FE8A07BA979C433E85EFD05FF3E5
:102AF00017A70000130707288327C4FE8A07BA9781
:102B0000884317A700001307A7278327C4FE8A0757
:102B1000BA979C43BE860D46C145EFD01FBC17A790
:102B20000000130727258327C4FE8A07BA979C4312
:102B3000C107BE8617A70000130787248327C4FE9A
:102B40008A07BA979C439CC20100F2406244056127
:102B500082801D7186CEA2CC80102326A4FA232465
:102B6000B4FA930720603E85EFD09FEB1305006019
:102B7000EFD01FEBB7170140938707800547BA8650
:102B80000D4691453E85EFD05FB5032784FA854712
:102B9000631AF726E547232AF4FA370700D283277A
:102BA00044FB938707408A07BA9783C7170093F7B8
:102BB000F70FB70600D293E7170013F7F70F832735
:102BC00044FB938707408A07B697A380E70001007C
:102BD000E5472328F4FC8547A307F4FCB70700D298
:102BE00083C7070093F7F70F8583BD8B2307F4FC9A
:102BF0009147A306F4FC8347E4FCF1C70347E4FCD8
:102C00008347D4FC63F6E7008347D4FC2307F4FC36
:102C10008347E4FC0547B317F70093F7F70FFD1759
:102C20002306F4FC0347F4FC8347C4FC63F6E70087
:102C30008347C4FCA307F4FC0347F4FC8347E4FC8C
:102C4000A146B387F640B317F700A305F4FC83272A
:102C500004FD2322F4FC370700D2832744FC93872A
:102C600007408A07BA9783C7370093F7F70FA30186
:102C7000F4FC034734FC8347E4FCB317F700A301DB
:102C8000F4FC034734FC8347E4FCB357F740A3014B
:102C9000F4FC0347B4FC834734FCD98F93F7F70F58
:102CA000032704FD232EE4FAA30DF4FA370700D21C
:102CB0008327C4FB938707408A07BA970347B4FB6F
:102CC000A381E70011A00100E5472326F4FE854714
:102CD000A305F4FEB70700D283C7070093F7F70FE9
:102CE0008583BD8B2305F4FE9147A304F4FE0347BF
:102CF000A4FE834794FE6376F70E034794FE834752
:102D0000A4FEB307F7400547B317F70093F7F70F93
:102D1000FD172304F4FE0347B4FE834784FE63F6E5
:102D2000E700834784FEA305F4FE0347B4FE834710
:102D300094FEA146B387F640B317F700A305F4FE4F
:102D4000834794FE1307F00FB357F740A303F4FE35
:102D50000347B4FE834774FED98FA305F4FE83278F
:102D6000C4FE2320F4FE370700D2832704FE938796
:102D700007408A07BA9783C7370093F7F70FA30F67
:102D8000F4FC0347F4FD8347A4FEA146B387F64055
:102D9000B357F740A30FF4FC0347F4FD8347A4FEA9
:102DA000A146B387F640B317F700A30FF4FC03471F
:102DB000B4FE8347F4FDD98F93F7F70F0327C4FEC2
:102DC000232CE4FCA30BF4FC370700D2832784FDFB
:102DD000938707408A07BA97034774FDA381E700EA
:102DE0000100010081470147BA853E85EFD0FFAE63
:102DF0008547054681453E85EFD08FEC85473E856A
:102E0000EFD0BF8B0100F64066442561828001113E
:102E100006CE22CC00102326A4FEB71701409387CC
:102E200007800547BA853E85EFD07FA8AA8793F72C
:102E3000F70F3E85F240624405618280011106CEA3
:102E400022CC00102326A4FE13054060EFD05FBD06
:102E500013055060EFD0DFBC13054071EFD05FBCAD
:102E600085660D46E14537150140EFD01F87914635
:102E70000D469145B717014013850740EFD0FF85F8
:102E80000325C4FEEFE0FFB1F1679385072003251A
:102E9000C4FEEFE0DFBF81450325C4FEEFE03FD66F
:102EA00081450325C4FEEFE0FFD981450325C4FE1B
:102EB000EFE0DFD081450325C4FEEFE0FFED814563
:102EC0000325C4FEEFE03FF291450325C4FEEFE089
:102ED0001FE3A1450325C4FEEFE0BFDD0325C4FECB
:102EE000EFE0BFDA0100F24062440561828039718F
:102EF00006DE22DC80002326A4FC232204FEEF3021
:102F0000E01D97D7FF179387672F9C4391E3352EDA
:102F100097D7FF179387C72F98438327C4FCF98F50
:102F20006396071C8327C4FCB1C7A1470327C4FCD1
:102F3000BA972326F4FC8327C4FC9D8B85CF832777
:102F4000C4FCE19BA1072326F4FC8327C4FC9D8BD2
:102F500095C39387C18083C70700A30FF4FCB7070D
:102F600000D20347F4FDA385E70001000F00F00F36
:102F7000010001A08327C4FC638A071697D7FF17B7
:102F8000938707289C430327C4FC63E1E71697D780
:102F9000FF17938727262324F4FE97D7FF179387DD
:102FA00067259C432326F4FE11A88327C4FE23240F
:102FB000F4FE8327C4FE9C432326F4FE8327C4FE2D
:102FC000DC430327C4FC63F6E7008327C4FE9C436D
:102FD000E9FF97D7FF17938767229C430327C4FE17
:102FE0006306F710832784FE9843A147BA972322EC
:102FF000F4FE8327C4FE9843832784FE98C3832767
:10300000C4FED8438327C4FC1D8FA147860763FFF6
:10301000E7040327C4FE8327C4FCBA972320F4FEE9
:10302000832704FE9D8B95C39387C18083C70700C8
:10303000230FF4FCB70700D20347E4FDA385E700A4
:1030400001000F00F00F010001A08327C4FED84348
:103050008327C4FC1D8F832704FED8C38327C4FEA7
:103060000327C4FCD8C3032504FE012697D7FF1706
:103070009387071998438327C4FEDC431D8F97D796
:10308000FF179387E71798C397D7FF1793874717BB
:10309000984397D7FF179387E7169C43637CF70005
:1030A00097D7FF179387C715984397D7FF1793872D
:1030B000671598C38327C4FED84397D7FF17938714
:1030C00027159C435D8F8327C4FED8C38327C4FE86
:1030D00023A0070097D7FF17938707139C431387F5
:1030E000170097D7FF179387271298C3EF30E00098
:1030F000832744FE99E3EF40F05E832744FE9D8BD7
:1031000095C39387C18083C70700A30EF4FCB7075C
:1031100000D20347D4FDA385E70001000F00F00FA4
:10312000010001A0832744FE3E85F25062542161D4
:103130008280797106D622D40018232EA4FC83271E
:10314000C4FD2326F4FE8327C4FD638B070EA1472D
:10315000B307F0400327C4FEBA972326F4FE832763
:10316000C4FE2324F4FE832784FED84397D7FF1799
:103170009387070A9C43F98F95E39387C18083C7A0
:103180000700A303F4FEB70700D2034774FEA3852C
:10319000E70001000F00F00F010001A0832784FE6B
:1031A0009C4395C39387C18083C707002303F4FE24
:1031B000B70700D2034764FEA385E70001000F00B4
:1031C000F00F010001A0832784FED84397D7FF1793
:1031D000938707049C43F98FA5C7832784FE9C43EC
:1031E000A5E3832784FED84397D7FF179387470229
:1031F0009C4393C7F7FF7D8F832784FED8C3EF20BE
:10320000F06D832784FED84397D7FF17938747FF36
:103210009C433E9797D7FF17938787FE98C3032554
:1032200084FEA12297D7FF17938747FE9C431387FD
:10323000170097D7FF17938767FD98C3EF20F06BB0
:103240000100B250225445618280011122CE00104B
:103250009167938707802324F4FE97D7FF179387FE
:10326000E7082326F4FE8327C4FE9D8B9DC7832792
:10327000C4FE9D072326F4FE8327C4FEE19B23267C
:10328000F4FE032784FE8327C4FE1D8F97D7FF1704
:103290009387C705BA972324F4FE8327C4FE23220D
:1032A000F4FE97D7FF179387E7F4032744FE98C3EC
:1032B00097D7FF17938707F423A20700832744FEBD
:1032C000032784FEBA972326F4FEA1470327C4FEF2
:1032D000B307F7402326F4FE8327C4FEE19B232691
:1032E000F4FE0327C4FE97D7FF17938727F198C3EF
:1032F00097D7FF17938787F09C4323A2070097D7A0
:10330000FF179387A7EF9C4323A00700832744FE62
:103310002320F4FE832704FE0327C4FE1D8F83278A
:1033200004FED8C397D7FF17938747ED98438327A9
:1033300004FE98C3832704FED84397D7FF179387CB
:1033400067EC98C3832704FED84397D7FF1793876A
:1033500027EB98C397D7FF17938787EB3707008032
:1033600098C30100724405618280797122D60018E9
:10337000232EA4FC97D7FF179387C7E72326F4FED5
:1033800031A08327C4FE9C432326F4FE8327C4FE7A
:103390009C430327C4FDE3E6E7FE8327C4FE232402
:1033A000F4FE8327C4FEDC43032784FEBA97032779
:1033B000C4FD6310F7028327C4FED8438327C4FDEE
:1033C000DC433E978327C4FED8C38327C4FE232E45
:1033D000F4FC8327C4FD2324F4FE8327C4FDDC43CF
:1033E000032784FE3E978327C4FE9C436318F7049B
:1033F0008327C4FE984397D7FF17938727E09C4302
:103400006305F7028327C4FDD8438327C4FE9C438A
:10341000DC433E978327C4FDD8C38327C4FE9C4367
:1034200098438327C4FD98C305A097D7FF179387B8
:10343000E7DC98438327C4FD98C339A08327C4FEE3
:1034400098438327C4FD98C30327C4FE8327C4FD84
:103450006307F7008327C4FE0327C4FD98C3010058
:103460003254456182801D71A2CE80102324A4FABB
:103470002326B4FA01478147232CE4FA232EF4FAD9
:10348000B70700D1032684FB8326C4FB90C3D4C3B3
:103490000100032784FA8327C4FA2320E4FC2322B3
:1034A000F4FCB70700D1032604FC832644FC90C734
:1034B000D4C701009D472326F4FC232404FC3707CE
:1034C00000D28327C4FC938707408A07BA9783C733
:1034D000270093F7F70FB70600D2F99B13F7F70F02
:1034E0008327C4FC938707408A07B6972381E700A8
:1034F000370700D28327C4FC938707408A07BA970F
:1035000083C7270013F7F70F832784FC93F7F70F80
:10351000B70600D2D98F13F7F70F8327C4FC938720
:1035200007408A07B6972381E70001009D472324BF
:10353000F4FEA30304FEB70700D283C7070093F786
:10354000F70F8583BD8B2303F4FE9147A302F4FE9E
:10355000834764FEF1C7034764FE834754FE63F666
:10356000E700834754FE2303F4FE834764FE0547C8
:10357000B317F70093F7F70FFD172302F4FE034785
:1035800074FE834744FE63F6E700834744FEA303CB
:10359000F4FE034774FE834764FEA146B387F640FA
:1035A000B317F700A301F4FE832784FE232EF4FC57
:1035B000370700D28327C4FD938707408A07BA974D
:1035C00083C7370093F7F70FA30DF4FC0347B4FD4F
:1035D000834764FEB317F700A30DF4FC0347B4FD63
:1035E000834764FEB357F740A30DF4FC034734FE52
:1035F0008347B4FDD98F93F7F70F032784FE232A5F
:10360000E4FCA309F4FC370700D2832744FD938729
:1036100007408A07BA97034734FDA381E70011A04A
:1036200001009D472326F4FE370700D28327C4FEFE
:10363000938707408A07BA9783C7170093F7F70F56
:10364000B70600D293E7170013F7F70F8327C4FEDE
:10365000938707408A07B697A380E7000100814758
:103660003E85764425618280011122CE00102326FA
:10367000A4FE2324B4FE2322C4FE8327C4FEF11734
:103680002326F4FE8327C4FE11671307078898C317
:103690008327C4FE938787FA2326F4FE032744FE7C
:1036A0008327C4FE98C38327C4FEA1172326F4FEF4
:1036B000170700001307E7028327C4FE98C3832778
:1036C000C4FEF1172326F4FE032784FE8327C4FEDD
:1036D00098C38327C4FE3E85724405618280011130
:1036E00022CE26CC0010232404FE938781809843A9
:1036F000FD576303F7029387C18083C70700A307C1
:10370000F4FEB70700D20347F4FEA385E7000100EB
:103710000F00F00F010001A09387C18083C707004D
:103720002307F4FEB70700D20347E4FEA385E700B2
:1037300001000F00F00F010039A0854473B004812F
:10374000730050100100832784FEE5DB01000100B7
:103750007244E24405618280797122D60018AA87FA
:10376000A30FF4FCB70700D283C7070093F7F70F46
:103770008583BD8B2307F4FE9147A306F4FE034720
:10378000E4FE8347D4FE63E7E7008347E4FEA30734
:10379000F4FE29A08347D4FEA307F4FE8347F4FE7A
:1037A0000547B317F70093F7F70FFD172306F4FE4D
:1037B0000347F4FD8347C4FE63F6E7008347C4FE76
:1037C000A30FF4FC8347F4FD3E85325445618280AB
:1037D000797122D60018AA87A30FF4FCB70700D28C
:1037E00083C7070093F7F70F8583BD8B2307F4FE8C
:1037F0009147A306F4FE230604FE0347E4FE834735
:10380000D4FE63E7E7008347E4FEA307F4FE29A0A4
:103810008347D4FEA307F4FE8347F4FE2147B30792
:10382000F740A305F4FE8347F4FE0547B317F700FE
:1038300093F7F70FFD172305F4FE0347F4FD8347C5
:10384000A4FE63F6E7008347A4FEA30FF4FC03473E
:10385000F4FD8347B4FEB317F70013978701618720
:103860008347B4FE8546B397F60093F7F70FFD172D
:1038700093F7F70FE207E187D98FE207E187230685
:10388000F4FE8347C4FE3E85325445618280411177
:1038900006C622C400081D45253FAA873E87938798
:1038A000C1802380E7001D45453DAA873E8797D705
:1038B000FF17938727962380E700A14073B000305D
:1038C0000100652C9387818023A00700EF00500B37
:1038D000EF205046293581473E85B24022444101C0
:1038E0008280011122CE00109387C18083C7070018
:1038F000A307F4FEB70700D20347F4FEA385E70051
:1039000001000F00F00F0100938781809C43138713
:1039100017009387818098C3938781809843854758
:10392000631FF702B70700D283C7B70013F7F70F7B
:103930009387C18083C707006303F7029387C18021
:1039400083C707002307F4FEB70700D20347E4FE4E
:10395000A385E70001000F00F00F010001A00100A6
:10396000724405618280011122CE0010938781800C
:103970009C4395E39387C18083C70700A307F4FEA8
:10398000B70700D20347F4FEA385E70001000F004C
:10399000F00F010001A0938781809C431387F7FFFC
:1039A0009387818098C3938781809C438DE323070D
:1039B00004FE8347E4FEA306F4FEB70700D20347E4
:1039C000D4FEA385E70001000F00F00F0100010005
:1039D000724405618280011106CE22CC00109387CB
:1039E000C18083C70700A306F4FEB70700D20347D0
:1039F000D4FEA385E70001000F00F00F0100370798
:103A000000D18567BA9783A7C7FFB70600D113F720
:103A1000E7FF8567B69723AEE7FE0100EF20903100
:103A2000A30704FE8347F4FE2307F4FEB70700D282
:103A30000347E4FEA385E70001000F00F00F01003B
:103A40000100F240624405618280797106D622D479
:103A500000189387C18083C70700A30BF4FCB70746
:103A600000D2034774FDA385E70001000F00F00FAB
:103A7000010097C7FF179387A776984393078002A3
:103A8000B357F7023E8681462324C4FE2326D4FE84
:103A9000B70700D19843DC432320E4FE2322F4FE41
:103AA000032884FE8328C4FE032504FE832544FEE8
:103AB0003306A800B287B3B70701B386B800B6973C
:103AC000BE86232CC4FC232ED4FC85460327C4FDCC
:103AD000832744FE63EFE7000327C4FD832744FEEA
:103AE0006318F700032784FD832704FE63E3E700E0
:103AF000814693F7F60F91CBB70700D1032684FDDB
:103B00008326C4FD90C7D4C739A8B70700D10146A2
:103B1000814690C3D4C3B70700D1032684FE832611
:103B2000C4FE90C7D4C7EF20607BAA8795C3370730
:103B300000D18567BA9783A7C7FFB70600D113E7FF
:103B400017008567B69723AEE7FE01000F00F00F60
:103B5000230B04FC834764FDA30AF4FCB70700D2DF
:103B6000034754FDA385E70001000F00F00F01009B
:103B70000100B250225445618280597186D6A2D488
:103B8000801897C7FF179387A7659843930780020C
:103B9000B357F7022324F4FE232604FE032584FEF4
:103BA0008325C4FEEFF03F8C9D47232AF4F83707A6
:103BB00000D2832744F9938707408A07BA9783C7BF
:103BC000170093F7F70FB70600D2F99B13F7F70F1B
:103BD000832744F9938707408A07B697A380E700B5
:103BE00001009D472328F4FAA30704FAB70700D27F
:103BF00083C7070093F7F70F8583BD8B2307F4FA7C
:103C00009147A306F4FA8347E4FAF1C70347E4FABD
:103C10008347D4FA63F6E7008347D4FA2307F4FA1C
:103C20008347E4FA0547B317F70093F7F70FFD173B
:103C30002306F4FA0347F4FA8347C4FA63F6E7006D
:103C40008347C4FAA307F4FA0347F4FA8347E4FA74
:103C5000A146B387F640B317F700A305F4FA83270C
:103C600004FB2322F4FA370700D2832744FA938710
:103C700007408A07BA9783C7370093F7F70FA30166
:103C8000F4FA034734FA8347E4FAB317F700A301C1
:103C9000F4FA034734FA8347E4FAB357F740A30131
:103CA000F4FA0347B4FA834734FAD98F93F7F70F3E
:103CB000032704FB232EE4F8A30DF4F8370700D202
:103CC0008327C4F9938707408A07BA970347B4F953
:103CD000A381E70011A001009D47232CF4FA232AB9
:103CE00004FA370700D2832784FB938707408A07AB
:103CF000BA9783C7270093F7F70FB70600D2F99B4F
:103D000013F7F70F832784FB938707408A07B6973B
:103D10002381E700370700D2832784FB938707407E
:103D20008A07BA9783C7270013F7F70F832744FB47
:103D300093F7F70FB70600D2D98F13F7F70F832742
:103D400084FB938707408A07B6972381E700010029
:103D50009D47232EF4FA370700D28327C4FB9387AD
:103D600007408A07BA9783C7170093F7F70FB7067C
:103D700000D293E7170013F7F70F8327C4FB93874D
:103D800007408A07B697A380E70001008D472322EA
:103D9000F4FC85472320F4FC370700D2832744FC3A
:103DA000938707408A07BA9783C7270093F7F70FCF
:103DB000B70600D2F99B13F7F70F832744FC9387CC
:103DC00007408A07B6972381E700370700D2832789
:103DD00044FC938707408A07BA9783C7270013F7E5
:103DE000F70F832704FC93F7F70FB70600D2D98F9C
:103DF00013F7F70F832744FC938707408A07B6978A
:103E00002381E70001008D472320F4FEA30F04FC6B
:103E1000B70700D283C7070093F7F70F8583BD8BE1
:103E2000230FF4FC9147A30EF4FC8347E4FDF1C794
:103E30000347E4FD8347D4FD63F6E7008347D4FDE1
:103E4000230FF4FC8347E4FD0547B317F70093F70E
:103E5000F70FFD17230EF4FC0347F4FD8347C4FD61
:103E600063F6E7008347C4FDA30FF4FC0347F4FDAA
:103E70008347E4FDA146B387F640B317F700A30DCF
:103E8000F4FC832704FE232AF4FC370700D283279F
:103E900044FD938707408A07BA9783C7370093F793
:103EA000F70FA309F4FC034734FD8347E4FDB31780
:103EB000F700A309F4FC034734FD8347E4FDB3573F
:103EC000F740A309F4FC0347B4FD834734FDD98FC1
:103ED00093F7F70F032704FE2326E4FCA305F4FC65
:103EE000370700D28327C4FC938707408A07BA9715
:103EF0000347B4FCA381E70011A001008D472322F2
:103F0000F4FE370700D2832744FE938707408A07D1
:103F1000BA9783C7170093F7F70FB70600D293E756
:103F2000170013F7F70F832744FE938707408A078C
:103F3000B697A380E70001000100B65026546561E2
:103F40008280797122D626D40018F3272034BE84CB
:103F5000A687232AF4FC032744FDB7070080F98FC6
:103F600095E39387C18083C707002305F4FEB70755
:103F700000D20347A4FEA385E70001000F00F00F65
:103F8000010001A0032744FDB7070080F98FE1CFAE
:103F9000832744FD3E878567FD17F98FC207C183DC
:103FA0002326F4FE0327C4FEC54763FEE70A8327E2
:103FB000C4FE2322F4FEB70700D283C7070093F79D
:103FC000F70F8583BD8BA301F4FE91472301F4FE17
:103FD000834734FE99E3814791A8034734FE834722
:103FE00024FE63F6E700834724FEA301F4FE832743
:103FF00044FE232EF4FC370700D28327C4FD9387A9
:1040000007408A07BA9783C7370093F7F70FA30DC6
:10401000F4FC0347B4FD834734FEA146B387F64062
:10402000B357F740230DF4FC8347A4FDA305F4FE2A
:1040300097C7FF179387071E83C707000347B4FE80
:1040400063F3E7029387C18083C70700A30CF4FCE6
:10405000B70700D2034794FDA385E70001000F00D6
:10406000F00F010001A001003254A254456182808A
:104070000000000000000000000000000000000040
:10408000731191345D7106C012C216C41AC61EC8DF
:104090002ACA2ECC32CE36D03AD23ED442DC46DECC
:1040A000F2C0F6C2FAC4FEC673D0E57E7350F67E47
:1040B00073D0B67E732520348A85EFE08F9FD2526D
:1040C0007390427CC25273901234B2527390223475
:1040D00082401242A2423243C2435245E2457246F6
:1040E00082561257A2576258F258064E964E264FE5
:1040F000B64F6161731191347300203000000000ED
:10410000731191345D7106C012C216C41AC61EC85E
:104110002ACA2ECC32CE36D03AD23ED442DC46DE4B
:10412000F2C0F6C2FAC4FEC673D0E57E7350F67EC6
:1041300073D0B67EF390D07E73700430D2527390F9
:10414000427CC25273901234B25273902234824035
:104150001242A2423243C2435245E245724682565F
:104160001257A2576258F258064E964E264FB64F37
:104170006161731191347300203001A013000000BD
:1041800097120018938202E87390023417C1FF1748
:10419000032181080241824273901234D6527390F7
:1041A00002309240A2423243C2435244E24472453A
:1041B00082551256A2563257C2575258E258725977
:1041C0008649164AA64A364BC64B564CE64C764DA7
:1041D000865D165EA65E365FC65F130181077300BB
:1041E00020300100130181F806C216C41AC61EC889
:1041F00022CA26CC2ACE2ED032D236D43AD63ED8B7
:1042000042DA46DC4ADECEC0D2C2D6C4DAC6DEC846
:10421000E2CAE6CCEACEEED0F2D2F6D4FAD6FED896
:10422000F322003096DA97C2FF1783A2E2FE23A0A2
:104230002200F322103416C0EFF0EFF997C2FF17F7
:1042400083A282FD03A10200824273901234D652EF
:10425000739002309240A2423243C2435244E2443D
:10426000724582551256A2563257C2575258E258DA
:1042700072598649164AA64A364BC64B564CE64CEE
:10428000764D865D165EA65E365FC65F13018107BA
:1042900073002030011106CE22CC001013058002DD
:1042A000EFE0FFC42326A4FE8327C4FE81CF83272B
:1042B000C4FE0146814690C3D4C38327C4FEA10730
:1042C0003E8501288327C4FE3E85F2406244056195
:1042D0008280011122CE00102326A4FE8327C4FE73
:1042E000138787008327C4FED8C38327C4FE7D5667
:1042F000FD5690C7D4C78327C4FE13878700832742
:10430000C4FE98CB8327C4FE138787008327C4FE8F
:10431000D8CB8327C4FE23A00700010072440561A7
:104320008280011122CE00102326A4FE8327C4FE22
:1043300023AA07000100724405618280797122D6A8
:104340000018232EA4FC232CB4FC8327C4FDDC43DB
:104350002326F4FE832784FD0327C4FE98C7832702
:10436000C4FED847832784FDD8C78327C4FEDC4713
:10437000032784FD98C78327C4FE032784FDD8C77D
:10438000832784FD0327C4FDD8CB8327C4FD9C432A
:10439000138717008327C4FD98C301003254456179
:1043A0008280797122D60018232EA4FC232CB4FC21
:1043B000832784FD9843DC432320E4FE2322F4FE7C
:1043C000032704FEFD57631DF700032744FEFD5736
:1043D0006318F7008327C4FDDC4B2326F4FE81A07D
:1043E0008327C4FDA1072326F4FE31A08327C4FE42
:1043F0009C472326F4FE8327C4FE9C479043D44366
:10440000832744FE368763ECE700832744FE368724
:10441000E39EE7FC832704FE3287E3F9E7FC83276A
:10442000C4FE9847832784FD98C7832784FD9C4753
:10443000032784FDD8C7832784FD0327C4FED8C77C
:104440008327C4FE032784FD98C7832784FD0327A1
:10445000C4FDD8CB8327C4FD9C4313871700832753
:10446000C4FD98C30100325445618280797122D61F
:104470000018232EA4FC8327C4FDDC4B2326F4FE66
:104480008327C4FD9C470327C4FD5847D8C783270B
:10449000C4FDDC470327C4FD184798C78327C4FE23
:1044A000DC430327C4FD6318F7008327C4FDD84706
:1044B0008327C4FED8C38327C4FD23AA070083270C
:1044C000C4FE9C431387F7FF8327C4FE98C383274A
:1044D000C4FE9C433E85325445618280797106D684
:1044E00022D40018232EA4FC232CB4FC8327C4FD63
:1044F0002326F4FE8327C4FE95E39387C18083C7F8
:104500000700A305F4FEB70700D20347B4FEA38556
:10451000E70001000F00F00F010001A0EFF06FBCF9
:104520008327C4FE98438327C4FEF4438327C4FE35
:10453000BC47B387F6023E978327C4FE98C78327FC
:10454000C4FE23A007048327C4FE98438327C4FE28
:10455000D8C38327C4FE98438327C4FEFC439386B5
:10456000F7FF8327C4FEBC47B387F6023E97832735
:10457000C4FED8C78327C4FE7D572386E70483275C
:10458000C4FE7D57A386E704832784FD9DEF832720
:10459000C4FE9C4BB1C78327C4FEC1073E85EF20F4
:1045A000001FAA8795CF370700D18567BA9783A7E1
:1045B000C7FFB70600D113E717008567B69723AE8C
:1045C000E7FE01000F00F00F21A88327C4FEC107FA
:1045D0003E8501338327C4FE938787023E85D53904
:1045E000EFF06FB885473E85B25022544561828016
:1045F000797106D622D40018232EA4FC232CB4FCF7
:10460000B287A30BF4FC8327C4FD95E39387C18095
:1046100083C70700A301F4FEB70700D2034734FEA7
:10462000A385E70001000F00F00F010001A00327A0
:10463000C4FD832784FDB307F7022326F4FE8327F6
:10464000C4FE938787053E85EFE07F8A2324A4FE7E
:10465000832784FE9DC7832784FE2322F4FE8327BD
:1046600044FE938787052322F4FE834774FD0327C6
:1046700084FEBE86032644FE832584FD0325C4FDF7
:104680000128832784FE3E85B250225445618280F2
:10469000797106D622D400182326A4FE2324B4FE62
:1046A0002322C4FEB687232EE4FCA301F4FE832755
:1046B00084FE99E78327C4FD0327C4FD98C331A076
:1046C0008327C4FD032744FE98C38327C4FD032723
:1046D000C4FEF8C38327C4FD032784FEB8C78545FD
:1046E0000325C4FDE53B8327C4FD034734FE238A2D
:1046F000E7040100B250225445618280797106D6E8
:1047000022D40018232EA4FC232CB4FC8327C4FD40
:1047100095E39387C18083C70700A305F4FEB7071D
:1047200000D20347B4FEA385E70001000F00F00F9D
:10473000010001A0032784FD8327C4FD63F3E70282
:104740009387C18083C707002305F4FEB70700D213
:104750000347A4FEA385E70001000F00F00F01004E
:1047600001A0094681450325C4FD59352326A4FE31
:104770008327C4FE91C78327C4FE032784FDB8C3E3
:104780008327C4FE3E85B2502254456182805D710C
:1047900086C6A2C480082326A4FC2324B4FC2320BC
:1047A000C4FC2322D4FC232EE4FA232604FE832710
:1047B000C4FC2324F4FE832784FE95E39387C18001
:1047C00083C70700A301F4FEB70700D2034734FEF6
:1047D000A385E70001000F00F00F010001A083276F
:1047E00084FC89E7832784FEBC4799E3854711A0B1
:1047F000814795E39387C18083C707002301F4FEB7
:10480000B70700D2034724FEA385E70001000F008D
:10481000F00F010001A00327C4FB89476318F700CC
:10482000832784FEF84385476314F700854711A06A
:10483000814795E39387C18083C70700A300F4FEF7
:10484000B70700D2034714FEA385E70001000F005D
:10485000F00F010001A0EF208038AA8781EB03262A
:1048600004FC832644FCB287D58F99E3854711A0C9
:10487000814795E39387C18083C707002300F4FE37
:10488000B70700D2034704FEA385E70001000F002D
:10489000F00F010001A0EFF0CF84832784FEB8431E
:1048A000832784FEFC436367F7000327C4FB894723
:1048B0006313F7080326C4FB832584FC032584FEC9
:1048C000EF0050512322A4FE832784FE9C5785CFFE
:1048D000832784FE938787023E85EF10506BAA875B
:1048E000B9C7370700D18567BA9783A7C7FFB7064F
:1048F00000D113E717008567B69723AEE7FE0100E6
:104900000F00F00F2DA0832744FE95C3370700D179
:104910008567BA9783A7C7FFB70600D113E71700CB
:104920008567B69723AEE7FE01000F00F00FEFF0AA
:104930008F83854701A2032604FC832644FCB287AB
:10494000D58F89E7EFF02F828147EDA08327C4FE42
:1049500089EB930704FD3E85EF10B072854723264F
:10496000F4FEEFF04F80EF106077EFE09FF78327C2
:1049700084FE83C7C704139787016187FD576316B9
:10498000F700832784FE23860704832784FE83C7DA
:10499000D704139787016187FD576316F7008327B4
:1049A00084FEA3860704EFE01FFC130704FC9307B3
:1049B00004FDBA853E85EF10B06FAA87ADE70325E9
:1049C00084FEEF00106AAA87A1CB832784FEC1076B
:1049D000032604FC832644FCB28536863E85EF1010
:1049E000104C032584FEEF003058EF100071AA87A9
:1049F000E39307EA370700D18567BA9783A7C7FF14
:104A0000B70600D113E717008567B69723AEE7FE18
:104A100001000F00F00F41B5032584FEEF00D054D4
:104A2000EF10A06D8DBD032584FEEF00F053EF1055
:104A3000C06C81473E85B6402644616182803971F1
:104A400006DE22DC80002326A4FC2324B4FC2322DF
:104A5000C4FC2320D4FC8327C4FC2324F4FE832736
:104A600084FE95E39387C18083C70700A30DF4FC00
:104A7000B70700D20347B4FDA385E70001000F008C
:104A8000F00F010001A0832784FC89E7832784FEBF
:104A9000BC4799E3854711A0814795E39387C1807F
:104AA00083C70700230DF4FCB70700D20347A4FD1A
:104AB000A385E70001000F00F00F010001A003270C
:104AC00004FC89476318F700832784FEF843854771
:104AD0006314F700854711A0814795E39387C18050
:104AE00083C70700A30CF4FCB70700D2034794FD6B
:104AF000A385E70001000F00F00F010001A0EFF017
:104B00004FC4B70700D283C7B70093F7F70F230C42
:104B1000F4FC9387C18083C70700A30BF4FCB7079D
:104B200000D2034774FDA385E70001000F00F00FDA
:104B3000834784FD2322F4FE832784FEB843832722
:104B400084FEFC436367F700032704FC8947631F67
:104B5000F706832784FE83C7D704A301F4FE8327C7
:104B600084FEBC43232EF4FC032604FC832584FC32
:104B7000032584FEEF001026030734FEFD5763175C
:104B8000F702832784FE9C5795CF832784FE938763
:104B900087023E85EF10B03FAA878DC7832744FC6C
:104BA00095C3832744FC054798C329A8834734FE4F
:104BB000850793F7F70F139787016187832784FE93
:104BC000A386E70485472326F4FE19A0232604FEC6
:104BD000832744FE93F7F70F230BF4FC834764FD10
:104BE000A30AF4FCB70700D2034754FDA385E700EE
:104BF00001000F00F00F01008327C4FE3E85F25034
:104C0000625421618280397106DE22DC8000232615
:104C1000A4FC2324B4FC8327C4FC2324F4FE8327B0
:104C200084FE95E39387C18083C70700230FF4FCBC
:104C3000B70700D20347E4FDA385E70001000F009A
:104C4000F00F010001A0832784FEBC4795C3938722
:104C5000C18083C70700A30EF4FCB70700D2034747
:104C6000D4FDA385E70001000F00F00F010001A0B3
:104C7000832784FE9C4389E7832784FE9C4799E32E
:104C8000854711A0814795E39387C18083C70700BB
:104C9000230EF4FCB70700D20347C4FDA385E70049
:104CA00001000F00F00F010001A0EFF08FA9B7077E
:104CB00000D283C7B70093F7F70FA30DF4FC9387D7
:104CC000C18083C70700230DF4FCB70700D2034758
:104CD000A4FDA385E70001000F00F00F8347B4FD9A
:104CE0002322F4FE832784FEBC432320F4FE832783
:104CF00084FEFC43032704FE6379F706832784FEC2
:104D000083C7D704A30FF4FC832704FE138717007F
:104D1000832784FEB8C30307F4FDFD576317F7022A
:104D2000832784FE9C5795CF832784FE9387870231
:104D30003E85EF10D025AA878DC7832784FC95C3B5
:104D4000832784FC054798C329A88347F4FD85077A
:104D500093F7F70F139787016187832784FEA38654
:104D6000E70485472326F4FE19A0232604FE8327A3
:104D700044FE93F7F70FA30CF4FC834794FD230C38
:104D8000F4FCB70700D2034784FDA385E7000100C8
:104D90000F00F00F01008327C4FE3E85F2506254DD
:104DA00021618280397106DE22DC80002326A4FC8A
:104DB0002324B4FC2320C4FC2322D4FC232604FE99
:104DC0008327C4FC2324F4FE832784FE95E3938782
:104DD000C18083C70700A301F4FEB70700D20347D1
:104DE00034FEA385E70001000F00F00F010001A0D1
:104DF000832784FC89E7832784FEBC4799E38547A2
:104E000011A0814795E39387C18083C707002301E1
:104E1000F4FEB70700D2034724FEA385E700010094
:104E20000F00F00F010001A0EF10705BAA8781EB6B
:104E3000032604FC832644FCB287D58F99E385477B
:104E400011A0814795E39387C18083C70700A30022
:104E5000F4FEB70700D2034714FEA385E700010064
:104E60000F00F00F010001A0EFE0BFA7832784FE31
:104E7000BC432322F4FE832744FEB9CF832584FC60
:104E8000032584FEEF00B007832744FE1387F7FF56
:104E9000832784FEB8C3832784FE9C4B95CB83274E
:104EA00084FEC1073E85EF10900EAA8795C3370791
:104EB00000D18567BA9783A7C7FFB70600D113E76C
:104EC00017008567B69723AEE7FE01000F00F00FCD
:104ED000EFE07FA9854701AA032604FC832644FC52
:104EE000B287D58F89E7EFE01FA88147EDA8832718
:104EF000C4FE89EB930704FD3E85EF1090188547AB
:104F00002326F4FEEFE03FA6EF10401DEFE07F9D6B
:104F1000832784FE83C7C704139787016187FD57E2
:104F20006316F700832784FE23860704832784FE05
:104F300083C7D704139787016187FD576316F7006E
:104F4000832784FEA3860704EFE0FFA1130704FC78
:104F5000930704FDBA853E85EF109015AA87B5E743
:104F6000032584FEEF00900CAA87A9CB832784FE3B
:104F700093878702032604FC832644FCB285368689
:104F80003E85EF10C071032584FEEF00E07DEF1039
:104F9000C016AA87E39A07EC370700D18567BA974E
:104FA00083A7C7FFB70600D113E717008567B69739
:104FB00023AEE7FE01000F00F00F7DB5032584FE50
:104FC000EF00807AEF10601345B5032584FEEF00F3
:104FD000A079EF108012032584FEEF003005AA8728
:104FE000E38407E881473E85F25062542161828064
:104FF0005D7186C6A2C48008232EA4FA2328B4FAC1
:10500000232AC4FA232604FE8327C4FB2322F4FEAA
:10501000232404FE832744FE95E39387C18083C73E
:105020000700A30DF4FCB70700D20347B4FDA38526
:10503000E70001000F00F00F010001A0832744FEEC
:10504000BC4795C39387C18083C70700230DF4FC39
:10505000B70700D20347A4FDA385E70001000F00B6
:10506000F00F010001A0EF109037AA8781EB032613
:1050700004FB832644FBB287D58F99E3854711A0B3
:10508000814795E39387C18083C70700A30CF4FC95
:10509000B70700D2034794FDA385E70001000F0086
:1050A000F00F010001A0EFE0DF83832744FEBC4343
:1050B0002320F4FE832704FEBDC3832704FE138749
:1050C000F7FF832744FEB8C3832744FE9C4399E738
:1050D000EF1030762A87832744FE98C7832744FE43
:1050E0009C4B95CB832744FEC1073E85EF10206A79
:1050F000AA8795C3370700D18567BA9783A7C7FFEB
:10510000B70600D113E717008567B69723AEE7FE11
:1051100001000F00F00FEFE01F8585479DAA0326D1
:1051200004FB832644FBB287D58F8DEB832784FE57
:1051300095C39387C18083C70700230CF4FCB7078E
:1051400000D2034784FDA385E70001000F00F00FA4
:10515000010001A0EFE03F81814725AA8327C4FE1B
:1051600089EB930784FC3E85EF10A07185472326C9
:10517000F4FEEFE04FFFEF007076EFE08FF683274D
:1051800044FE83C7C704139787016187FD576316E1
:10519000F700832744FE23860704832744FE83C742
:1051A000D704139787016187FD576316F70083279C
:1051B00044FEA3860704EFE00FFB130704FB9307ED
:1051C00084FCBA853E85EF10A06EAA87D9E303253B
:1051D00044FEA92DAA87A5CB832744FE9C4389EFD3
:1051E000EFE02FF0832744FE9C473E85EF1090228E
:1051F0002324A4FEEFE02FF7832744FE9387870242
:10520000032604FB832644FBB28536863E85EF10D9
:105210000049032544FE892BEF00306EAA87E394F2
:1052200007E8370700D18567BA9783A7C7FFB70696
:1052300000D113E717008567B69723AEE7FE01009C
:105240000F00F00F8DB5032544FE392BEF00F06AF7
:1052500099BD032544FE092BEF00306A032544FE67
:10526000F123AA87E38107E4832784FE95C3EFE057
:105270004FE7032544FE2526232EA4FC832744FE66
:105280009C478325C4FD3E85EF10B041EFE0AFEDB4
:1052900081473E85B6402644616182805D7186C645
:1052A000A2C48008232EA4FA232CB4FA2328C4FA1B
:1052B000232AD4FA232604FE8327C4FB2324F4FEE6
:1052C000832784FE95E39387C18083C70700A30FDC
:1052D000F4FCB70700D20347F4FDA385E700010003
:1052E0000F00F00F010001A0832784FB89E78327CB
:1052F00084FEBC4799E3854711A0814795E39387D6
:10530000C18083C70700230FF4FCB70700D203470F
:10531000E4FDA385E70001000F00F00F010001A0EC
:10532000EF10F00BAA8781EB032604FB832644FBD6
:10533000B287D58F99E3854711A0814795E393877D
:10534000C18083C70700A30EF4FCB70700D2034750
:10535000D4FDA385E70001000F00F00F010001A0BC
:10536000EFE02FD8832784FEBC432322F4FE83275B
:1053700044FEB5C3832784FEDC472320F4FE832547
:1053800084FB032584FEA52E832784FE032704FEC9
:10539000D8C7832784FE9C579DCB832784FE9387A1
:1053A00087023E85EF10A03EAA8795C3370700D13C
:1053B0008567BA9783A7C7FFB70600D113E7170021
:1053C0008567B69723AEE7FE01000F00F00FEFE010
:1053D0008FD9854719A2032604FB832644FBB28795
:1053E000D58F89E7EFE02FD88147C5A88327C4FE72
:1053F00089EB930784FC3E85EF10A0488547232660
:10540000F4FEEFE04FD6EF00704DEFE08FCD832735
:1054100084FE83C7C704139787016187FD5763160E
:10542000F700832784FE23860704832784FE83C72F
:10543000D704139787016187FD576316F700832709
:1054400084FEA3860704EFE00FD2130704FB930743
:1054500084FCBA853E85EF10A045AA87BDE30325ED
:1054600084FEE926AA87A1CB832784FE938787023F
:10547000032604FB832644FBB28536863E85EF1067
:105480000022032584FECD24EF003047AA87E3994C
:1054900007EC370700D18567BA9783A7C7FFB70620
:1054A00000D113E717008567B69723AEE7FE01002A
:1054B0000F00F00F75B5032584FE7D24EF00F04347
:1054C00045B5032584FE4D24EF003043032584FEBB
:1054D000B12EAA87E38607E881473E85B640264479
:1054E00061618280797106D622D40018232EA4FC33
:1054F0008327C4FD95E39387C18083C70700A30575
:10550000F4FEB70700D20347B4FEA385E70001000D
:105510000F00F00F010001A0EFE0AFBC8327C4FD36
:10552000BC432326F4FEEFE00FC48327C4FE3E8570
:10553000B250225445618280797106D622D4001877
:10554000232EA4FC8327C4FD2326F4FE8327C4FE58
:1055500095E39387C18083C70700A303F4FEB707D1
:1055600000D2034774FEA385E70001000F00F00F8F
:10557000010001A0EFE0EFB68327C4FEF8438327C4
:10558000C4FEBC43B307F7402324F4FEEFE0AFBDF5
:10559000832784FE3E85B250225445618280797112
:1055A00022D60018232EA4FC8327C4FD9C5799CB38
:1055B0008327C4FD9C5F9843DC439147998F232642
:1055C000F4FE19A0232604FE8327C4FE3E85325430
:1055D00045618280797106D622D40018232EA4FC5E
:1055E000232CB4FC232AC4FC232604FE8327C4FDF9
:1055F000BC432324F4FE8327C4FDBC4795E38327E3
:10560000C4FD9C43F9EF8327C4FD9C473E85EF1002
:10561000E0742326A4FE8327C4FD23A40700D1A0A1
:10562000832744FDB1E78327C4FDD8438327C4FD06
:10563000BC473E86832584FD3A85EF20D0348327FE
:10564000C4FDD8438327C4FDBC473E978327C4FDD0
:10565000D8C38327C4FDD8438327C4FD9C47636216
:10566000F7088327C4FD98438327C4FDD8C395A8B2
:105670008327C4FDD8478327C4FDBC473E868325C6
:1056800084FD3A85EF2030308327C4FDD847832737
:10569000C4FDBC47B307F0403E978327C4FDD8C77D
:1056A0008327C4FDD8478327C4FD9C43637EF7004E
:1056B0008327C4FD98478327C4FDBC47B307F04048
:1056C0003E978327C4FDD8C7032744FD8947631A43
:1056D000F700832784FE91C7832784FEFD172324C8
:1056E000F4FE832784FE138717008327C4FDB8C305
:1056F0008327C4FE3E85B250225445618280011149
:1057000006CE22CC00102326A4FE2324B4FE832739
:10571000C4FEBC47A9C78327C4FED8478327C4FE5D
:10572000BC473E978327C4FED8C78327C4FED8470B
:105730008327C4FE9C476368F7008327C4FE984311
:105740008327C4FED8C78327C4FED8478327C4FE57
:10575000BC473E86BA85032584FEEF20D022010097
:10576000F240624405618280797106D622D4001825
:10577000232EA4FCEFE0EF968327C4FD83C7D70454
:10578000A307F4FE3DA08327C4FD9C5785CB832748
:10579000C4FD938787023E85EF00707FAA8799C377
:1057A000EF1020298347F4FEFD1793F7F70FA307A7
:1057B000F4FE8307F4FEE348F0FC11A00100832708
:1057C000C4FD7D57A386E704EFE0EF99EFE06F910A
:1057D0008327C4FD83C7C7042307F4FE35A08327AE
:1057E000C4FD9C4B9DC78327C4FDC1073E85EF00C8
:1057F000107AAA8799C3EF10C0238347E4FEFD17F0
:1058000093F7F70F2307F4FE8307E4FEE349F0FC68
:1058100011A001008327C4FD7D572386E704EFE034
:105820008F940100B250225445618280797106D66E
:1058300022D40018232EA4FCEFE0AF8A8327C4FDF6
:10584000BC4389E785472326F4FE19A0232604FEDE
:10585000EFE06F918327C4FE3E85B250225445612C
:105860008280797106D622D40018232EA4FCEFE0A2
:105870004F878327C4FDB8438327C4FDFC436316C9
:10588000F70085472326F4FE19A0232604FEEFE047
:105890008F8D8327C4FE3E85B2502254456182809D
:1058A000797122D60018232EA4FC232CB4FC2326C5
:1058B00004FEB9A017E7FF17130747238327C4FE89
:1058C0008E07BA979C4385EB17E7FF17130707224C
:1058D0008327C4FE8E07BA97032784FD98C317E772
:1058E000FF171307A7208327C4FE8E07BA97032745
:1058F000C4FDD8C321A88327C4FE85072326F4FE50
:105900000327C4FEA547E3F7E7FA0100010032547C
:1059100045618280797106D622D40018232EA4FC1A
:105920002328B4FC232AC4FC232CD4FC8327C4FDE5
:105930002326F4FEEFD0FFFA8327C4FE83C7C704F3
:10594000139787016187FD576316F7008327C4FE0D
:10595000238607048327C4FE83C7D70413978701D0
:105960006187FD576316F7008327C4FEA3860704EB
:10597000EFD07FFF8327C4FEBC4391EF8327C4FE93
:1059800093878702832684FD832504FD032644FD37
:105990003E85EF0090570325C4FEF9330100B25055
:1059A000225445618280397106DE22DC8000232E7C
:1059B000A4FC232CB4FC2328D4FC2326E4FC2324BD
:1059C000F4FCB287231BF4FC835764FD8A073E85F1
:1059D000EFD0EFD12322A4FE832744FE8DC7130509
:1059E0000008EFD0CFD02326A4FE8327C4FE99C79A
:1059F0008327C4FE032744FED8DF01A8032544FE05
:105A0000EFD02FF319A0232604FE8327C4FE85CBF5
:105A1000035664FD81480328C4FE832784FC0327C2
:105A2000C4FC832604FD832584FD0325C4FD1520C5
:105A30000325C4FE392485472324F4FE21A0FD5705
:105A40002324F4FE832784FE3E85F25062542161B4
:105A50008280397106DE22DC4ADA4ED88000232E9D
:105A6000A4FC232CB4FC232AC4FC2328D4FC232626
:105A7000E4FC2324F4FC232204FD232014FD8327CB
:105A800044FCD85F832744FD8A073E869305500A6D
:105A90003A85EF20807C832744FCD85F832644FD31
:105AA000B7070040FD17B6978A07BA972324F4FE7C
:105AB000832784FEE19B2324F4FE832784FE9D8BB1
:105AC00095C39387C18083C70700A303F4FEB7077C
:105AD00000D2034774FEA385E70001000F00F00F1A
